{
  "contractName": "AccountManage",
  "abi": [
    {
      "constant": true,
      "inputs": [],
      "name": "wallet",
      "outputs": [
        {
          "name": "",
          "type": "address"
        }
      ],
      "payable": false,
      "stateMutability": "view",
      "type": "function"
    },
    {
      "constant": true,
      "inputs": [
        {
          "name": "",
          "type": "address"
        }
      ],
      "name": "accounts",
      "outputs": [
        {
          "name": "owner",
          "type": "address"
        },
        {
          "name": "role",
          "type": "uint256"
        },
        {
          "name": "registered",
          "type": "bool"
        }
      ],
      "payable": false,
      "stateMutability": "view",
      "type": "function"
    },
    {
      "constant": true,
      "inputs": [
        {
          "name": "",
          "type": "address"
        }
      ],
      "name": "dataOwnersCount",
      "outputs": [
        {
          "name": "",
          "type": "uint256"
        }
      ],
      "payable": false,
      "stateMutability": "view",
      "type": "function"
    },
    {
      "constant": true,
      "inputs": [
        {
          "name": "",
          "type": "address"
        },
        {
          "name": "",
          "type": "uint256"
        }
      ],
      "name": "dataOwners",
      "outputs": [
        {
          "name": "",
          "type": "address"
        }
      ],
      "payable": false,
      "stateMutability": "view",
      "type": "function"
    },
    {
      "inputs": [
        {
          "name": "_wallet",
          "type": "address"
        }
      ],
      "payable": false,
      "stateMutability": "nonpayable",
      "type": "constructor"
    },
    {
      "anonymous": false,
      "inputs": [
        {
          "indexed": false,
          "name": "owner",
          "type": "address"
        },
        {
          "indexed": false,
          "name": "role",
          "type": "uint256"
        }
      ],
      "name": "Registered",
      "type": "event"
    },
    {
      "anonymous": false,
      "inputs": [
        {
          "indexed": false,
          "name": "owner",
          "type": "address"
        },
        {
          "indexed": false,
          "name": "sum",
          "type": "uint256"
        }
      ],
      "name": "RegisteredSum",
      "type": "event"
    },
    {
      "anonymous": false,
      "inputs": [
        {
          "indexed": false,
          "name": "owner",
          "type": "address"
        },
        {
          "indexed": false,
          "name": "sum",
          "type": "uint256"
        }
      ],
      "name": "ChildChainDeposit",
      "type": "event"
    },
    {
      "constant": false,
      "inputs": [
        {
          "name": "_owner",
          "type": "address"
        },
        {
          "name": "_sum",
          "type": "uint256"
        }
      ],
      "name": "initAccount",
      "outputs": [],
      "payable": false,
      "stateMutability": "nonpayable",
      "type": "function"
    },
    {
      "constant": false,
      "inputs": [
        {
          "name": "_owner",
          "type": "address"
        }
      ],
      "name": "registerDataMart",
      "outputs": [],
      "payable": false,
      "stateMutability": "nonpayable",
      "type": "function"
    },
    {
      "constant": false,
      "inputs": [
        {
          "name": "_owner",
          "type": "address"
        }
      ],
      "name": "registerServiceNode",
      "outputs": [],
      "payable": false,
      "stateMutability": "nonpayable",
      "type": "function"
    },
    {
      "constant": false,
      "inputs": [
        {
          "name": "_owner",
          "type": "address"
        }
      ],
      "name": "registerDataValidator",
      "outputs": [],
      "payable": false,
      "stateMutability": "nonpayable",
      "type": "function"
    },
    {
      "constant": false,
      "inputs": [
        {
          "name": "_owner",
          "type": "address"
        }
      ],
      "name": "registerDataOwner",
      "outputs": [],
      "payable": false,
      "stateMutability": "nonpayable",
      "type": "function"
    },
    {
      "constant": false,
      "inputs": [
        {
          "name": "_dataValidator",
          "type": "address"
        },
        {
          "name": "_dataOwner",
          "type": "address"
        }
      ],
      "name": "registerOwner",
      "outputs": [],
      "payable": false,
      "stateMutability": "nonpayable",
      "type": "function"
    },
    {
      "constant": true,
      "inputs": [
        {
          "name": "_owner",
          "type": "address"
        }
      ],
      "name": "getRole",
      "outputs": [
        {
          "name": "",
          "type": "uint256"
        }
      ],
      "payable": false,
      "stateMutability": "view",
      "type": "function"
    },
    {
      "constant": true,
      "inputs": [
        {
          "name": "_owner",
          "type": "address"
        }
      ],
      "name": "isRegistered",
      "outputs": [
        {
          "name": "",
          "type": "bool"
        }
      ],
      "payable": false,
      "stateMutability": "view",
      "type": "function"
    },
    {
      "constant": true,
      "inputs": [
        {
          "name": "_owner",
          "type": "address"
        }
      ],
      "name": "isDataValidator",
      "outputs": [
        {
          "name": "",
          "type": "bool"
        }
      ],
      "payable": false,
      "stateMutability": "view",
      "type": "function"
    },
    {
      "constant": true,
      "inputs": [
        {
          "name": "_owner",
          "type": "address"
        }
      ],
      "name": "isDataOwner",
      "outputs": [
        {
          "name": "",
          "type": "bool"
        }
      ],
      "payable": false,
      "stateMutability": "view",
      "type": "function"
    },
    {
      "constant": true,
      "inputs": [
        {
          "name": "_owner",
          "type": "address"
        }
      ],
      "name": "isDataMart",
      "outputs": [
        {
          "name": "",
          "type": "bool"
        }
      ],
      "payable": false,
      "stateMutability": "view",
      "type": "function"
    },
    {
      "constant": true,
      "inputs": [
        {
          "name": "_owner",
          "type": "address"
        }
      ],
      "name": "isServiceNode",
      "outputs": [
        {
          "name": "",
          "type": "bool"
        }
      ],
      "payable": false,
      "stateMutability": "view",
      "type": "function"
    }
  ],
  "bytecode": "0x6080604052600160005560026001556003600255600460035534801561002457600080fd5b506040516020806111648339810180604052602081101561004457600080fd5b810190808051906020019092919050505080600460006101000a81548173ffffffffffffffffffffffffffffffffffffffff021916908373ffffffffffffffffffffffffffffffffffffffff160217905550506110be806100a66000396000f3fe608060405234801561001057600080fd5b50600436106101005760003560e01c8063521eb27311610097578063902bf05111610066578063902bf05114610513578063940e229e1461056f578063c3c5a547146105c7578063c9c150e81461062357610100565b8063521eb273146103935780635e5c06e2146103dd57806368bca18914610473578063898bd171146104b757610100565b806345464184116100d3578063454641841461025357806346efdc33146102975780634706e841146102f357806349682f531461034f57610100565b80630a546785146101055780630eae2f86146101495780632beaa3f81461019757806344276733146101fb575b600080fd5b6101476004803603602081101561011b57600080fd5b81019080803573ffffffffffffffffffffffffffffffffffffffff1690602001909291905050506106b1565b005b6101956004803603604081101561015f57600080fd5b81019080803573ffffffffffffffffffffffffffffffffffffffff16906020019092919080359060200190929190505050610722565b005b6101f9600480360360408110156101ad57600080fd5b81019080803573ffffffffffffffffffffffffffffffffffffffff169060200190929190803573ffffffffffffffffffffffffffffffffffffffff16906020019092919050505061080e565b005b61023d6004803603602081101561021157600080fd5b81019080803573ffffffffffffffffffffffffffffffffffffffff169060200190929190505050610b25565b6040518082815260200191505060405180910390f35b6102956004803603602081101561026957600080fd5b81019080803573ffffffffffffffffffffffffffffffffffffffff169060200190929190505050610b71565b005b6102d9600480360360208110156102ad57600080fd5b81019080803573ffffffffffffffffffffffffffffffffffffffff169060200190929190505050610be2565b604051808215151515815260200191505060405180910390f35b6103356004803603602081101561030957600080fd5b81019080803573ffffffffffffffffffffffffffffffffffffffff169060200190929190505050610c32565b604051808215151515815260200191505060405180910390f35b6103916004803603602081101561036557600080fd5b81019080803573ffffffffffffffffffffffffffffffffffffffff169060200190929190505050610c81565b005b61039b610cf2565b604051808273ffffffffffffffffffffffffffffffffffffffff1673ffffffffffffffffffffffffffffffffffffffff16815260200191505060405180910390f35b61041f600480360360208110156103f357600080fd5b81019080803573ffffffffffffffffffffffffffffffffffffffff169060200190929190505050610d18565b604051808473ffffffffffffffffffffffffffffffffffffffff1673ffffffffffffffffffffffffffffffffffffffff16815260200183815260200182151515158152602001935050505060405180910390f35b6104b56004803603602081101561048957600080fd5b81019080803573ffffffffffffffffffffffffffffffffffffffff169060200190929190505050610d6f565b005b6104f9600480360360208110156104cd57600080fd5b81019080803573ffffffffffffffffffffffffffffffffffffffff169060200190929190505050610de0565b604051808215151515815260200191505060405180910390f35b6105556004803603602081101561052957600080fd5b81019080803573ffffffffffffffffffffffffffffffffffffffff169060200190929190505050610e30565b604051808215151515815260200191505060405180910390f35b6105b16004803603602081101561058557600080fd5b81019080803573ffffffffffffffffffffffffffffffffffffffff169060200190929190505050610e80565b6040518082815260200191505060405180910390f35b610609600480360360208110156105dd57600080fd5b81019080803573ffffffffffffffffffffffffffffffffffffffff169060200190929190505050610e98565b604051808215151515815260200191505060405180910390f35b61066f6004803603604081101561063957600080fd5b81019080803573ffffffffffffffffffffffffffffffffffffffff16906020019092919080359060200190929190505050610ef1565b604051808273ffffffffffffffffffffffffffffffffffffffff1673ffffffffffffffffffffffffffffffffffffffff16815260200191505060405180910390f35b8060001515600560008373ffffffffffffffffffffffffffffffffffffffff1673ffffffffffffffffffffffffffffffffffffffff16815260200190815260200160002060020160009054906101000a900460ff1615151461071257600080fd5b61071e82600254610f3c565b5050565b60405180606001604052808373ffffffffffffffffffffffffffffffffffffffff1681526020016000815260200160001515815250600560008473ffffffffffffffffffffffffffffffffffffffff1673ffffffffffffffffffffffffffffffffffffffff16815260200190815260200160002060008201518160000160006101000a81548173ffffffffffffffffffffffffffffffffffffffff021916908373ffffffffffffffffffffffffffffffffffffffff1602179055506020820151816001015560408201518160020160006101000a81548160ff0219169083151502179055509050505050565b8060001515600560008373ffffffffffffffffffffffffffffffffffffffff1673ffffffffffffffffffffffffffffffffffffffff16815260200190815260200160002060020160009054906101000a900460ff1615151461086f57600080fd5b6001151561087c84610e98565b15151461088857600080fd5b6001151561089584610c32565b1515146108a157600080fd5b60405180606001604052808373ffffffffffffffffffffffffffffffffffffffff168152602001600354815260200160011515815250600560008473ffffffffffffffffffffffffffffffffffffffff1673ffffffffffffffffffffffffffffffffffffffff16815260200190815260200160002060008201518160000160006101000a81548173ffffffffffffffffffffffffffffffffffffffff021916908373ffffffffffffffffffffffffffffffffffffffff1602179055506020820151816001015560408201518160020160006101000a81548160ff021916908315150217905550905050600660008473ffffffffffffffffffffffffffffffffffffffff1673ffffffffffffffffffffffffffffffffffffffff1681526020019081526020016000208290806001815401808255809150509060018203906000526020600020016000909192909190916101000a81548173ffffffffffffffffffffffffffffffffffffffff021916908373ffffffffffffffffffffffffffffffffffffffff160217905550506001600760008573ffffffffffffffffffffffffffffffffffffffff1673ffffffffffffffffffffffffffffffffffffffff1681526020019081526020016000205401600760008573ffffffffffffffffffffffffffffffffffffffff1673ffffffffffffffffffffffffffffffffffffffff168152602001908152602001600020819055507f6f3bf3fa84e4763a43b3d23f9d79be242d6d5c834941ff4c1111b67469e1150c82600354604051808373ffffffffffffffffffffffffffffffffffffffff1673ffffffffffffffffffffffffffffffffffffffff1681526020018281526020019250505060405180910390a1505050565b6000600560008373ffffffffffffffffffffffffffffffffffffffff1673ffffffffffffffffffffffffffffffffffffffff168152602001908152602001600020600101549050919050565b8060001515600560008373ffffffffffffffffffffffffffffffffffffffff1673ffffffffffffffffffffffffffffffffffffffff16815260200190815260200160002060020160009054906101000a900460ff16151514610bd257600080fd5b610bde82600354610f3c565b5050565b6000600354600560008473ffffffffffffffffffffffffffffffffffffffff1673ffffffffffffffffffffffffffffffffffffffff16815260200190815260200160002060010154149050919050565b60008054600560008473ffffffffffffffffffffffffffffffffffffffff1673ffffffffffffffffffffffffffffffffffffffff16815260200190815260200160002060010154149050919050565b8060001515600560008373ffffffffffffffffffffffffffffffffffffffff1673ffffffffffffffffffffffffffffffffffffffff16815260200190815260200160002060020160009054906101000a900460ff16151514610ce257600080fd5b610cee82600154610f3c565b5050565b600460009054906101000a900473ffffffffffffffffffffffffffffffffffffffff1681565b60056020528060005260406000206000915090508060000160009054906101000a900473ffffffffffffffffffffffffffffffffffffffff16908060010154908060020160009054906101000a900460ff16905083565b8060001515600560008373ffffffffffffffffffffffffffffffffffffffff1673ffffffffffffffffffffffffffffffffffffffff16815260200190815260200160002060020160009054906101000a900460ff16151514610dd057600080fd5b610ddc82600054610f3c565b5050565b6000600254600560008473ffffffffffffffffffffffffffffffffffffffff1673ffffffffffffffffffffffffffffffffffffffff16815260200190815260200160002060010154149050919050565b6000600154600560008473ffffffffffffffffffffffffffffffffffffffff1673ffffffffffffffffffffffffffffffffffffffff16815260200190815260200160002060010154149050919050565b60076020528060005260406000206000915090505481565b6000600560008373ffffffffffffffffffffffffffffffffffffffff1673ffffffffffffffffffffffffffffffffffffffff16815260200190815260200160002060020160009054906101000a900460ff169050919050565b60066020528160005260406000208181548110610f0a57fe5b906000526020600020016000915091509054906101000a900473ffffffffffffffffffffffffffffffffffffffff1681565b60405180606001604052808373ffffffffffffffffffffffffffffffffffffffff16815260200182815260200160011515815250600560008473ffffffffffffffffffffffffffffffffffffffff1673ffffffffffffffffffffffffffffffffffffffff16815260200190815260200160002060008201518160000160006101000a81548173ffffffffffffffffffffffffffffffffffffffff021916908373ffffffffffffffffffffffffffffffffffffffff1602179055506020820151816001015560408201518160020160006101000a81548160ff0219169083151502179055509050507f6f3bf3fa84e4763a43b3d23f9d79be242d6d5c834941ff4c1111b67469e1150c8282604051808373ffffffffffffffffffffffffffffffffffffffff1673ffffffffffffffffffffffffffffffffffffffff1681526020018281526020019250505060405180910390a1505056fea165627a7a723058201890023ca1fbc1aae9c21ab0b02fcd9a093718c504b2ae39546a9d13f85cd4db0029",
  "source": "pragma solidity ^0.5.0;\n\nimport \"./AbstractWallet.sol\";\nimport \"./AbstractAccountManage.sol\";\n\ncontract AccountManage is AbstractAccountManage {\n\tuint private DATA_VALIDATOR = 1;\n\tuint private DATA_MART = 2;\n\tuint private SERVICE_NODE = 3;\n\tuint private DATA_OWNER = 4;\n\n\tAbstractWallet public wallet;\n\n\tstruct Account {\n\t\taddress owner;\n\t\tuint role;\n\t\tbool registered;\n\t}\n\t\n\tmapping(address => Account) public accounts;\n\tmapping(address => address[]) public dataOwners;\n\tmapping(address => uint256) public dataOwnersCount;\n\t\n\n\tmodifier checkRegistered(address _owner) { \n\t\trequire (accounts[_owner].registered == false);\n\t\t_; \n\t}\n\n\tconstructor(address _wallet) public {\n\t\twallet = AbstractWallet(_wallet);\n\t}\n\t\n\tevent Registered(\n\t\taddress owner,\n\t\tuint role\n\t);\n\n\tevent RegisteredSum(\n\t\taddress owner,\n\t\tuint256 sum\n\t);\n\n\tevent ChildChainDeposit(\n\t\taddress owner, \n\t\tuint256 sum\n\t);\n\t\n\n\tfunction initAccount(address _owner, uint256 _sum) public {\n\t\taccounts[_owner] = Account(_owner, 0, false);\n\t}\n\n\tfunction registerDataMart(address _owner) public checkRegistered(_owner) {\n\t\tregister(_owner, DATA_MART);\n\t}\n\n\tfunction registerServiceNode(address _owner) public checkRegistered(_owner) {\n\t\tregister(_owner, SERVICE_NODE);\n\t}\n\n\tfunction registerDataValidator (address _owner) public checkRegistered(_owner) {\n\t\tregister(_owner, DATA_VALIDATOR);\n\t}\n\n\tfunction registerDataOwner (address _owner) public checkRegistered(_owner) {\n\t\tregister(_owner, DATA_OWNER);\n\t}\n\n\tfunction registerOwner(address _dataValidator, address _dataOwner) public checkRegistered(_dataOwner) {\n\t\trequire(isRegistered(_dataValidator) == true);\n\t\trequire(isDataValidator(_dataValidator) == true);\n\t\taccounts[_dataOwner] = Account(_dataOwner, DATA_OWNER, true);\n\t \tdataOwners[_dataValidator].push(_dataOwner);\t\n\t \tdataOwnersCount[_dataValidator] = dataOwnersCount[_dataValidator] + 1;\n\t \temit Registered(_dataOwner, DATA_OWNER);\n\t}\n\n\tfunction register(address _owner, uint _role) private {\n\t\taccounts[_owner] = Account(_owner, _role, true);\t\t\n\t \temit Registered(_owner, _role);\n\t}\n\n\tfunction getRole(address _owner) public view returns(uint) {\n\t\treturn accounts[_owner].role;\n\t}\n\n\tfunction isRegistered (address _owner) public view returns(bool) {\n\t\treturn accounts[_owner].registered;\n\t}\n\t\n\tfunction isDataValidator (address _owner) public view returns(bool) {\n\t\treturn accounts[_owner].role == DATA_VALIDATOR;\n\t}\n\n\tfunction isDataOwner (address _owner) public view returns(bool) {\n\t\treturn accounts[_owner].role == DATA_OWNER;\n\t}\n\n\tfunction isDataMart (address _owner) public view returns(bool) {\n\t\treturn accounts[_owner].role == DATA_MART;\n\t}\n\n\tfunction isServiceNode (address _owner) public view returns(bool) {\n\t\treturn accounts[_owner].role == SERVICE_NODE;\n\t}\n}\n",
  "sourcePath": "/var/www/plasma/contracts/AccountManage.sol",
  "compiler": {
    "name": "solc",
    "version": "0.5.8+commit.23d335f2.Emscripten.clang"
  },
  "schemaVersion": "3.0.13",
  "updatedAt": "2020-08-03T11:17:59.866Z",
  "devdoc": {
    "methods": {}
  },
  "userdoc": {
    "methods": {}
  }
}