{
  "contractName": "DataSell",
  "abi": [
    {
      "constant": true,
      "inputs": [],
      "name": "accountManage",
      "outputs": [
        {
          "name": "",
          "type": "address"
        }
      ],
      "payable": false,
      "stateMutability": "view",
      "type": "function"
    },
    {
      "constant": true,
      "inputs": [],
      "name": "wallet",
      "outputs": [
        {
          "name": "",
          "type": "address"
        }
      ],
      "payable": false,
      "stateMutability": "view",
      "type": "function"
    },
    {
      "constant": true,
      "inputs": [],
      "name": "dataUpload",
      "outputs": [
        {
          "name": "",
          "type": "address"
        }
      ],
      "payable": false,
      "stateMutability": "view",
      "type": "function"
    },
    {
      "constant": true,
      "inputs": [
        {
          "name": "",
          "type": "string"
        }
      ],
      "name": "selledData",
      "outputs": [
        {
          "name": "fileId",
          "type": "string"
        },
        {
          "name": "dataValidator",
          "type": "address"
        },
        {
          "name": "dataMart",
          "type": "address"
        },
        {
          "name": "dataOwner",
          "type": "address"
        },
        {
          "name": "sum",
          "type": "uint256"
        }
      ],
      "payable": false,
      "stateMutability": "view",
      "type": "function"
    },
    {
      "inputs": [
        {
          "name": "_wallet",
          "type": "address"
        },
        {
          "name": "_dataUpload",
          "type": "address"
        },
        {
          "name": "_accountManage",
          "type": "address"
        }
      ],
      "payable": false,
      "stateMutability": "nonpayable",
      "type": "constructor"
    },
    {
      "anonymous": false,
      "inputs": [
        {
          "indexed": false,
          "name": "fileId",
          "type": "string"
        },
        {
          "indexed": false,
          "name": "dataValidator",
          "type": "address"
        },
        {
          "indexed": false,
          "name": "dataMart",
          "type": "address"
        },
        {
          "indexed": false,
          "name": "dataOwner",
          "type": "address"
        },
        {
          "indexed": false,
          "name": "sum",
          "type": "uint256"
        }
      ],
      "name": "SelledDataEvent",
      "type": "event"
    },
    {
      "anonymous": false,
      "inputs": [
        {
          "indexed": false,
          "name": "dataValidator",
          "type": "address"
        }
      ],
      "name": "SelledDataEventPay",
      "type": "event"
    },
    {
      "constant": false,
      "inputs": [
        {
          "name": "_fileId",
          "type": "string"
        },
        {
          "name": "_dataMart",
          "type": "address"
        },
        {
          "name": "_dataValidator",
          "type": "address"
        },
        {
          "name": "_serviceNode",
          "type": "address"
        },
        {
          "name": "_dataOwner",
          "type": "address"
        },
        {
          "name": "_sum",
          "type": "uint256"
        },
        {
          "name": "_sig",
          "type": "bytes"
        },
        {
          "name": "_message",
          "type": "bytes32"
        }
      ],
      "name": "sell",
      "outputs": [],
      "payable": false,
      "stateMutability": "nonpayable",
      "type": "function"
    },
    {
      "constant": true,
      "inputs": [
        {
          "name": "_fileId",
          "type": "string"
        }
      ],
      "name": "getSellData",
      "outputs": [
        {
          "name": "",
          "type": "string"
        },
        {
          "name": "",
          "type": "address"
        },
        {
          "name": "",
          "type": "address"
        },
        {
          "name": "",
          "type": "uint256"
        }
      ],
      "payable": false,
      "stateMutability": "view",
      "type": "function"
    }
  ],
  "bytecode": "0x608060405234801561001057600080fd5b506040516060806118458339810180604052606081101561003057600080fd5b8101908080519060200190929190805190602001909291908051906020019092919050505082600160006101000a81548173ffffffffffffffffffffffffffffffffffffffff021916908373ffffffffffffffffffffffffffffffffffffffff16021790555081600260006101000a81548173ffffffffffffffffffffffffffffffffffffffff021916908373ffffffffffffffffffffffffffffffffffffffff16021790555080600360006101000a81548173ffffffffffffffffffffffffffffffffffffffff021916908373ffffffffffffffffffffffffffffffffffffffff16021790555050505061171b8061012a6000396000f3fe608060405234801561001057600080fd5b50600436106100625760003560e01c8063475a7d941461006757806350eebf731461024e578063521eb27314610298578063b7e7f8c3146102e2578063ea2418d61461032c578063f309ca95146104cd575b600080fd5b61024c600480360361010081101561007e57600080fd5b810190808035906020019064010000000081111561009b57600080fd5b8201836020820111156100ad57600080fd5b803590602001918460018302840111640100000000831117156100cf57600080fd5b91908080601f016020809104026020016040519081016040528093929190818152602001838380828437600081840152601f19601f820116905080830192505050505050509192919290803573ffffffffffffffffffffffffffffffffffffffff169060200190929190803573ffffffffffffffffffffffffffffffffffffffff169060200190929190803573ffffffffffffffffffffffffffffffffffffffff169060200190929190803573ffffffffffffffffffffffffffffffffffffffff16906020019092919080359060200190929190803590602001906401000000008111156101bc57600080fd5b8201836020820111156101ce57600080fd5b803590602001918460018302840111640100000000831117156101f057600080fd5b91908080601f016020809104026020016040519081016040528093929190818152602001838380828437600081840152601f19601f820116905080830192505050505050509192919290803590602001909291905050506106a1565b005b61025661104e565b604051808273ffffffffffffffffffffffffffffffffffffffff1673ffffffffffffffffffffffffffffffffffffffff16815260200191505060405180910390f35b6102a0611074565b604051808273ffffffffffffffffffffffffffffffffffffffff1673ffffffffffffffffffffffffffffffffffffffff16815260200191505060405180910390f35b6102ea61109a565b604051808273ffffffffffffffffffffffffffffffffffffffff1673ffffffffffffffffffffffffffffffffffffffff16815260200191505060405180910390f35b6103e56004803603602081101561034257600080fd5b810190808035906020019064010000000081111561035f57600080fd5b82018360208201111561037157600080fd5b8035906020019184600183028401116401000000008311171561039357600080fd5b91908080601f016020809104026020016040519081016040528093929190818152602001838380828437600081840152601f19601f8201169050808301925050505050505091929192905050506110c0565b60405180806020018573ffffffffffffffffffffffffffffffffffffffff1673ffffffffffffffffffffffffffffffffffffffff1681526020018473ffffffffffffffffffffffffffffffffffffffff1673ffffffffffffffffffffffffffffffffffffffff168152602001838152602001828103825286818151815260200191508051906020019080838360005b8381101561048f578082015181840152602081019050610474565b50505050905090810190601f1680156104bc5780820380516001836020036101000a031916815260200191505b509550505050505060405180910390f35b610586600480360360208110156104e357600080fd5b810190808035906020019064010000000081111561050057600080fd5b82018360208201111561051257600080fd5b8035906020019184600183028401116401000000008311171561053457600080fd5b91908080601f016020809104026020016040519081016040528093929190818152602001838380828437600081840152601f19601f82011690508083019250505050505050919291929050505061131a565b60405180806020018673ffffffffffffffffffffffffffffffffffffffff1673ffffffffffffffffffffffffffffffffffffffff1681526020018573ffffffffffffffffffffffffffffffffffffffff1673ffffffffffffffffffffffffffffffffffffffff1681526020018473ffffffffffffffffffffffffffffffffffffffff1673ffffffffffffffffffffffffffffffffffffffff168152602001838152602001828103825287818151815260200191508051906020019080838360005b83811015610662578082015181840152602081019050610647565b50505050905090810190601f16801561068f5780820380516001836020036101000a031916815260200191505b50965050505050505060405180910390f35b82600081116106af57600080fd5b60006106bb838561145e565b90508873ffffffffffffffffffffffffffffffffffffffff168173ffffffffffffffffffffffffffffffffffffffff161461075e576040517f08c379a000000000000000000000000000000000000000000000000000000000815260040180806020018281038252601b8152602001807f5369676e65722061646472657373206973206e6f742076616c6964000000000081525060200191505060405180910390fd5b600260009054906101000a900473ffffffffffffffffffffffffffffffffffffffff1673ffffffffffffffffffffffffffffffffffffffff1663797034ef898c6040518363ffffffff1660e01b8152600401808373ffffffffffffffffffffffffffffffffffffffff1673ffffffffffffffffffffffffffffffffffffffff16815260200180602001828103825283818151815260200191508051906020019080838360005b8381101561081f578082015181840152602081019050610804565b50505050905090810190601f16801561084c5780820380516001836020036101000a031916815260200191505b50935050505060206040518083038186803b15801561086a57600080fd5b505afa15801561087e573d6000803e3d6000fd5b505050506040513d602081101561089457600080fd5b81019080805190602001909291905050506108ae57600080fd5b600360009054906101000a900473ffffffffffffffffffffffffffffffffffffffff1673ffffffffffffffffffffffffffffffffffffffff1663902bf0518a6040518263ffffffff1660e01b8152600401808273ffffffffffffffffffffffffffffffffffffffff1673ffffffffffffffffffffffffffffffffffffffff16815260200191505060206040518083038186803b15801561094d57600080fd5b505afa158015610961573d6000803e3d6000fd5b505050506040513d602081101561097757600080fd5b810190808051906020019092919050505061099157600080fd5b600360009054906101000a900473ffffffffffffffffffffffffffffffffffffffff1673ffffffffffffffffffffffffffffffffffffffff16634706e841896040518263ffffffff1660e01b8152600401808273ffffffffffffffffffffffffffffffffffffffff1673ffffffffffffffffffffffffffffffffffffffff16815260200191505060206040518083038186803b158015610a3057600080fd5b505afa158015610a44573d6000803e3d6000fd5b505050506040513d6020811015610a5a57600080fd5b8101908080519060200190929190505050610a7457600080fd5b600360009054906101000a900473ffffffffffffffffffffffffffffffffffffffff1673ffffffffffffffffffffffffffffffffffffffff1663898bd171886040518263ffffffff1660e01b8152600401808273ffffffffffffffffffffffffffffffffffffffff1673ffffffffffffffffffffffffffffffffffffffff16815260200191505060206040518083038186803b158015610b1357600080fd5b505afa158015610b27573d6000803e3d6000fd5b505050506040513d6020811015610b3d57600080fd5b8101908080519060200190929190505050610b5757600080fd5b600060028681610b6357fe5b0490506040518060a001604052808c81526020018a73ffffffffffffffffffffffffffffffffffffffff1681526020018b73ffffffffffffffffffffffffffffffffffffffff1681526020018873ffffffffffffffffffffffffffffffffffffffff1681526020018781525060008c6040518082805190602001908083835b60208310610c055780518252602082019150602081019050602083039250610be2565b6001836020036101000a03801982511681845116808217855250505050505090500191505090815260200160405180910390206000820151816000019080519060200190610c549291906115d9565b5060208201518160010160006101000a81548173ffffffffffffffffffffffffffffffffffffffff021916908373ffffffffffffffffffffffffffffffffffffffff16021790555060408201518160020160006101000a81548173ffffffffffffffffffffffffffffffffffffffff021916908373ffffffffffffffffffffffffffffffffffffffff16021790555060608201518160030160006101000a81548173ffffffffffffffffffffffffffffffffffffffff021916908373ffffffffffffffffffffffffffffffffffffffff16021790555060808201518160040155905050600160009054906101000a900473ffffffffffffffffffffffffffffffffffffffff1673ffffffffffffffffffffffffffffffffffffffff16630d75bf1e8a836040518363ffffffff1660e01b8152600401808373ffffffffffffffffffffffffffffffffffffffff1673ffffffffffffffffffffffffffffffffffffffff16815260200182815260200192505050602060405180830381600087803b158015610de057600080fd5b505af1158015610df4573d6000803e3d6000fd5b505050506040513d6020811015610e0a57600080fd5b810190808051906020019092919050505050600160009054906101000a900473ffffffffffffffffffffffffffffffffffffffff1673ffffffffffffffffffffffffffffffffffffffff1663295e9d768b886040518363ffffffff1660e01b8152600401808373ffffffffffffffffffffffffffffffffffffffff1673ffffffffffffffffffffffffffffffffffffffff16815260200182815260200192505050602060405180830381600087803b158015610ec557600080fd5b505af1158015610ed9573d6000803e3d6000fd5b505050506040513d6020811015610eef57600080fd5b8101908080519060200190929190505050507fec6d6d5c98e187794e370f7b775c864a12a7ea719e819df2a14d3df40a174ff18b8a8c8a8a60405180806020018673ffffffffffffffffffffffffffffffffffffffff1673ffffffffffffffffffffffffffffffffffffffff1681526020018573ffffffffffffffffffffffffffffffffffffffff1673ffffffffffffffffffffffffffffffffffffffff1681526020018473ffffffffffffffffffffffffffffffffffffffff1673ffffffffffffffffffffffffffffffffffffffff168152602001838152602001828103825287818151815260200191508051906020019080838360005b83811015611003578082015181840152602081019050610fe8565b50505050905090810190601f1680156110305780820380516001836020036101000a031916815260200191505b50965050505050505060405180910390a15050505050505050505050565b600360009054906101000a900473ffffffffffffffffffffffffffffffffffffffff1681565b600160009054906101000a900473ffffffffffffffffffffffffffffffffffffffff1681565b600260009054906101000a900473ffffffffffffffffffffffffffffffffffffffff1681565b606060008060006110cf611659565b6000866040518082805190602001908083835b6020831061110557805182526020820191506020810190506020830392506110e2565b6001836020036101000a03801982511681845116808217855250505050505090500191505090815260200160405180910390206040518060a0016040529081600082018054600181600116156101000203166002900480601f0160208091040260200160405190810160405280929190818152602001828054600181600116156101000203166002900480156111dc5780601f106111b1576101008083540402835291602001916111dc565b820191906000526020600020905b8154815290600101906020018083116111bf57829003601f168201915b505050505081526020016001820160009054906101000a900473ffffffffffffffffffffffffffffffffffffffff1673ffffffffffffffffffffffffffffffffffffffff1673ffffffffffffffffffffffffffffffffffffffff1681526020016002820160009054906101000a900473ffffffffffffffffffffffffffffffffffffffff1673ffffffffffffffffffffffffffffffffffffffff1673ffffffffffffffffffffffffffffffffffffffff1681526020016003820160009054906101000a900473ffffffffffffffffffffffffffffffffffffffff1673ffffffffffffffffffffffffffffffffffffffff1673ffffffffffffffffffffffffffffffffffffffff168152602001600482015481525050905080600001518160200151826040015183608001518393509450945094509450509193509193565b600081805160208101820180518482526020830160208501208183528095505050505050600091509050806000018054600181600116156101000203166002900480601f0160208091040260200160405190810160405280929190818152602001828054600181600116156101000203166002900480156113dc5780601f106113b1576101008083540402835291602001916113dc565b820191906000526020600020905b8154815290600101906020018083116113bf57829003601f168201915b5050505050908060010160009054906101000a900473ffffffffffffffffffffffffffffffffffffffff16908060020160009054906101000a900473ffffffffffffffffffffffffffffffffffffffff16908060030160009054906101000a900473ffffffffffffffffffffffffffffffffffffffff16908060040154905085565b600060418251146114d7576040517f08c379a000000000000000000000000000000000000000000000000000000000815260040180806020018281038252601b8152602001807f5369676e6174757265206c656e67746820697320696e76616c6964000000000081525060200191505060405180910390fd5b60418251146114e957600090506115d3565b60008060006020850151925060408501519150606085015160001a90507f7fffffffffffffffffffffffffffffff5d576e7357a4501ddfe92f46681b20a08260001c111561153d57600093505050506115d3565b601b8160ff16141580156115555750601c8160ff1614155b1561156657600093505050506115d3565b60018682858560405160008152602001604052604051808581526020018460ff1660ff1681526020018381526020018281526020019450505050506020604051602081039080840390855afa1580156115c3573d6000803e3d6000fd5b5050506020604051035193505050505b92915050565b828054600181600116156101000203166002900490600052602060002090601f016020900481019282601f1061161a57805160ff1916838001178555611648565b82800160010185558215611648579182015b8281111561164757825182559160200191906001019061162c565b5b50905061165591906116ca565b5090565b6040518060a0016040528060608152602001600073ffffffffffffffffffffffffffffffffffffffff168152602001600073ffffffffffffffffffffffffffffffffffffffff168152602001600073ffffffffffffffffffffffffffffffffffffffff168152602001600081525090565b6116ec91905b808211156116e85760008160009055506001016116d0565b5090565b9056fea165627a7a72305820ef7997f4a5775293980be90d302b5476e459651516aeba319b1e021fd6323bef0029",
  "source": "pragma solidity ^0.5.0;\n\nimport \"./AbstractWallet.sol\";\nimport \"./AbstractDataSell.sol\";\nimport \"./AbstractDataUpload.sol\";\nimport \"./AbstractAccountManage.sol\";\nimport \"./lib/signValidator.sol\";\n\n\ncontract DataSell is AbstractDataSell {\n\n\tstruct SelledData {\n\t\tstring fileId;\n\t\taddress dataValidator;\n\t\taddress dataMart;\n\t\taddress dataOwner;\n\t\tuint256 sum;\n\t}\n\n\tmodifier sumMoreZero(uint _sum) { \n\t\trequire (_sum > 0); \n\t\t_; \n\t}\n\n\tmapping (string => SelledData) public selledData;\n\n\tAbstractWallet public wallet;\n\tAbstractDataUpload public dataUpload;\n\tAbstractAccountManage public accountManage;\n\n\tevent SelledDataEvent(\n\t\tstring fileId, \n\t\taddress dataValidator, \n\t\taddress dataMart, \n\t\taddress dataOwner, \n\t\tuint256 sum\n\t);\n\n\tevent SelledDataEventPay(\n\t\taddress dataValidator\n\t);\n\t\n\tconstructor(address _wallet, address _dataUpload, address _accountManage) public {\n\t\twallet = AbstractWallet(_wallet);\n\t\tdataUpload = AbstractDataUpload(_dataUpload);\n\t\taccountManage = AbstractAccountManage(_accountManage);\n\t}\n\n\tfunction sell (\n\t\tstring memory _fileId, \n\t\taddress _dataMart,\n\t\taddress _dataValidator, \n\t\taddress _serviceNode, \n\t\taddress _dataOwner,\n\t\tuint256 _sum,\n\t\tbytes memory _sig,\n\t\tbytes32 _message\n\t) public sumMoreZero(_sum) {\n\t\taddress signer = ECDSA.recover(_message, _sig);\n\t\trequire(signer == _dataMart, 'Signer address is not valid');\n\t\trequire(dataUpload.checkFileExist(_dataValidator, _fileId));\n\t\trequire(accountManage.isDataMart(_dataMart));\n\t\trequire(accountManage.isDataValidator(_dataValidator));\n\t\trequire(accountManage.isServiceNode(_serviceNode));\n\n\t\tuint256 _amount = _sum / 2;\n\n\t\tselledData[_fileId] = SelledData(_fileId, _dataValidator, _dataMart, _dataOwner, _sum);\n\t\twallet.balancePlusByEthereumAddress(_dataValidator, _amount);\n\t\twallet.balanceMinusByEthereumAddress(_dataMart, _sum);\n\t\temit SelledDataEvent(_fileId, _dataValidator, _dataMart, _dataOwner, _sum);\n\t}\n\n\tfunction getSellData(string memory _fileId) view public returns (string memory, address, address, uint256) {\n\t\tSelledData memory _item = selledData[_fileId];\n\t\treturn (_item.fileId, _item.dataValidator, _item.dataMart, _item.sum);\n\t}\n}\n\n",
  "sourcePath": "/var/www/plasma/contracts/DataSell.sol",
  "compiler": {
    "name": "solc",
    "version": "0.5.8+commit.23d335f2.Emscripten.clang"
  },
  "schemaVersion": "3.0.13",
  "updatedAt": "2020-08-03T11:17:59.835Z",
  "devdoc": {
    "methods": {}
  },
  "userdoc": {
    "methods": {}
  }
}