{
  "contractName": "DataUpload",
  "abi": [
    {
      "constant": true,
      "inputs": [
        {
          "name": "",
          "type": "uint256"
        }
      ],
      "name": "fileList",
      "outputs": [
        {
          "name": "id",
          "type": "string"
        },
        {
          "name": "name",
          "type": "string"
        },
        {
          "name": "size",
          "type": "uint256"
        },
        {
          "name": "file_extension",
          "type": "string"
        },
        {
          "name": "mime_type",
          "type": "string"
        },
        {
          "name": "meta_data",
          "type": "string"
        },
        {
          "name": "owner",
          "type": "address"
        },
        {
          "name": "exist",
          "type": "bool"
        }
      ],
      "payable": false,
      "stateMutability": "view",
      "type": "function"
    },
    {
      "constant": true,
      "inputs": [
        {
          "name": "",
          "type": "string"
        }
      ],
      "name": "uploadedData",
      "outputs": [
        {
          "name": "id",
          "type": "string"
        },
        {
          "name": "sum",
          "type": "uint256"
        },
        {
          "name": "serviceNodeAddress",
          "type": "address"
        },
        {
          "name": "dataOwner",
          "type": "address"
        }
      ],
      "payable": false,
      "stateMutability": "view",
      "type": "function"
    },
    {
      "constant": true,
      "inputs": [],
      "name": "fileCount",
      "outputs": [
        {
          "name": "",
          "type": "uint256"
        }
      ],
      "payable": false,
      "stateMutability": "view",
      "type": "function"
    },
    {
      "constant": true,
      "inputs": [],
      "name": "accountManage",
      "outputs": [
        {
          "name": "",
          "type": "address"
        }
      ],
      "payable": false,
      "stateMutability": "view",
      "type": "function"
    },
    {
      "constant": true,
      "inputs": [],
      "name": "wallet",
      "outputs": [
        {
          "name": "",
          "type": "address"
        }
      ],
      "payable": false,
      "stateMutability": "view",
      "type": "function"
    },
    {
      "constant": true,
      "inputs": [
        {
          "name": "",
          "type": "address"
        }
      ],
      "name": "fileUploadedCount",
      "outputs": [
        {
          "name": "",
          "type": "uint256"
        }
      ],
      "payable": false,
      "stateMutability": "view",
      "type": "function"
    },
    {
      "constant": true,
      "inputs": [
        {
          "name": "",
          "type": "address"
        },
        {
          "name": "",
          "type": "string"
        }
      ],
      "name": "files",
      "outputs": [
        {
          "name": "id",
          "type": "string"
        },
        {
          "name": "name",
          "type": "string"
        },
        {
          "name": "size",
          "type": "uint256"
        },
        {
          "name": "file_extension",
          "type": "string"
        },
        {
          "name": "mime_type",
          "type": "string"
        },
        {
          "name": "meta_data",
          "type": "string"
        },
        {
          "name": "owner",
          "type": "address"
        },
        {
          "name": "exist",
          "type": "bool"
        }
      ],
      "payable": false,
      "stateMutability": "view",
      "type": "function"
    },
    {
      "constant": true,
      "inputs": [
        {
          "name": "",
          "type": "address"
        },
        {
          "name": "",
          "type": "uint256"
        }
      ],
      "name": "fileUploaded",
      "outputs": [
        {
          "name": "id",
          "type": "string"
        },
        {
          "name": "name",
          "type": "string"
        },
        {
          "name": "size",
          "type": "uint256"
        },
        {
          "name": "file_extension",
          "type": "string"
        },
        {
          "name": "mime_type",
          "type": "string"
        },
        {
          "name": "meta_data",
          "type": "string"
        },
        {
          "name": "owner",
          "type": "address"
        },
        {
          "name": "exist",
          "type": "bool"
        }
      ],
      "payable": false,
      "stateMutability": "view",
      "type": "function"
    },
    {
      "constant": true,
      "inputs": [],
      "name": "transaction",
      "outputs": [
        {
          "name": "",
          "type": "address"
        }
      ],
      "payable": false,
      "stateMutability": "view",
      "type": "function"
    },
    {
      "inputs": [
        {
          "name": "_transaction",
          "type": "address"
        },
        {
          "name": "_wallet",
          "type": "address"
        },
        {
          "name": "_accountManage",
          "type": "address"
        }
      ],
      "payable": false,
      "stateMutability": "nonpayable",
      "type": "constructor"
    },
    {
      "anonymous": false,
      "inputs": [
        {
          "indexed": false,
          "name": "id",
          "type": "string"
        },
        {
          "indexed": false,
          "name": "serviceNodeAddress",
          "type": "address"
        },
        {
          "indexed": false,
          "name": "dataOwner",
          "type": "address"
        },
        {
          "indexed": false,
          "name": "sum",
          "type": "uint256"
        }
      ],
      "name": "DataUploaded",
      "type": "event"
    },
    {
      "constant": false,
      "inputs": [
        {
          "name": "_id",
          "type": "string"
        },
        {
          "name": "_name",
          "type": "string"
        },
        {
          "name": "_size",
          "type": "uint256"
        },
        {
          "name": "_file_extension",
          "type": "string"
        },
        {
          "name": "_mime_type",
          "type": "string"
        },
        {
          "name": "_meta_data",
          "type": "string"
        },
        {
          "name": "_owner",
          "type": "address"
        },
        {
          "name": "_serviceNodeAddress",
          "type": "address"
        },
        {
          "name": "_dataOwner",
          "type": "address"
        },
        {
          "name": "_amount",
          "type": "uint256"
        },
        {
          "name": "_sig",
          "type": "bytes"
        },
        {
          "name": "_message",
          "type": "bytes32"
        }
      ],
      "name": "upload",
      "outputs": [],
      "payable": false,
      "stateMutability": "nonpayable",
      "type": "function"
    },
    {
      "constant": false,
      "inputs": [
        {
          "name": "_id",
          "type": "string"
        },
        {
          "name": "_name",
          "type": "string"
        },
        {
          "name": "_size",
          "type": "uint256"
        },
        {
          "name": "_file_extension",
          "type": "string"
        },
        {
          "name": "_mime_type",
          "type": "string"
        },
        {
          "name": "_meta_data",
          "type": "string"
        },
        {
          "name": "_owner",
          "type": "address"
        }
      ],
      "name": "uploadFile",
      "outputs": [],
      "payable": false,
      "stateMutability": "nonpayable",
      "type": "function"
    },
    {
      "constant": true,
      "inputs": [
        {
          "name": "_owner",
          "type": "address"
        },
        {
          "name": "_id",
          "type": "string"
        }
      ],
      "name": "checkFileOwner",
      "outputs": [
        {
          "name": "",
          "type": "bool"
        }
      ],
      "payable": false,
      "stateMutability": "view",
      "type": "function"
    },
    {
      "constant": true,
      "inputs": [
        {
          "name": "_owner",
          "type": "address"
        },
        {
          "name": "_fileId",
          "type": "string"
        }
      ],
      "name": "checkFileExist",
      "outputs": [
        {
          "name": "",
          "type": "bool"
        }
      ],
      "payable": false,
      "stateMutability": "view",
      "type": "function"
    },
    {
      "constant": true,
      "inputs": [
        {
          "name": "_owner",
          "type": "address"
        },
        {
          "name": "_id",
          "type": "string"
        }
      ],
      "name": "getOwnerFile",
      "outputs": [
        {
          "name": "",
          "type": "string"
        },
        {
          "name": "",
          "type": "string"
        },
        {
          "name": "",
          "type": "uint256"
        },
        {
          "name": "",
          "type": "string"
        },
        {
          "name": "",
          "type": "string"
        }
      ],
      "payable": false,
      "stateMutability": "view",
      "type": "function"
    }
  ],
  "bytecode": "0x60806040526000805534801561001457600080fd5b506040516060806200466a8339810180604052606081101561003557600080fd5b8101908080519060200190929190805190602001909291908051906020019092919050505081600760006101000a81548173ffffffffffffffffffffffffffffffffffffffff021916908373ffffffffffffffffffffffffffffffffffffffff16021790555082600660006101000a81548173ffffffffffffffffffffffffffffffffffffffff021916908373ffffffffffffffffffffffffffffffffffffffff16021790555080600860006101000a81548173ffffffffffffffffffffffffffffffffffffffff021916908373ffffffffffffffffffffffffffffffffffffffff16021790555050505061453a80620001306000396000f3fe608060405234801561001057600080fd5b50600436106100ea5760003560e01c806353cec2991161008c5780638e1b97dd116100665780638e1b97dd14610ea6578063c99de57e14611162578063d640f6b5146111ac578063dd144e171461144b576100ea565b806353cec29914610a12578063797034ef14610a6a5780638d1402d014610b5d576100ea565b8063370e3909116100c8578063370e39091461061f578063439535191461096057806350eebf731461097e578063521eb273146109c8576100ea565b80630871e6b4146100ef578063273ccaa2146101e257806334b333551461047e575b600080fd5b6101c86004803603604081101561010557600080fd5b81019080803573ffffffffffffffffffffffffffffffffffffffff1690602001909291908035906020019064010000000081111561014257600080fd5b82018360208201111561015457600080fd5b8035906020019184600183028401116401000000008311171561017657600080fd5b91908080601f016020809104026020016040519081016040528093929190818152602001838380828437600081840152601f19601f820116905080830192505050505050509192919290505050611878565b604051808215151515815260200191505060405180910390f35b61020e600480360360208110156101f857600080fd5b8101908080359060200190929190505050611d29565b6040518080602001806020018981526020018060200180602001806020018873ffffffffffffffffffffffffffffffffffffffff1673ffffffffffffffffffffffffffffffffffffffff1681526020018715151515815260200186810386528e818151815260200191508051906020019080838360005b838110156102a0578082015181840152602081019050610285565b50505050905090810190601f1680156102cd5780820380516001836020036101000a031916815260200191505b5086810385528d818151815260200191508051906020019080838360005b838110156103065780820151818401526020810190506102eb565b50505050905090810190601f1680156103335780820380516001836020036101000a031916815260200191505b5086810384528b818151815260200191508051906020019080838360005b8381101561036c578082015181840152602081019050610351565b50505050905090810190601f1680156103995780820380516001836020036101000a031916815260200191505b5086810383528a818151815260200191508051906020019080838360005b838110156103d25780820151818401526020810190506103b7565b50505050905090810190601f1680156103ff5780820380516001836020036101000a031916815260200191505b50868103825289818151815260200191508051906020019080838360005b8381101561043857808201518184015260208101905061041d565b50505050905090810190601f1680156104655780820380516001836020036101000a031916815260200191505b509d505050505050505050505050505060405180910390f35b6105376004803603602081101561049457600080fd5b81019080803590602001906401000000008111156104b157600080fd5b8201836020820111156104c357600080fd5b803590602001918460018302840111640100000000831117156104e557600080fd5b91908080601f016020809104026020016040519081016040528093929190818152602001838380828437600081840152601f19601f820116905080830192505050505050509192919290505050612096565b60405180806020018581526020018473ffffffffffffffffffffffffffffffffffffffff1673ffffffffffffffffffffffffffffffffffffffff1681526020018373ffffffffffffffffffffffffffffffffffffffff1673ffffffffffffffffffffffffffffffffffffffff168152602001828103825286818151815260200191508051906020019080838360005b838110156105e15780820151818401526020810190506105c6565b50505050905090810190601f16801561060e5780820380516001836020036101000a031916815260200191505b509550505050505060405180910390f35b61095e600480360360e081101561063557600080fd5b810190808035906020019064010000000081111561065257600080fd5b82018360208201111561066457600080fd5b8035906020019184600183028401116401000000008311171561068657600080fd5b91908080601f016020809104026020016040519081016040528093929190818152602001838380828437600081840152601f19601f820116905080830192505050505050509192919290803590602001906401000000008111156106e957600080fd5b8201836020820111156106fb57600080fd5b8035906020019184600183028401116401000000008311171561071d57600080fd5b91908080601f016020809104026020016040519081016040528093929190818152602001838380828437600081840152601f19601f820116905080830192505050505050509192919290803590602001909291908035906020019064010000000081111561078a57600080fd5b82018360208201111561079c57600080fd5b803590602001918460018302840111640100000000831117156107be57600080fd5b91908080601f016020809104026020016040519081016040528093929190818152602001838380828437600081840152601f19601f8201169050808301925050505050505091929192908035906020019064010000000081111561082157600080fd5b82018360208201111561083357600080fd5b8035906020019184600183028401116401000000008311171561085557600080fd5b91908080601f016020809104026020016040519081016040528093929190818152602001838380828437600081840152601f19601f820116905080830192505050505050509192919290803590602001906401000000008111156108b857600080fd5b8201836020820111156108ca57600080fd5b803590602001918460018302840111640100000000831117156108ec57600080fd5b91908080601f016020809104026020016040519081016040528093929190818152602001838380828437600081840152601f19601f820116905080830192505050505050509192919290803573ffffffffffffffffffffffffffffffffffffffff1690602001909291905050506121b4565b005b6109686126c4565b6040518082815260200191505060405180910390f35b6109866126ca565b604051808273ffffffffffffffffffffffffffffffffffffffff1673ffffffffffffffffffffffffffffffffffffffff16815260200191505060405180910390f35b6109d06126f0565b604051808273ffffffffffffffffffffffffffffffffffffffff1673ffffffffffffffffffffffffffffffffffffffff16815260200191505060405180910390f35b610a5460048036036020811015610a2857600080fd5b81019080803573ffffffffffffffffffffffffffffffffffffffff169060200190929190505050612716565b6040518082815260200191505060405180910390f35b610b4360048036036040811015610a8057600080fd5b81019080803573ffffffffffffffffffffffffffffffffffffffff16906020019092919080359060200190640100000000811115610abd57600080fd5b820183602082011115610acf57600080fd5b80359060200191846001830284011164010000000083111715610af157600080fd5b91908080601f016020809104026020016040519081016040528093929190818152602001838380828437600081840152601f19601f82011690508083019250505050505050919291929050505061272e565b604051808215151515815260200191505060405180910390f35b610c3660048036036040811015610b7357600080fd5b81019080803573ffffffffffffffffffffffffffffffffffffffff16906020019092919080359060200190640100000000811115610bb057600080fd5b820183602082011115610bc257600080fd5b80359060200191846001830284011164010000000083111715610be457600080fd5b91908080601f016020809104026020016040519081016040528093929190818152602001838380828437600081840152601f19601f8201169050808301925050505050505091929192905050506127ef565b6040518080602001806020018981526020018060200180602001806020018873ffffffffffffffffffffffffffffffffffffffff1673ffffffffffffffffffffffffffffffffffffffff1681526020018715151515815260200186810386528e818151815260200191508051906020019080838360005b83811015610cc8578082015181840152602081019050610cad565b50505050905090810190601f168015610cf55780820380516001836020036101000a031916815260200191505b5086810385528d818151815260200191508051906020019080838360005b83811015610d2e578082015181840152602081019050610d13565b50505050905090810190601f168015610d5b5780820380516001836020036101000a031916815260200191505b5086810384528b818151815260200191508051906020019080838360005b83811015610d94578082015181840152602081019050610d79565b50505050905090810190601f168015610dc15780820380516001836020036101000a031916815260200191505b5086810383528a818151815260200191508051906020019080838360005b83811015610dfa578082015181840152602081019050610ddf565b50505050905090810190601f168015610e275780820380516001836020036101000a031916815260200191505b50868103825289818151815260200191508051906020019080838360005b83811015610e60578082015181840152602081019050610e45565b50505050905090810190601f168015610e8d5780820380516001836020036101000a031916815260200191505b509d505050505050505050505050505060405180910390f35b610ef260048036036040811015610ebc57600080fd5b81019080803573ffffffffffffffffffffffffffffffffffffffff16906020019092919080359060200190929190505050612b7f565b6040518080602001806020018981526020018060200180602001806020018873ffffffffffffffffffffffffffffffffffffffff1673ffffffffffffffffffffffffffffffffffffffff1681526020018715151515815260200186810386528e818151815260200191508051906020019080838360005b83811015610f84578082015181840152602081019050610f69565b50505050905090810190601f168015610fb15780820380516001836020036101000a031916815260200191505b5086810385528d818151815260200191508051906020019080838360005b83811015610fea578082015181840152602081019050610fcf565b50505050905090810190601f1680156110175780820380516001836020036101000a031916815260200191505b5086810384528b818151815260200191508051906020019080838360005b83811015611050578082015181840152602081019050611035565b50505050905090810190601f16801561107d5780820380516001836020036101000a031916815260200191505b5086810383528a818151815260200191508051906020019080838360005b838110156110b657808201518184015260208101905061109b565b50505050905090810190601f1680156110e35780820380516001836020036101000a031916815260200191505b50868103825289818151815260200191508051906020019080838360005b8381101561111c578082015181840152602081019050611101565b50505050905090810190601f1680156111495780820380516001836020036101000a031916815260200191505b509d505050505050505050505050505060405180910390f35b61116a612ef9565b604051808273ffffffffffffffffffffffffffffffffffffffff1673ffffffffffffffffffffffffffffffffffffffff16815260200191505060405180910390f35b611285600480360360408110156111c257600080fd5b81019080803573ffffffffffffffffffffffffffffffffffffffff169060200190929190803590602001906401000000008111156111ff57600080fd5b82018360208201111561121157600080fd5b8035906020019184600183028401116401000000008311171561123357600080fd5b91908080601f016020809104026020016040519081016040528093929190818152602001838380828437600081840152601f19601f820116905080830192505050505050509192919290505050612f1f565b604051808060200180602001868152602001806020018060200185810385528a818151815260200191508051906020019080838360005b838110156112d75780820151818401526020810190506112bc565b50505050905090810190601f1680156113045780820380516001836020036101000a031916815260200191505b50858103845289818151815260200191508051906020019080838360005b8381101561133d578082015181840152602081019050611322565b50505050905090810190601f16801561136a5780820380516001836020036101000a031916815260200191505b50858103835287818151815260200191508051906020019080838360005b838110156113a3578082015181840152602081019050611388565b50505050905090810190601f1680156113d05780820380516001836020036101000a031916815260200191505b50858103825286818151815260200191508051906020019080838360005b838110156114095780820151818401526020810190506113ee565b50505050905090810190601f1680156114365780820380516001836020036101000a031916815260200191505b50995050505050505050505060405180910390f35b611876600480360361018081101561146257600080fd5b810190808035906020019064010000000081111561147f57600080fd5b82018360208201111561149157600080fd5b803590602001918460018302840111640100000000831117156114b357600080fd5b91908080601f016020809104026020016040519081016040528093929190818152602001838380828437600081840152601f19601f8201169050808301925050505050505091929192908035906020019064010000000081111561151657600080fd5b82018360208201111561152857600080fd5b8035906020019184600183028401116401000000008311171561154a57600080fd5b91908080601f016020809104026020016040519081016040528093929190818152602001838380828437600081840152601f19601f82011690508083019250505050505050919291929080359060200190929190803590602001906401000000008111156115b757600080fd5b8201836020820111156115c957600080fd5b803590602001918460018302840111640100000000831117156115eb57600080fd5b91908080601f016020809104026020016040519081016040528093929190818152602001838380828437600081840152601f19601f8201169050808301925050505050505091929192908035906020019064010000000081111561164e57600080fd5b82018360208201111561166057600080fd5b8035906020019184600183028401116401000000008311171561168257600080fd5b91908080601f016020809104026020016040519081016040528093929190818152602001838380828437600081840152601f19601f820116905080830192505050505050509192919290803590602001906401000000008111156116e557600080fd5b8201836020820111156116f757600080fd5b8035906020019184600183028401116401000000008311171561171957600080fd5b91908080601f016020809104026020016040519081016040528093929190818152602001838380828437600081840152601f19601f820116905080830192505050505050509192919290803573ffffffffffffffffffffffffffffffffffffffff169060200190929190803573ffffffffffffffffffffffffffffffffffffffff169060200190929190803573ffffffffffffffffffffffffffffffffffffffff16906020019092919080359060200190929190803590602001906401000000008111156117e657600080fd5b8201836020820111156117f857600080fd5b8035906020019184600183028401116401000000008311171561181a57600080fd5b91908080601f016020809104026020016040519081016040528093929190818152602001838380828437600081840152601f19601f820116905080830192505050505050509192919290803590602001909291905050506133c2565b005b60006118826143a0565b600160008573ffffffffffffffffffffffffffffffffffffffff1673ffffffffffffffffffffffffffffffffffffffff168152602001908152602001600020836040518082805190602001908083835b602083106118f557805182526020820191506020810190506020830392506118d2565b6001836020036101000a038019825116818451168082178552505050505050905001915050908152602001604051809103902060405180610100016040529081600082018054600181600116156101000203166002900480601f0160208091040260200160405190810160405280929190818152602001828054600181600116156101000203166002900480156119cd5780601f106119a2576101008083540402835291602001916119cd565b820191906000526020600020905b8154815290600101906020018083116119b057829003601f168201915b50505050508152602001600182018054600181600116156101000203166002900480601f016020809104026020016040519081016040528092919081815260200182805460018160011615610100020316600290048015611a6f5780601f10611a4457610100808354040283529160200191611a6f565b820191906000526020600020905b815481529060010190602001808311611a5257829003601f168201915b5050505050815260200160028201548152602001600382018054600181600116156101000203166002900480601f016020809104026020016040519081016040528092919081815260200182805460018160011615610100020316600290048015611b1b5780601f10611af057610100808354040283529160200191611b1b565b820191906000526020600020905b815481529060010190602001808311611afe57829003601f168201915b50505050508152602001600482018054600181600116156101000203166002900480601f016020809104026020016040519081016040528092919081815260200182805460018160011615610100020316600290048015611bbd5780601f10611b9257610100808354040283529160200191611bbd565b820191906000526020600020905b815481529060010190602001808311611ba057829003601f168201915b50505050508152602001600582018054600181600116156101000203166002900480601f016020809104026020016040519081016040528092919081815260200182805460018160011615610100020316600290048015611c5f5780601f10611c3457610100808354040283529160200191611c5f565b820191906000526020600020905b815481529060010190602001808311611c4257829003601f168201915b505050505081526020016006820160009054906101000a900473ffffffffffffffffffffffffffffffffffffffff1673ffffffffffffffffffffffffffffffffffffffff1673ffffffffffffffffffffffffffffffffffffffff1681526020016006820160149054906101000a900460ff16151515158152505090508373ffffffffffffffffffffffffffffffffffffffff168160c0015173ffffffffffffffffffffffffffffffffffffffff161415611d1d576001915050611d23565b60009150505b92915050565b6003602052806000526040600020600091509050806000018054600181600116156101000203166002900480601f016020809104026020016040519081016040528092919081815260200182805460018160011615610100020316600290048015611dd55780601f10611daa57610100808354040283529160200191611dd5565b820191906000526020600020905b815481529060010190602001808311611db857829003601f168201915b505050505090806001018054600181600116156101000203166002900480601f016020809104026020016040519081016040528092919081815260200182805460018160011615610100020316600290048015611e735780601f10611e4857610100808354040283529160200191611e73565b820191906000526020600020905b815481529060010190602001808311611e5657829003601f168201915b505050505090806002015490806003018054600181600116156101000203166002900480601f016020809104026020016040519081016040528092919081815260200182805460018160011615610100020316600290048015611f175780601f10611eec57610100808354040283529160200191611f17565b820191906000526020600020905b815481529060010190602001808311611efa57829003601f168201915b505050505090806004018054600181600116156101000203166002900480601f016020809104026020016040519081016040528092919081815260200182805460018160011615610100020316600290048015611fb55780601f10611f8a57610100808354040283529160200191611fb5565b820191906000526020600020905b815481529060010190602001808311611f9857829003601f168201915b505050505090806005018054600181600116156101000203166002900480601f0160208091040260200160405190810160405280929190818152602001828054600181600116156101000203166002900480156120535780601f1061202857610100808354040283529160200191612053565b820191906000526020600020905b81548152906001019060200180831161203657829003601f168201915b5050505050908060060160009054906101000a900473ffffffffffffffffffffffffffffffffffffffff16908060060160149054906101000a900460ff16905088565b600281805160208101820180518482526020830160208501208183528095505050505050600091509050806000018054600181600116156101000203166002900480601f0160208091040260200160405190810160405280929190818152602001828054600181600116156101000203166002900480156121585780601f1061212d57610100808354040283529160200191612158565b820191906000526020600020905b81548152906001019060200180831161213b57829003601f168201915b5050505050908060010154908060020160009054906101000a900473ffffffffffffffffffffffffffffffffffffffff16908060030160009054906101000a900473ffffffffffffffffffffffffffffffffffffffff16905084565b6121bc6143a0565b6040518061010001604052808981526020018881526020018781526020018681526020018581526020018481526020018373ffffffffffffffffffffffffffffffffffffffff16815260200160011515815250905080600360008054815260200190815260200160002060008201518160000190805190602001906122429291906143fd565b50602082015181600101908051906020019061225f9291906143fd565b506040820151816002015560608201518160030190805190602001906122869291906143fd565b5060808201518160040190805190602001906122a39291906143fd565b5060a08201518160050190805190602001906122c09291906143fd565b5060c08201518160060160006101000a81548173ffffffffffffffffffffffffffffffffffffffff021916908373ffffffffffffffffffffffffffffffffffffffff16021790555060e08201518160060160146101000a81548160ff02191690831515021790555090505080600160008473ffffffffffffffffffffffffffffffffffffffff1673ffffffffffffffffffffffffffffffffffffffff168152602001908152602001600020896040518082805190602001908083835b6020831061239f578051825260208201915060208101905060208303925061237c565b6001836020036101000a038019825116818451168082178552505050505050905001915050908152602001604051809103902060008201518160000190805190602001906123ee9291906143fd565b50602082015181600101908051906020019061240b9291906143fd565b506040820151816002015560608201518160030190805190602001906124329291906143fd565b50608082015181600401908051906020019061244f9291906143fd565b5060a082015181600501908051906020019061246c9291906143fd565b5060c08201518160060160006101000a81548173ffffffffffffffffffffffffffffffffffffffff021916908373ffffffffffffffffffffffffffffffffffffffff16021790555060e08201518160060160146101000a81548160ff0219169083151502179055509050506001600460008473ffffffffffffffffffffffffffffffffffffffff1673ffffffffffffffffffffffffffffffffffffffff1681526020019081526020016000206000828254019250508190555080600560008473ffffffffffffffffffffffffffffffffffffffff1673ffffffffffffffffffffffffffffffffffffffff1681526020019081526020016000206000600460008673ffffffffffffffffffffffffffffffffffffffff1673ffffffffffffffffffffffffffffffffffffffff16815260200190815260200160002054815260200190815260200160002060008201518160000190805190602001906125d19291906143fd565b5060208201518160010190805190602001906125ee9291906143fd565b506040820151816002015560608201518160030190805190602001906126159291906143fd565b5060808201518160040190805190602001906126329291906143fd565b5060a082015181600501908051906020019061264f9291906143fd565b5060c08201518160060160006101000a81548173ffffffffffffffffffffffffffffffffffffffff021916908373ffffffffffffffffffffffffffffffffffffffff16021790555060e08201518160060160146101000a81548160ff0219169083151502179055509050505050505050505050565b60005481565b600860009054906101000a900473ffffffffffffffffffffffffffffffffffffffff1681565b600760009054906101000a900473ffffffffffffffffffffffffffffffffffffffff1681565b60046020528060005260406000206000915090505481565b6000600160008473ffffffffffffffffffffffffffffffffffffffff1673ffffffffffffffffffffffffffffffffffffffff168152602001908152602001600020826040518082805190602001908083835b602083106127a35780518252602082019150602081019050602083039250612780565b6001836020036101000a038019825116818451168082178552505050505050905001915050908152602001604051809103902060060160149054906101000a900460ff16905092915050565b60016020528160005260406000208180516020810182018051848252602083016020850120818352809550505050505060009150915050806000018054600181600116156101000203166002900480601f0160208091040260200160405190810160405280929190818152602001828054600181600116156101000203166002900480156128be5780601f10612893576101008083540402835291602001916128be565b820191906000526020600020905b8154815290600101906020018083116128a157829003601f168201915b505050505090806001018054600181600116156101000203166002900480601f01602080910402602001604051908101604052809291908181526020018280546001816001161561010002031660029004801561295c5780601f106129315761010080835404028352916020019161295c565b820191906000526020600020905b81548152906001019060200180831161293f57829003601f168201915b505050505090806002015490806003018054600181600116156101000203166002900480601f016020809104026020016040519081016040528092919081815260200182805460018160011615610100020316600290048015612a005780601f106129d557610100808354040283529160200191612a00565b820191906000526020600020905b8154815290600101906020018083116129e357829003601f168201915b505050505090806004018054600181600116156101000203166002900480601f016020809104026020016040519081016040528092919081815260200182805460018160011615610100020316600290048015612a9e5780601f10612a7357610100808354040283529160200191612a9e565b820191906000526020600020905b815481529060010190602001808311612a8157829003601f168201915b505050505090806005018054600181600116156101000203166002900480601f016020809104026020016040519081016040528092919081815260200182805460018160011615610100020316600290048015612b3c5780601f10612b1157610100808354040283529160200191612b3c565b820191906000526020600020905b815481529060010190602001808311612b1f57829003601f168201915b5050505050908060060160009054906101000a900473ffffffffffffffffffffffffffffffffffffffff16908060060160149054906101000a900460ff16905088565b600560205281600052604060002060205280600052604060002060009150915050806000018054600181600116156101000203166002900480601f016020809104026020016040519081016040528092919081815260200182805460018160011615610100020316600290048015612c385780601f10612c0d57610100808354040283529160200191612c38565b820191906000526020600020905b815481529060010190602001808311612c1b57829003601f168201915b505050505090806001018054600181600116156101000203166002900480601f016020809104026020016040519081016040528092919081815260200182805460018160011615610100020316600290048015612cd65780601f10612cab57610100808354040283529160200191612cd6565b820191906000526020600020905b815481529060010190602001808311612cb957829003601f168201915b505050505090806002015490806003018054600181600116156101000203166002900480601f016020809104026020016040519081016040528092919081815260200182805460018160011615610100020316600290048015612d7a5780601f10612d4f57610100808354040283529160200191612d7a565b820191906000526020600020905b815481529060010190602001808311612d5d57829003601f168201915b505050505090806004018054600181600116156101000203166002900480601f016020809104026020016040519081016040528092919081815260200182805460018160011615610100020316600290048015612e185780601f10612ded57610100808354040283529160200191612e18565b820191906000526020600020905b815481529060010190602001808311612dfb57829003601f168201915b505050505090806005018054600181600116156101000203166002900480601f016020809104026020016040519081016040528092919081815260200182805460018160011615610100020316600290048015612eb65780601f10612e8b57610100808354040283529160200191612eb6565b820191906000526020600020905b815481529060010190602001808311612e9957829003601f168201915b5050505050908060060160009054906101000a900473ffffffffffffffffffffffffffffffffffffffff16908060060160149054906101000a900460ff16905088565b600660009054906101000a900473ffffffffffffffffffffffffffffffffffffffff1681565b6060806000606080612f2f6143a0565b600160008973ffffffffffffffffffffffffffffffffffffffff1673ffffffffffffffffffffffffffffffffffffffff168152602001908152602001600020876040518082805190602001908083835b60208310612fa25780518252602082019150602081019050602083039250612f7f565b6001836020036101000a038019825116818451168082178552505050505050905001915050908152602001604051809103902060405180610100016040529081600082018054600181600116156101000203166002900480601f01602080910402602001604051908101604052809291908181526020018280546001816001161561010002031660029004801561307a5780601f1061304f5761010080835404028352916020019161307a565b820191906000526020600020905b81548152906001019060200180831161305d57829003601f168201915b50505050508152602001600182018054600181600116156101000203166002900480601f01602080910402602001604051908101604052809291908181526020018280546001816001161561010002031660029004801561311c5780601f106130f15761010080835404028352916020019161311c565b820191906000526020600020905b8154815290600101906020018083116130ff57829003601f168201915b5050505050815260200160028201548152602001600382018054600181600116156101000203166002900480601f0160208091040260200160405190810160405280929190818152602001828054600181600116156101000203166002900480156131c85780601f1061319d576101008083540402835291602001916131c8565b820191906000526020600020905b8154815290600101906020018083116131ab57829003601f168201915b50505050508152602001600482018054600181600116156101000203166002900480601f01602080910402602001604051908101604052809291908181526020018280546001816001161561010002031660029004801561326a5780601f1061323f5761010080835404028352916020019161326a565b820191906000526020600020905b81548152906001019060200180831161324d57829003601f168201915b50505050508152602001600582018054600181600116156101000203166002900480601f01602080910402602001604051908101604052809291908181526020018280546001816001161561010002031660029004801561330c5780601f106132e15761010080835404028352916020019161330c565b820191906000526020600020905b8154815290600101906020018083116132ef57829003601f168201915b505050505081526020016006820160009054906101000a900473ffffffffffffffffffffffffffffffffffffffff1673ffffffffffffffffffffffffffffffffffffffff1673ffffffffffffffffffffffffffffffffffffffff1681526020016006820160149054906101000a900460ff16151515158152505090508060000151816020015182604001518360600151846080015184945083935081915080905095509550955095509550509295509295909350565b60006133ce8284614225565b90508673ffffffffffffffffffffffffffffffffffffffff168173ffffffffffffffffffffffffffffffffffffffff1614613471576040517f08c379a000000000000000000000000000000000000000000000000000000000815260040180806020018281038252601b8152602001807f5369676e65722061646472657373206973206e6f742076616c6964000000000081525060200191505060405180910390fd5b60011515600860009054906101000a900473ffffffffffffffffffffffffffffffffffffffff1673ffffffffffffffffffffffffffffffffffffffff166346efdc33876040518263ffffffff1660e01b8152600401808273ffffffffffffffffffffffffffffffffffffffff1673ffffffffffffffffffffffffffffffffffffffff16815260200191505060206040518083038186803b15801561351457600080fd5b505afa158015613528573d6000803e3d6000fd5b505050506040513d602081101561353e57600080fd5b81019080805190602001909291905050501515146135a7576040517f08c379a00000000000000000000000000000000000000000000000000000000081526004018080602001828103825260228152602001806144c76022913960400191505060405180910390fd5b60011515600860009054906101000a900473ffffffffffffffffffffffffffffffffffffffff1673ffffffffffffffffffffffffffffffffffffffff1663898bd171886040518263ffffffff1660e01b8152600401808273ffffffffffffffffffffffffffffffffffffffff1673ffffffffffffffffffffffffffffffffffffffff16815260200191505060206040518083038186803b15801561364a57600080fd5b505afa15801561365e573d6000803e3d6000fd5b505050506040513d602081101561367457600080fd5b81019080805190602001909291905050501515146136dd576040517f08c379a00000000000000000000000000000000000000000000000000000000081526004018080602001828103825260248152602001806144a36024913960400191505060405180910390fd5b60011515600860009054906101000a900473ffffffffffffffffffffffffffffffffffffffff1673ffffffffffffffffffffffffffffffffffffffff16634706e841896040518263ffffffff1660e01b8152600401808273ffffffffffffffffffffffffffffffffffffffff1673ffffffffffffffffffffffffffffffffffffffff16815260200191505060206040518083038186803b15801561378057600080fd5b505afa158015613794573d6000803e3d6000fd5b505050506040513d60208110156137aa57600080fd5b8101908080519060200190929190505050151514613813576040517f08c379a00000000000000000000000000000000000000000000000000000000081526004018080602001828103825260268152602001806144e96026913960400191505060405180910390fd5b6001600080828254019250508190555060006002858161382f57fe5b049050600760009054906101000a900473ffffffffffffffffffffffffffffffffffffffff1673ffffffffffffffffffffffffffffffffffffffff16630d75bf1e88836040518363ffffffff1660e01b8152600401808373ffffffffffffffffffffffffffffffffffffffff1673ffffffffffffffffffffffffffffffffffffffff16815260200182815260200192505050602060405180830381600087803b1580156138db57600080fd5b505af11580156138ef573d6000803e3d6000fd5b505050506040513d602081101561390557600080fd5b810190808051906020019092919050505050600760009054906101000a900473ffffffffffffffffffffffffffffffffffffffff1673ffffffffffffffffffffffffffffffffffffffff1663295e9d7689836040518363ffffffff1660e01b8152600401808373ffffffffffffffffffffffffffffffffffffffff1673ffffffffffffffffffffffffffffffffffffffff16815260200182815260200192505050602060405180830381600087803b1580156139c057600080fd5b505af11580156139d4573d6000803e3d6000fd5b505050506040513d60208110156139ea57600080fd5b8101908080519060200190929190505050506040518061010001604052808f81526020018e81526020018d81526020018c81526020018b81526020018a81526020018973ffffffffffffffffffffffffffffffffffffffff1681526020016001151581525060036000805481526020019081526020016000206000820151816000019080519060200190613a7f9291906143fd565b506020820151816001019080519060200190613a9c9291906143fd565b50604082015181600201556060820151816003019080519060200190613ac39291906143fd565b506080820151816004019080519060200190613ae09291906143fd565b5060a0820151816005019080519060200190613afd9291906143fd565b5060c08201518160060160006101000a81548173ffffffffffffffffffffffffffffffffffffffff021916908373ffffffffffffffffffffffffffffffffffffffff16021790555060e08201518160060160146101000a81548160ff0219169083151502179055509050506040518061010001604052808f81526020018e81526020018d81526020018c81526020018b81526020018a81526020018973ffffffffffffffffffffffffffffffffffffffff16815260200160011515815250600160008a73ffffffffffffffffffffffffffffffffffffffff1673ffffffffffffffffffffffffffffffffffffffff1681526020019081526020016000208f6040518082805190602001908083835b60208310613c2e5780518252602082019150602081019050602083039250613c0b565b6001836020036101000a03801982511681845116808217855250505050505090500191505090815260200160405180910390206000820151816000019080519060200190613c7d9291906143fd565b506020820151816001019080519060200190613c9a9291906143fd565b50604082015181600201556060820151816003019080519060200190613cc19291906143fd565b506080820151816004019080519060200190613cde9291906143fd565b5060a0820151816005019080519060200190613cfb9291906143fd565b5060c08201518160060160006101000a81548173ffffffffffffffffffffffffffffffffffffffff021916908373ffffffffffffffffffffffffffffffffffffffff16021790555060e08201518160060160146101000a81548160ff0219169083151502179055509050506001600460008a73ffffffffffffffffffffffffffffffffffffffff1673ffffffffffffffffffffffffffffffffffffffff168152602001908152602001600020600082825401925050819055506040518061010001604052808f81526020018e81526020018d81526020018c81526020018b81526020018a81526020018973ffffffffffffffffffffffffffffffffffffffff16815260200160011515815250600560008a73ffffffffffffffffffffffffffffffffffffffff1673ffffffffffffffffffffffffffffffffffffffff1681526020019081526020016000206000600460008c73ffffffffffffffffffffffffffffffffffffffff1673ffffffffffffffffffffffffffffffffffffffff1681526020019081526020016000205481526020019081526020016000206000820151816000019080519060200190613eb29291906143fd565b506020820151816001019080519060200190613ecf9291906143fd565b50604082015181600201556060820151816003019080519060200190613ef69291906143fd565b506080820151816004019080519060200190613f139291906143fd565b5060a0820151816005019080519060200190613f309291906143fd565b5060c08201518160060160006101000a81548173ffffffffffffffffffffffffffffffffffffffff021916908373ffffffffffffffffffffffffffffffffffffffff16021790555060e08201518160060160146101000a81548160ff02191690831515021790555090505060405180608001604052808f81526020018281526020018873ffffffffffffffffffffffffffffffffffffffff1681526020018773ffffffffffffffffffffffffffffffffffffffff1681525060028f6040518082805190602001908083835b6020831061401e5780518252602082019150602081019050602083039250613ffb565b6001836020036101000a0380198251168184511680821785525050505050509050019150509081526020016040518091039020600082015181600001908051906020019061406d9291906143fd565b506020820151816001015560408201518160020160006101000a81548173ffffffffffffffffffffffffffffffffffffffff021916908373ffffffffffffffffffffffffffffffffffffffff16021790555060608201518160030160006101000a81548173ffffffffffffffffffffffffffffffffffffffff021916908373ffffffffffffffffffffffffffffffffffffffff1602179055509050507f5b311762f12eaa556951f88e10a7deab236ac66b2ec8fcf8aaf4421a831aec9d8e88888460405180806020018573ffffffffffffffffffffffffffffffffffffffff1673ffffffffffffffffffffffffffffffffffffffff1681526020018473ffffffffffffffffffffffffffffffffffffffff1673ffffffffffffffffffffffffffffffffffffffff168152602001838152602001828103825286818151815260200191508051906020019080838360005b838110156141d85780820151818401526020810190506141bd565b50505050905090810190601f1680156142055780820380516001836020036101000a031916815260200191505b509550505050505060405180910390a15050505050505050505050505050565b6000604182511461429e576040517f08c379a000000000000000000000000000000000000000000000000000000000815260040180806020018281038252601b8152602001807f5369676e6174757265206c656e67746820697320696e76616c6964000000000081525060200191505060405180910390fd5b60418251146142b0576000905061439a565b60008060006020850151925060408501519150606085015160001a90507f7fffffffffffffffffffffffffffffff5d576e7357a4501ddfe92f46681b20a08260001c1115614304576000935050505061439a565b601b8160ff161415801561431c5750601c8160ff1614155b1561432d576000935050505061439a565b60018682858560405160008152602001604052604051808581526020018460ff1660ff1681526020018381526020018281526020019450505050506020604051602081039080840390855afa15801561438a573d6000803e3d6000fd5b5050506020604051035193505050505b92915050565b604051806101000160405280606081526020016060815260200160008152602001606081526020016060815260200160608152602001600073ffffffffffffffffffffffffffffffffffffffff1681526020016000151581525090565b828054600181600116156101000203166002900490600052602060002090601f016020900481019282601f1061443e57805160ff191683800117855561446c565b8280016001018555821561446c579182015b8281111561446b578251825591602001919060010190614450565b5b509050614479919061447d565b5090565b61449f91905b8082111561449b576000816000905550600101614483565b5090565b9056fe496e76616c696420616464726573733a204973206e6f742053657276696365204e6f6465496e76616c696420616464726573733a204973206e6f742044617461204f776e6572496e76616c696420616464726573733a204973206e6f7420446174612056616c696461746f72a165627a7a723058202447f0626322b770176097a0b9c11fa80383692f6ad58e67e5a762953289eb380029",
  "source": "pragma solidity ^0.5.0;\n\nimport \"./AbstractTransaction.sol\";\nimport \"./AbstractWallet.sol\";\nimport \"./AbstractDataUpload.sol\";\nimport \"./AbstractAccountManage.sol\";\nimport \"./lib/signValidator.sol\";\n\n\ncontract DataUpload is AbstractDataUpload {\n\n\tuint256 public fileCount = 0;\n\tmapping (address => mapping(string => File)) public files;\n\tmapping (string => UploadedData) public uploadedData;\n\tmapping (uint256 => File) public fileList;\n\n\tmapping (address => uint256) public fileUploadedCount;\n\tmapping (address => mapping(uint256 => File)) public fileUploaded; \n\t\n\n\tAbstractTransaction public transaction;\n\tAbstractWallet public wallet;\n\tAbstractAccountManage public accountManage;\n\n\tstruct File {\n\t\tstring id;\n\t\tstring name;\n\t\tuint256 size;\n\t\tstring file_extension;\n\t\tstring mime_type;\n\t\tstring meta_data;\n\t\taddress owner;\n\t\tbool exist;\n\t}\n\n\tstruct UploadedData {\n\t\tstring  id;\n\t\tuint256 sum;\n\t\taddress serviceNodeAddress;\n\t\taddress dataOwner;\n\t}\n\n\tevent DataUploaded(\n\t\tstring id,\n\t\taddress serviceNodeAddress,\n\t\taddress dataOwner,\n\t\tuint256 sum\n\t);\n\n\tconstructor(address _transaction, address _wallet, address _accountManage) public {\n\t\twallet = AbstractWallet(_wallet);\n\t\ttransaction = AbstractTransaction(_transaction);\n\t\taccountManage = AbstractAccountManage(_accountManage);\n\t}\n\n\tfunction upload (\n\t\tstring memory _id,\n\t\tstring memory _name,\n\t\tuint256 _size,\n\t\tstring memory _file_extension,\n\t\tstring memory _mime_type,\n\t\tstring memory _meta_data,\n\t\taddress _owner,\n\t\taddress _serviceNodeAddress,\n\t\taddress _dataOwner,\n\t\tuint256 _amount,\n\t\tbytes memory _sig,\n\t\tbytes32 _message\n\t) public {\n\t\taddress signer = ECDSA.recover(_message, _sig);\n\t\trequire(signer == _owner, 'Signer address is not valid');\n\t\trequire (accountManage.isDataOwner(_dataOwner) == true, \"Invalid address: Is not Data Owner\");\n\t\trequire (accountManage.isServiceNode(_serviceNodeAddress) == true, \"Invalid address: Is not Service Node\");\n\t\trequire (accountManage.isDataValidator(_owner) == true, \"Invalid address: Is not Data Validator\");\n\t\t\n\t\tfileCount += 1;\n\t\tuint256 amount = _amount / 2;\n\t\twallet.balancePlusByEthereumAddress(_serviceNodeAddress, amount);\n\t\twallet.balanceMinusByEthereumAddress(_owner, amount);\n\t\tfileList[fileCount] = File(_id, _name, _size, _file_extension, _mime_type, _meta_data, _owner, true);\n\t\tfiles[_owner][_id] = File(_id, _name, _size, _file_extension, _mime_type, _meta_data, _owner, true);\n\t\tfileUploadedCount[_owner] += 1;\n\t\tfileUploaded[_owner][fileUploadedCount[_owner]] = File(_id, _name, _size, _file_extension, _mime_type, _meta_data, _owner, true);\n\t\tuploadedData[_id] = UploadedData(_id, amount, _serviceNodeAddress, _dataOwner);\n\t\temit DataUploaded(_id, _serviceNodeAddress, _dataOwner, amount);\n\t}\n\n\tfunction uploadFile (\n\t\tstring memory _id,\n\t\tstring memory _name,\n\t\tuint256 _size,\n\t\tstring memory _file_extension,\n\t\tstring memory _mime_type,\n\t\tstring memory _meta_data,\n\t\taddress _owner\n\t) public {\n\n\t\tFile memory _file = File(\n\t\t\t_id, \n\t\t\t_name, \n\t\t\t_size, \n\t\t\t_file_extension, \n\t\t\t_mime_type,\n\t\t\t_meta_data,\n\t\t\t_owner,\n\t\t\ttrue\n\t\t);\n\t\tfileList[fileCount] = _file;\n\t\tfiles[_owner][_id] = _file;\n\n\t\tfileUploadedCount[_owner] += 1;\n\t\tfileUploaded[_owner][fileUploadedCount[_owner]] = _file;\n\t}\n\t\n\tfunction checkFileOwner(address _owner, string memory _id) public view returns(bool) {\n\t\tFile memory _file = files[_owner][_id];\n\t\tif(_file.owner == _owner) {\n\t\t\treturn true;\n\t\t}\n\t\treturn false;\n\t}\n\n\tfunction checkFileExist(address _owner, string memory _fileId) public view returns(bool) {\n\t\treturn files[_owner][_fileId].exist;\n\t}\n\n\tfunction getOwnerFile(address _owner, string memory _id) \n\t\tpublic \n\t\tview \n\t\treturns(\n\t\t\tstring memory,\n\t\t\tstring memory,\n\t\t\tuint256,\n\t\t\tstring memory,\n\t\t\tstring memory\n\t\t) {\n\t\tFile memory _file = files[_owner][_id];\n\t\treturn (\n\t\t\t_file.id,\n\t\t\t_file.name,\n\t\t\t_file.size,\n\t\t\t_file.file_extension,\n\t\t\t_file.mime_type\n\t\t);\n\t}\n}\n",
  "sourcePath": "/var/www/plasma/contracts/DataUpload.sol",
  "compiler": {
    "name": "solc",
    "version": "0.5.8+commit.23d335f2.Emscripten.clang"
  },
  "schemaVersion": "3.0.13",
  "updatedAt": "2020-08-03T11:17:59.817Z",
  "devdoc": {
    "methods": {}
  },
  "userdoc": {
    "methods": {}
  }
}