{
  "contractName": "Transaction",
  "abi": [
    {
      "constant": true,
      "inputs": [
        {
          "name": "",
          "type": "string"
        }
      ],
      "name": "transactionPayDataByHash",
      "outputs": [
        {
          "name": "valueInServiceNode",
          "type": "uint256"
        },
        {
          "name": "valueInDataValidator",
          "type": "uint256"
        },
        {
          "name": "valueInDataMart",
          "type": "uint256"
        },
        {
          "name": "valueInDataOwner",
          "type": "uint256"
        },
        {
          "name": "valueOutServiceNode",
          "type": "uint256"
        },
        {
          "name": "valueOutDataValidator",
          "type": "uint256"
        },
        {
          "name": "valueOutDataMart",
          "type": "uint256"
        },
        {
          "name": "valueOutDataOwner",
          "type": "uint256"
        }
      ],
      "payable": false,
      "stateMutability": "view",
      "type": "function"
    },
    {
      "constant": true,
      "inputs": [
        {
          "name": "",
          "type": "address"
        }
      ],
      "name": "addressTxCountUpload",
      "outputs": [
        {
          "name": "",
          "type": "uint256"
        }
      ],
      "payable": false,
      "stateMutability": "view",
      "type": "function"
    },
    {
      "constant": true,
      "inputs": [],
      "name": "dataUploadTxCount",
      "outputs": [
        {
          "name": "",
          "type": "uint256"
        }
      ],
      "payable": false,
      "stateMutability": "view",
      "type": "function"
    },
    {
      "constant": true,
      "inputs": [],
      "name": "dataPurchaseTxCount",
      "outputs": [
        {
          "name": "",
          "type": "uint256"
        }
      ],
      "payable": false,
      "stateMutability": "view",
      "type": "function"
    },
    {
      "constant": true,
      "inputs": [],
      "name": "queueNumber",
      "outputs": [
        {
          "name": "",
          "type": "uint256"
        }
      ],
      "payable": false,
      "stateMutability": "view",
      "type": "function"
    },
    {
      "constant": true,
      "inputs": [],
      "name": "transferTxCount",
      "outputs": [
        {
          "name": "",
          "type": "uint256"
        }
      ],
      "payable": false,
      "stateMutability": "view",
      "type": "function"
    },
    {
      "constant": true,
      "inputs": [
        {
          "name": "",
          "type": "address"
        }
      ],
      "name": "addressTxCountPurchase",
      "outputs": [
        {
          "name": "",
          "type": "uint256"
        }
      ],
      "payable": false,
      "stateMutability": "view",
      "type": "function"
    },
    {
      "constant": true,
      "inputs": [],
      "name": "lastSyncQueue",
      "outputs": [
        {
          "name": "",
          "type": "uint256"
        }
      ],
      "payable": false,
      "stateMutability": "view",
      "type": "function"
    },
    {
      "constant": true,
      "inputs": [
        {
          "name": "",
          "type": "address"
        },
        {
          "name": "",
          "type": "uint256"
        }
      ],
      "name": "addressTxPurchase",
      "outputs": [
        {
          "name": "fileUuid",
          "type": "string"
        },
        {
          "name": "txType",
          "type": "string"
        },
        {
          "name": "hash",
          "type": "string"
        },
        {
          "name": "queueNumber",
          "type": "uint256"
        },
        {
          "name": "serviceNode",
          "type": "address"
        },
        {
          "name": "dataValidator",
          "type": "address"
        },
        {
          "name": "dataMart",
          "type": "address"
        },
        {
          "name": "dataOwner",
          "type": "address"
        },
        {
          "name": "value",
          "type": "uint256"
        },
        {
          "name": "created_at",
          "type": "uint256"
        }
      ],
      "payable": false,
      "stateMutability": "view",
      "type": "function"
    },
    {
      "constant": true,
      "inputs": [
        {
          "name": "",
          "type": "string"
        }
      ],
      "name": "transactionByHash",
      "outputs": [
        {
          "name": "fileUuid",
          "type": "string"
        },
        {
          "name": "txType",
          "type": "string"
        },
        {
          "name": "hash",
          "type": "string"
        },
        {
          "name": "queueNumber",
          "type": "uint256"
        },
        {
          "name": "serviceNode",
          "type": "address"
        },
        {
          "name": "dataValidator",
          "type": "address"
        },
        {
          "name": "dataMart",
          "type": "address"
        },
        {
          "name": "dataOwner",
          "type": "address"
        },
        {
          "name": "value",
          "type": "uint256"
        },
        {
          "name": "created_at",
          "type": "uint256"
        }
      ],
      "payable": false,
      "stateMutability": "view",
      "type": "function"
    },
    {
      "constant": true,
      "inputs": [
        {
          "name": "",
          "type": "uint256"
        }
      ],
      "name": "transactions",
      "outputs": [
        {
          "name": "fileUuid",
          "type": "string"
        },
        {
          "name": "txType",
          "type": "string"
        },
        {
          "name": "hash",
          "type": "string"
        },
        {
          "name": "queueNumber",
          "type": "uint256"
        },
        {
          "name": "serviceNode",
          "type": "address"
        },
        {
          "name": "dataValidator",
          "type": "address"
        },
        {
          "name": "dataMart",
          "type": "address"
        },
        {
          "name": "dataOwner",
          "type": "address"
        },
        {
          "name": "value",
          "type": "uint256"
        },
        {
          "name": "created_at",
          "type": "uint256"
        }
      ],
      "payable": false,
      "stateMutability": "view",
      "type": "function"
    },
    {
      "constant": true,
      "inputs": [
        {
          "name": "",
          "type": "address"
        },
        {
          "name": "",
          "type": "uint256"
        }
      ],
      "name": "addressTxUpload",
      "outputs": [
        {
          "name": "fileUuid",
          "type": "string"
        },
        {
          "name": "txType",
          "type": "string"
        },
        {
          "name": "hash",
          "type": "string"
        },
        {
          "name": "queueNumber",
          "type": "uint256"
        },
        {
          "name": "serviceNode",
          "type": "address"
        },
        {
          "name": "dataValidator",
          "type": "address"
        },
        {
          "name": "dataMart",
          "type": "address"
        },
        {
          "name": "dataOwner",
          "type": "address"
        },
        {
          "name": "value",
          "type": "uint256"
        },
        {
          "name": "created_at",
          "type": "uint256"
        }
      ],
      "payable": false,
      "stateMutability": "view",
      "type": "function"
    },
    {
      "constant": true,
      "inputs": [
        {
          "name": "",
          "type": "address"
        }
      ],
      "name": "addressTxCount",
      "outputs": [
        {
          "name": "",
          "type": "uint256"
        }
      ],
      "payable": false,
      "stateMutability": "view",
      "type": "function"
    },
    {
      "constant": true,
      "inputs": [
        {
          "name": "",
          "type": "address"
        },
        {
          "name": "",
          "type": "uint256"
        }
      ],
      "name": "addressTx",
      "outputs": [
        {
          "name": "fileUuid",
          "type": "string"
        },
        {
          "name": "txType",
          "type": "string"
        },
        {
          "name": "hash",
          "type": "string"
        },
        {
          "name": "queueNumber",
          "type": "uint256"
        },
        {
          "name": "serviceNode",
          "type": "address"
        },
        {
          "name": "dataValidator",
          "type": "address"
        },
        {
          "name": "dataMart",
          "type": "address"
        },
        {
          "name": "dataOwner",
          "type": "address"
        },
        {
          "name": "value",
          "type": "uint256"
        },
        {
          "name": "created_at",
          "type": "uint256"
        }
      ],
      "payable": false,
      "stateMutability": "view",
      "type": "function"
    },
    {
      "constant": true,
      "inputs": [
        {
          "name": "",
          "type": "string"
        },
        {
          "name": "",
          "type": "uint256"
        }
      ],
      "name": "transactionsByType",
      "outputs": [
        {
          "name": "fileUuid",
          "type": "string"
        },
        {
          "name": "txType",
          "type": "string"
        },
        {
          "name": "hash",
          "type": "string"
        },
        {
          "name": "queueNumber",
          "type": "uint256"
        },
        {
          "name": "serviceNode",
          "type": "address"
        },
        {
          "name": "dataValidator",
          "type": "address"
        },
        {
          "name": "dataMart",
          "type": "address"
        },
        {
          "name": "dataOwner",
          "type": "address"
        },
        {
          "name": "value",
          "type": "uint256"
        },
        {
          "name": "created_at",
          "type": "uint256"
        }
      ],
      "payable": false,
      "stateMutability": "view",
      "type": "function"
    },
    {
      "anonymous": false,
      "inputs": [
        {
          "indexed": false,
          "name": "fileUuid",
          "type": "string"
        },
        {
          "indexed": false,
          "name": "hash",
          "type": "string"
        },
        {
          "indexed": false,
          "name": "queueNumber",
          "type": "uint256"
        },
        {
          "indexed": false,
          "name": "serviceNode",
          "type": "address"
        },
        {
          "indexed": false,
          "name": "dataValidator",
          "type": "address"
        },
        {
          "indexed": false,
          "name": "dataOwner",
          "type": "address"
        },
        {
          "indexed": false,
          "name": "value",
          "type": "uint256"
        },
        {
          "indexed": false,
          "name": "created_at",
          "type": "uint256"
        }
      ],
      "name": "TxDataUpload",
      "type": "event"
    },
    {
      "anonymous": false,
      "inputs": [
        {
          "indexed": false,
          "name": "fileUuid",
          "type": "string"
        },
        {
          "indexed": false,
          "name": "hash",
          "type": "string"
        },
        {
          "indexed": false,
          "name": "queueNumber",
          "type": "uint256"
        },
        {
          "indexed": false,
          "name": "serviceNode",
          "type": "address"
        },
        {
          "indexed": false,
          "name": "dataValidator",
          "type": "address"
        },
        {
          "indexed": false,
          "name": "dataMart",
          "type": "address"
        },
        {
          "indexed": false,
          "name": "dataOwner",
          "type": "address"
        },
        {
          "indexed": false,
          "name": "value",
          "type": "uint256"
        },
        {
          "indexed": false,
          "name": "created_at",
          "type": "uint256"
        }
      ],
      "name": "TxDataPurchase",
      "type": "event"
    },
    {
      "anonymous": false,
      "inputs": [
        {
          "indexed": false,
          "name": "hash",
          "type": "string"
        },
        {
          "indexed": false,
          "name": "queueNumber",
          "type": "uint256"
        },
        {
          "indexed": false,
          "name": "serviceNode",
          "type": "address"
        },
        {
          "indexed": false,
          "name": "dataValidator",
          "type": "address"
        },
        {
          "indexed": false,
          "name": "value",
          "type": "uint256"
        },
        {
          "indexed": false,
          "name": "created_at",
          "type": "uint256"
        }
      ],
      "name": "TxTransfer",
      "type": "event"
    },
    {
      "constant": false,
      "inputs": [
        {
          "name": "_uuid",
          "type": "string"
        },
        {
          "name": "_hash",
          "type": "string"
        },
        {
          "name": "_serviceNode",
          "type": "address"
        },
        {
          "name": "_dataValidator",
          "type": "address"
        },
        {
          "name": "_dataOwner",
          "type": "address"
        },
        {
          "name": "_value",
          "type": "uint256"
        }
      ],
      "name": "transactionDataUpload",
      "outputs": [],
      "payable": false,
      "stateMutability": "nonpayable",
      "type": "function"
    },
    {
      "constant": false,
      "inputs": [
        {
          "name": "_uuid",
          "type": "string"
        },
        {
          "name": "_hash",
          "type": "string"
        },
        {
          "name": "_serviceNode",
          "type": "address"
        },
        {
          "name": "_dataValidator",
          "type": "address"
        },
        {
          "name": "_dataMart",
          "type": "address"
        },
        {
          "name": "_dataOwner",
          "type": "address"
        },
        {
          "name": "_value",
          "type": "uint256"
        }
      ],
      "name": "transactionDataPurchase",
      "outputs": [],
      "payable": false,
      "stateMutability": "nonpayable",
      "type": "function"
    },
    {
      "constant": false,
      "inputs": [
        {
          "name": "_hash",
          "type": "string"
        },
        {
          "name": "_serviceNode",
          "type": "address"
        },
        {
          "name": "_dataValidator",
          "type": "address"
        },
        {
          "name": "_value",
          "type": "uint256"
        }
      ],
      "name": "transactionTransfer",
      "outputs": [],
      "payable": false,
      "stateMutability": "nonpayable",
      "type": "function"
    },
    {
      "constant": false,
      "inputs": [
        {
          "name": "lastQueue",
          "type": "uint256"
        }
      ],
      "name": "setLastSyncQueue",
      "outputs": [],
      "payable": false,
      "stateMutability": "nonpayable",
      "type": "function"
    }
  ],
  "bytecode": "0x608060405260008055600060015560006002556000600355600060045534801561002857600080fd5b50616e0980620000396000396000f3fe608060405234801561001057600080fd5b50600436106101215760003560e01c80634c3ac6ee116100ad578063d32fce9611610071578063d32fce9614611151578063d4839c7514611256578063e1250fef146112ae578063eebd2102146112dc578063fe5369221461155c57610121565b80634c3ac6ee146105485780635fd372ed146107c857806397bcf00c146109845780639ace38c214610c71578063b864ef2114610ed157610121565b80632619637b116100f45780632619637b146104785780632fa6779a146104965780632fda9847146104b45780633203ade0146104d25780633c9edf581461052a57610121565b8063083912c3146101265780630c48f4ca146102265780630c491a6c14610402578063182799531461045a575b600080fd5b6101df6004803603602081101561013c57600080fd5b810190808035906020019064010000000081111561015957600080fd5b82018360208201111561016b57600080fd5b8035906020019184600183028401116401000000008311171561018d57600080fd5b91908080601f016020809104026020016040519081016040528093929190818152602001838380828437600081840152601f19601f820116905080830192505050505050509192919290505050611853565b604051808981526020018881526020018781526020018681526020018581526020018481526020018381526020018281526020019850505050505050505060405180910390f35b610400600480360360e081101561023c57600080fd5b810190808035906020019064010000000081111561025957600080fd5b82018360208201111561026b57600080fd5b8035906020019184600183028401116401000000008311171561028d57600080fd5b91908080601f016020809104026020016040519081016040528093929190818152602001838380828437600081840152601f19601f820116905080830192505050505050509192919290803590602001906401000000008111156102f057600080fd5b82018360208201111561030257600080fd5b8035906020019184600183028401116401000000008311171561032457600080fd5b91908080601f016020809104026020016040519081016040528093929190818152602001838380828437600081840152601f19601f820116905080830192505050505050509192919290803573ffffffffffffffffffffffffffffffffffffffff169060200190929190803573ffffffffffffffffffffffffffffffffffffffff169060200190929190803573ffffffffffffffffffffffffffffffffffffffff169060200190929190803573ffffffffffffffffffffffffffffffffffffffff169060200190929190803590602001909291905050506118b1565b005b6104446004803603602081101561041857600080fd5b81019080803573ffffffffffffffffffffffffffffffffffffffff1690602001909291905050506135f9565b6040518082815260200191505060405180910390f35b610462613611565b6040518082815260200191505060405180910390f35b610480613617565b6040518082815260200191505060405180910390f35b61049e61361d565b6040518082815260200191505060405180910390f35b6104bc613623565b6040518082815260200191505060405180910390f35b610514600480360360208110156104e857600080fd5b81019080803573ffffffffffffffffffffffffffffffffffffffff169060200190929190505050613629565b6040518082815260200191505060405180910390f35b610532613641565b6040518082815260200191505060405180910390f35b6105946004803603604081101561055e57600080fd5b81019080803573ffffffffffffffffffffffffffffffffffffffff16906020019092919080359060200190929190505050613647565b604051808060200180602001806020018b81526020018a73ffffffffffffffffffffffffffffffffffffffff1673ffffffffffffffffffffffffffffffffffffffff1681526020018973ffffffffffffffffffffffffffffffffffffffff1673ffffffffffffffffffffffffffffffffffffffff1681526020018873ffffffffffffffffffffffffffffffffffffffff1673ffffffffffffffffffffffffffffffffffffffff1681526020018773ffffffffffffffffffffffffffffffffffffffff1673ffffffffffffffffffffffffffffffffffffffff16815260200186815260200185815260200184810384528e818151815260200191508051906020019080838360005b838110156106b657808201518184015260208101905061069b565b50505050905090810190601f1680156106e35780820380516001836020036101000a031916815260200191505b5084810383528d818151815260200191508051906020019080838360005b8381101561071c578082015181840152602081019050610701565b50505050905090810190601f1680156107495780820380516001836020036101000a031916815260200191505b5084810382528c818151815260200191508051906020019080838360005b83811015610782578082015181840152602081019050610767565b50505050905090810190601f1680156107af5780820380516001836020036101000a031916815260200191505b509d505050505050505050505050505060405180910390f35b610982600480360360c08110156107de57600080fd5b81019080803590602001906401000000008111156107fb57600080fd5b82018360208201111561080d57600080fd5b8035906020019184600183028401116401000000008311171561082f57600080fd5b91908080601f016020809104026020016040519081016040528093929190818152602001838380828437600081840152601f19601f8201169050808301925050505050505091929192908035906020019064010000000081111561089257600080fd5b8201836020820111156108a457600080fd5b803590602001918460018302840111640100000000831117156108c657600080fd5b91908080601f016020809104026020016040519081016040528093929190818152602001838380828437600081840152601f19601f820116905080830192505050505050509192919290803573ffffffffffffffffffffffffffffffffffffffff169060200190929190803573ffffffffffffffffffffffffffffffffffffffff169060200190929190803573ffffffffffffffffffffffffffffffffffffffff169060200190929190803590602001909291905050506138f0565b005b610a3d6004803603602081101561099a57600080fd5b81019080803590602001906401000000008111156109b757600080fd5b8201836020820111156109c957600080fd5b803590602001918460018302840111640100000000831117156109eb57600080fd5b91908080601f016020809104026020016040519081016040528093929190818152602001838380828437600081840152601f19601f82011690508083019250505050505050919291929050505061510d565b604051808060200180602001806020018b81526020018a73ffffffffffffffffffffffffffffffffffffffff1673ffffffffffffffffffffffffffffffffffffffff1681526020018973ffffffffffffffffffffffffffffffffffffffff1673ffffffffffffffffffffffffffffffffffffffff1681526020018873ffffffffffffffffffffffffffffffffffffffff1673ffffffffffffffffffffffffffffffffffffffff1681526020018773ffffffffffffffffffffffffffffffffffffffff1673ffffffffffffffffffffffffffffffffffffffff16815260200186815260200185815260200184810384528e818151815260200191508051906020019080838360005b83811015610b5f578082015181840152602081019050610b44565b50505050905090810190601f168015610b8c5780820380516001836020036101000a031916815260200191505b5084810383528d818151815260200191508051906020019080838360005b83811015610bc5578082015181840152602081019050610baa565b50505050905090810190601f168015610bf25780820380516001836020036101000a031916815260200191505b5084810382528c818151815260200191508051906020019080838360005b83811015610c2b578082015181840152602081019050610c10565b50505050905090810190601f168015610c585780820380516001836020036101000a031916815260200191505b509d505050505050505050505050505060405180910390f35b610c9d60048036036020811015610c8757600080fd5b81019080803590602001909291905050506153bf565b604051808060200180602001806020018b81526020018a73ffffffffffffffffffffffffffffffffffffffff1673ffffffffffffffffffffffffffffffffffffffff1681526020018973ffffffffffffffffffffffffffffffffffffffff1673ffffffffffffffffffffffffffffffffffffffff1681526020018873ffffffffffffffffffffffffffffffffffffffff1673ffffffffffffffffffffffffffffffffffffffff1681526020018773ffffffffffffffffffffffffffffffffffffffff1673ffffffffffffffffffffffffffffffffffffffff16815260200186815260200185815260200184810384528e818151815260200191508051906020019080838360005b83811015610dbf578082015181840152602081019050610da4565b50505050905090810190601f168015610dec5780820380516001836020036101000a031916815260200191505b5084810383528d818151815260200191508051906020019080838360005b83811015610e25578082015181840152602081019050610e0a565b50505050905090810190601f168015610e525780820380516001836020036101000a031916815260200191505b5084810382528c818151815260200191508051906020019080838360005b83811015610e8b578082015181840152602081019050610e70565b50505050905090810190601f168015610eb85780820380516001836020036101000a031916815260200191505b509d505050505050505050505050505060405180910390f35b610f1d60048036036040811015610ee757600080fd5b81019080803573ffffffffffffffffffffffffffffffffffffffff1690602001909291908035906020019092919050505061565b565b604051808060200180602001806020018b81526020018a73ffffffffffffffffffffffffffffffffffffffff1673ffffffffffffffffffffffffffffffffffffffff1681526020018973ffffffffffffffffffffffffffffffffffffffff1673ffffffffffffffffffffffffffffffffffffffff1681526020018873ffffffffffffffffffffffffffffffffffffffff1673ffffffffffffffffffffffffffffffffffffffff1681526020018773ffffffffffffffffffffffffffffffffffffffff1673ffffffffffffffffffffffffffffffffffffffff16815260200186815260200185815260200184810384528e818151815260200191508051906020019080838360005b8381101561103f578082015181840152602081019050611024565b50505050905090810190601f16801561106c5780820380516001836020036101000a031916815260200191505b5084810383528d818151815260200191508051906020019080838360005b838110156110a557808201518184015260208101905061108a565b50505050905090810190601f1680156110d25780820380516001836020036101000a031916815260200191505b5084810382528c818151815260200191508051906020019080838360005b8381101561110b5780820151818401526020810190506110f0565b50505050905090810190601f1680156111385780820380516001836020036101000a031916815260200191505b509d505050505050505050505050505060405180910390f35b6112546004803603608081101561116757600080fd5b810190808035906020019064010000000081111561118457600080fd5b82018360208201111561119657600080fd5b803590602001918460018302840111640100000000831117156111b857600080fd5b91908080601f016020809104026020016040519081016040528093929190818152602001838380828437600081840152601f19601f820116905080830192505050505050509192919290803573ffffffffffffffffffffffffffffffffffffffff169060200190929190803573ffffffffffffffffffffffffffffffffffffffff16906020019092919080359060200190929190505050615904565b005b6112986004803603602081101561126c57600080fd5b81019080803573ffffffffffffffffffffffffffffffffffffffff1690602001909291905050506166be565b6040518082815260200191505060405180910390f35b6112da600480360360208110156112c457600080fd5b81019080803590602001909291905050506166d6565b005b611328600480360360408110156112f257600080fd5b81019080803573ffffffffffffffffffffffffffffffffffffffff169060200190929190803590602001909291905050506166e0565b604051808060200180602001806020018b81526020018a73ffffffffffffffffffffffffffffffffffffffff1673ffffffffffffffffffffffffffffffffffffffff1681526020018973ffffffffffffffffffffffffffffffffffffffff1673ffffffffffffffffffffffffffffffffffffffff1681526020018873ffffffffffffffffffffffffffffffffffffffff1673ffffffffffffffffffffffffffffffffffffffff1681526020018773ffffffffffffffffffffffffffffffffffffffff1673ffffffffffffffffffffffffffffffffffffffff16815260200186815260200185815260200184810384528e818151815260200191508051906020019080838360005b8381101561144a57808201518184015260208101905061142f565b50505050905090810190601f1680156114775780820380516001836020036101000a031916815260200191505b5084810383528d818151815260200191508051906020019080838360005b838110156114b0578082015181840152602081019050611495565b50505050905090810190601f1680156114dd5780820380516001836020036101000a031916815260200191505b5084810382528c818151815260200191508051906020019080838360005b838110156115165780820151818401526020810190506114fb565b50505050905090810190601f1680156115435780820380516001836020036101000a031916815260200191505b509d505050505050505050505050505060405180910390f35b61161f6004803603604081101561157257600080fd5b810190808035906020019064010000000081111561158f57600080fd5b8201836020820111156115a157600080fd5b803590602001918460018302840111640100000000831117156115c357600080fd5b91908080601f016020809104026020016040519081016040528093929190818152602001838380828437600081840152601f19601f82011690508083019250505050505050919291929080359060200190929190505050616989565b604051808060200180602001806020018b81526020018a73ffffffffffffffffffffffffffffffffffffffff1673ffffffffffffffffffffffffffffffffffffffff1681526020018973ffffffffffffffffffffffffffffffffffffffff1673ffffffffffffffffffffffffffffffffffffffff1681526020018873ffffffffffffffffffffffffffffffffffffffff1673ffffffffffffffffffffffffffffffffffffffff1681526020018773ffffffffffffffffffffffffffffffffffffffff1673ffffffffffffffffffffffffffffffffffffffff16815260200186815260200185815260200184810384528e818151815260200191508051906020019080838360005b83811015611741578082015181840152602081019050611726565b50505050905090810190601f16801561176e5780820380516001836020036101000a031916815260200191505b5084810383528d818151815260200191508051906020019080838360005b838110156117a757808201518184015260208101905061178c565b50505050905090810190601f1680156117d45780820380516001836020036101000a031916815260200191505b5084810382528c818151815260200191508051906020019080838360005b8381101561180d5780820151818401526020810190506117f2565b50505050905090810190601f16801561183a5780820380516001836020036101000a031916815260200191505b509d505050505050505050505050505060405180910390f35b6009818051602081018201805184825260208301602085012081835280955050505050506000915090508060000154908060010154908060020154908060030154908060040154908060050154908060060154908060070154905088565b6001806000828254019250508190555060016003600082825401925050819055506000600282816118de57fe5b0490506118e9616c48565b6040518061010001604052806000815260200183815260200160008152602001838152602001600081526020016000815260200184815260200160008152509050611932616c8d565b6040518061014001604052808b81526020016040518060400160405280600c81526020017f646174615075726368617365000000000000000000000000000000000000000081525081526020018a815260200160015481526020018973ffffffffffffffffffffffffffffffffffffffff1681526020018873ffffffffffffffffffffffffffffffffffffffff1681526020018773ffffffffffffffffffffffffffffffffffffffff1681526020018673ffffffffffffffffffffffffffffffffffffffff168152602001858152602001428152509050806007600060015481526020019081526020016000206000820151816000019080519060200190611a3b929190616d38565b506020820151816001019080519060200190611a58929190616d38565b506040820151816002019080519060200190611a75929190616d38565b506060820151816003015560808201518160040160006101000a81548173ffffffffffffffffffffffffffffffffffffffff021916908373ffffffffffffffffffffffffffffffffffffffff16021790555060a08201518160050160006101000a81548173ffffffffffffffffffffffffffffffffffffffff021916908373ffffffffffffffffffffffffffffffffffffffff16021790555060c08201518160060160006101000a81548173ffffffffffffffffffffffffffffffffffffffff021916908373ffffffffffffffffffffffffffffffffffffffff16021790555060e08201518160070160006101000a81548173ffffffffffffffffffffffffffffffffffffffff021916908373ffffffffffffffffffffffffffffffffffffffff160217905550610100820151816008015561012082015181600901559050508060088a6040518082805190602001908083835b60208310611bec5780518252602082019150602081019050602083039250611bc9565b6001836020036101000a03801982511681845116808217855250505050505090500191505090815260200160405180910390206000820151816000019080519060200190611c3b929190616d38565b506020820151816001019080519060200190611c58929190616d38565b506040820151816002019080519060200190611c75929190616d38565b506060820151816003015560808201518160040160006101000a81548173ffffffffffffffffffffffffffffffffffffffff021916908373ffffffffffffffffffffffffffffffffffffffff16021790555060a08201518160050160006101000a81548173ffffffffffffffffffffffffffffffffffffffff021916908373ffffffffffffffffffffffffffffffffffffffff16021790555060c08201518160060160006101000a81548173ffffffffffffffffffffffffffffffffffffffff021916908373ffffffffffffffffffffffffffffffffffffffff16021790555060e08201518160070160006101000a81548173ffffffffffffffffffffffffffffffffffffffff021916908373ffffffffffffffffffffffffffffffffffffffff160217905550610100820151816008015561012082015181600901559050508160098a6040518082805190602001908083835b60208310611dec5780518252602082019150602081019050602083039250611dc9565b6001836020036101000a0380198251168184511680821785525050505050509050019150509081526020016040518091039020600082015181600001556020820151816001015560408201518160020155606082015181600301556080820151816004015560a0820151816005015560c0820151816006015560e0820151816007015590505080600a60405180807f6461746150757263686173650000000000000000000000000000000000000000815250600c0190509081526020016040518091039020600060035481526020019081526020016000206000820151816000019080519060200190611ee0929190616d38565b506020820151816001019080519060200190611efd929190616d38565b506040820151816002019080519060200190611f1a929190616d38565b506060820151816003015560808201518160040160006101000a81548173ffffffffffffffffffffffffffffffffffffffff021916908373ffffffffffffffffffffffffffffffffffffffff16021790555060a08201518160050160006101000a81548173ffffffffffffffffffffffffffffffffffffffff021916908373ffffffffffffffffffffffffffffffffffffffff16021790555060c08201518160060160006101000a81548173ffffffffffffffffffffffffffffffffffffffff021916908373ffffffffffffffffffffffffffffffffffffffff16021790555060e08201518160070160006101000a81548173ffffffffffffffffffffffffffffffffffffffff021916908373ffffffffffffffffffffffffffffffffffffffff160217905550610100820151816008015561012082015181600901559050506001600660008a73ffffffffffffffffffffffffffffffffffffffff1673ffffffffffffffffffffffffffffffffffffffff168152602001908152602001600020600082825401925050819055506001600660008973ffffffffffffffffffffffffffffffffffffffff1673ffffffffffffffffffffffffffffffffffffffff168152602001908152602001600020600082825401925050819055506001600660008873ffffffffffffffffffffffffffffffffffffffff1673ffffffffffffffffffffffffffffffffffffffff168152602001908152602001600020600082825401925050819055506001600660008773ffffffffffffffffffffffffffffffffffffffff1673ffffffffffffffffffffffffffffffffffffffff1681526020019081526020016000206000828254019250508190555080600560008a73ffffffffffffffffffffffffffffffffffffffff1673ffffffffffffffffffffffffffffffffffffffff1681526020019081526020016000206000600660008c73ffffffffffffffffffffffffffffffffffffffff1673ffffffffffffffffffffffffffffffffffffffff168152602001908152602001600020548152602001908152602001600020600082015181600001908051906020019061223e929190616d38565b50602082015181600101908051906020019061225b929190616d38565b506040820151816002019080519060200190612278929190616d38565b506060820151816003015560808201518160040160006101000a81548173ffffffffffffffffffffffffffffffffffffffff021916908373ffffffffffffffffffffffffffffffffffffffff16021790555060a08201518160050160006101000a81548173ffffffffffffffffffffffffffffffffffffffff021916908373ffffffffffffffffffffffffffffffffffffffff16021790555060c08201518160060160006101000a81548173ffffffffffffffffffffffffffffffffffffffff021916908373ffffffffffffffffffffffffffffffffffffffff16021790555060e08201518160070160006101000a81548173ffffffffffffffffffffffffffffffffffffffff021916908373ffffffffffffffffffffffffffffffffffffffff1602179055506101008201518160080155610120820151816009015590505080600560008973ffffffffffffffffffffffffffffffffffffffff1673ffffffffffffffffffffffffffffffffffffffff1681526020019081526020016000206000600660008b73ffffffffffffffffffffffffffffffffffffffff1673ffffffffffffffffffffffffffffffffffffffff1681526020019081526020016000205481526020019081526020016000206000820151816000019080519060200190612464929190616d38565b506020820151816001019080519060200190612481929190616d38565b50604082015181600201908051906020019061249e929190616d38565b506060820151816003015560808201518160040160006101000a81548173ffffffffffffffffffffffffffffffffffffffff021916908373ffffffffffffffffffffffffffffffffffffffff16021790555060a08201518160050160006101000a81548173ffffffffffffffffffffffffffffffffffffffff021916908373ffffffffffffffffffffffffffffffffffffffff16021790555060c08201518160060160006101000a81548173ffffffffffffffffffffffffffffffffffffffff021916908373ffffffffffffffffffffffffffffffffffffffff16021790555060e08201518160070160006101000a81548173ffffffffffffffffffffffffffffffffffffffff021916908373ffffffffffffffffffffffffffffffffffffffff1602179055506101008201518160080155610120820151816009015590505080600560008873ffffffffffffffffffffffffffffffffffffffff1673ffffffffffffffffffffffffffffffffffffffff1681526020019081526020016000206000600660008a73ffffffffffffffffffffffffffffffffffffffff1673ffffffffffffffffffffffffffffffffffffffff168152602001908152602001600020548152602001908152602001600020600082015181600001908051906020019061268a929190616d38565b5060208201518160010190805190602001906126a7929190616d38565b5060408201518160020190805190602001906126c4929190616d38565b506060820151816003015560808201518160040160006101000a81548173ffffffffffffffffffffffffffffffffffffffff021916908373ffffffffffffffffffffffffffffffffffffffff16021790555060a08201518160050160006101000a81548173ffffffffffffffffffffffffffffffffffffffff021916908373ffffffffffffffffffffffffffffffffffffffff16021790555060c08201518160060160006101000a81548173ffffffffffffffffffffffffffffffffffffffff021916908373ffffffffffffffffffffffffffffffffffffffff16021790555060e08201518160070160006101000a81548173ffffffffffffffffffffffffffffffffffffffff021916908373ffffffffffffffffffffffffffffffffffffffff1602179055506101008201518160080155610120820151816009015590505080600560008773ffffffffffffffffffffffffffffffffffffffff1673ffffffffffffffffffffffffffffffffffffffff1681526020019081526020016000206000600660008973ffffffffffffffffffffffffffffffffffffffff1673ffffffffffffffffffffffffffffffffffffffff16815260200190815260200160002054815260200190815260200160002060008201518160000190805190602001906128b0929190616d38565b5060208201518160010190805190602001906128cd929190616d38565b5060408201518160020190805190602001906128ea929190616d38565b506060820151816003015560808201518160040160006101000a81548173ffffffffffffffffffffffffffffffffffffffff021916908373ffffffffffffffffffffffffffffffffffffffff16021790555060a08201518160050160006101000a81548173ffffffffffffffffffffffffffffffffffffffff021916908373ffffffffffffffffffffffffffffffffffffffff16021790555060c08201518160060160006101000a81548173ffffffffffffffffffffffffffffffffffffffff021916908373ffffffffffffffffffffffffffffffffffffffff16021790555060e08201518160070160006101000a81548173ffffffffffffffffffffffffffffffffffffffff021916908373ffffffffffffffffffffffffffffffffffffffff160217905550610100820151816008015561012082015181600901559050506001600b60008a73ffffffffffffffffffffffffffffffffffffffff1673ffffffffffffffffffffffffffffffffffffffff168152602001908152602001600020600082825401925050819055506001600b60008973ffffffffffffffffffffffffffffffffffffffff1673ffffffffffffffffffffffffffffffffffffffff168152602001908152602001600020600082825401925050819055506001600b60008873ffffffffffffffffffffffffffffffffffffffff1673ffffffffffffffffffffffffffffffffffffffff168152602001908152602001600020600082825401925050819055506001600b60008773ffffffffffffffffffffffffffffffffffffffff1673ffffffffffffffffffffffffffffffffffffffff1681526020019081526020016000206000828254019250508190555080600d60008773ffffffffffffffffffffffffffffffffffffffff1673ffffffffffffffffffffffffffffffffffffffff1681526020019081526020016000206000600b60008973ffffffffffffffffffffffffffffffffffffffff1673ffffffffffffffffffffffffffffffffffffffff1681526020019081526020016000205481526020019081526020016000206000820151816000019080519060200190612c0e929190616d38565b506020820151816001019080519060200190612c2b929190616d38565b506040820151816002019080519060200190612c48929190616d38565b506060820151816003015560808201518160040160006101000a81548173ffffffffffffffffffffffffffffffffffffffff021916908373ffffffffffffffffffffffffffffffffffffffff16021790555060a08201518160050160006101000a81548173ffffffffffffffffffffffffffffffffffffffff021916908373ffffffffffffffffffffffffffffffffffffffff16021790555060c08201518160060160006101000a81548173ffffffffffffffffffffffffffffffffffffffff021916908373ffffffffffffffffffffffffffffffffffffffff16021790555060e08201518160070160006101000a81548173ffffffffffffffffffffffffffffffffffffffff021916908373ffffffffffffffffffffffffffffffffffffffff1602179055506101008201518160080155610120820151816009015590505080600d60008a73ffffffffffffffffffffffffffffffffffffffff1673ffffffffffffffffffffffffffffffffffffffff1681526020019081526020016000206000600b60008c73ffffffffffffffffffffffffffffffffffffffff1673ffffffffffffffffffffffffffffffffffffffff1681526020019081526020016000205481526020019081526020016000206000820151816000019080519060200190612e34929190616d38565b506020820151816001019080519060200190612e51929190616d38565b506040820151816002019080519060200190612e6e929190616d38565b506060820151816003015560808201518160040160006101000a81548173ffffffffffffffffffffffffffffffffffffffff021916908373ffffffffffffffffffffffffffffffffffffffff16021790555060a08201518160050160006101000a81548173ffffffffffffffffffffffffffffffffffffffff021916908373ffffffffffffffffffffffffffffffffffffffff16021790555060c08201518160060160006101000a81548173ffffffffffffffffffffffffffffffffffffffff021916908373ffffffffffffffffffffffffffffffffffffffff16021790555060e08201518160070160006101000a81548173ffffffffffffffffffffffffffffffffffffffff021916908373ffffffffffffffffffffffffffffffffffffffff1602179055506101008201518160080155610120820151816009015590505080600d60008973ffffffffffffffffffffffffffffffffffffffff1673ffffffffffffffffffffffffffffffffffffffff1681526020019081526020016000206000600b60008b73ffffffffffffffffffffffffffffffffffffffff1673ffffffffffffffffffffffffffffffffffffffff168152602001908152602001600020548152602001908152602001600020600082015181600001908051906020019061305a929190616d38565b506020820151816001019080519060200190613077929190616d38565b506040820151816002019080519060200190613094929190616d38565b506060820151816003015560808201518160040160006101000a81548173ffffffffffffffffffffffffffffffffffffffff021916908373ffffffffffffffffffffffffffffffffffffffff16021790555060a08201518160050160006101000a81548173ffffffffffffffffffffffffffffffffffffffff021916908373ffffffffffffffffffffffffffffffffffffffff16021790555060c08201518160060160006101000a81548173ffffffffffffffffffffffffffffffffffffffff021916908373ffffffffffffffffffffffffffffffffffffffff16021790555060e08201518160070160006101000a81548173ffffffffffffffffffffffffffffffffffffffff021916908373ffffffffffffffffffffffffffffffffffffffff1602179055506101008201518160080155610120820151816009015590505080600d60008873ffffffffffffffffffffffffffffffffffffffff1673ffffffffffffffffffffffffffffffffffffffff1681526020019081526020016000206000600b60008a73ffffffffffffffffffffffffffffffffffffffff1673ffffffffffffffffffffffffffffffffffffffff1681526020019081526020016000205481526020019081526020016000206000820151816000019080519060200190613280929190616d38565b50602082015181600101908051906020019061329d929190616d38565b5060408201518160020190805190602001906132ba929190616d38565b506060820151816003015560808201518160040160006101000a81548173ffffffffffffffffffffffffffffffffffffffff021916908373ffffffffffffffffffffffffffffffffffffffff16021790555060a08201518160050160006101000a81548173ffffffffffffffffffffffffffffffffffffffff021916908373ffffffffffffffffffffffffffffffffffffffff16021790555060c08201518160060160006101000a81548173ffffffffffffffffffffffffffffffffffffffff021916908373ffffffffffffffffffffffffffffffffffffffff16021790555060e08201518160070160006101000a81548173ffffffffffffffffffffffffffffffffffffffff021916908373ffffffffffffffffffffffffffffffffffffffff160217905550610100820151816008015561012082015181600901559050507f8ea671b8e0ed63ea4405824ea8351cf107b32818b43f0510df06152c182bea8c8a8a6001548b8b8b8b8b426040518080602001806020018a81526020018973ffffffffffffffffffffffffffffffffffffffff1673ffffffffffffffffffffffffffffffffffffffff1681526020018873ffffffffffffffffffffffffffffffffffffffff1673ffffffffffffffffffffffffffffffffffffffff1681526020018773ffffffffffffffffffffffffffffffffffffffff1673ffffffffffffffffffffffffffffffffffffffff1681526020018673ffffffffffffffffffffffffffffffffffffffff1673ffffffffffffffffffffffffffffffffffffffff16815260200185815260200184815260200183810383528c818151815260200191508051906020019080838360005b83811015613544578082015181840152602081019050613529565b50505050905090810190601f1680156135715780820380516001836020036101000a031916815260200191505b5083810382528b818151815260200191508051906020019080838360005b838110156135aa57808201518184015260208101905061358f565b50505050905090810190601f1680156135d75780820380516001836020036101000a031916815260200191505b509b50505050505050505050505060405180910390a150505050505050505050565b600c6020528060005260406000206000915090505481565b60025481565b60035481565b60015481565b60045481565b600b6020528060005260406000206000915090505481565b60005481565b600d60205281600052604060002060205280600052604060002060009150915050806000018054600181600116156101000203166002900480601f0160208091040260200160405190810160405280929190818152602001828054600181600116156101000203166002900480156137005780601f106136d557610100808354040283529160200191613700565b820191906000526020600020905b8154815290600101906020018083116136e357829003601f168201915b505050505090806001018054600181600116156101000203166002900480601f01602080910402602001604051908101604052809291908181526020018280546001816001161561010002031660029004801561379e5780601f106137735761010080835404028352916020019161379e565b820191906000526020600020905b81548152906001019060200180831161378157829003601f168201915b505050505090806002018054600181600116156101000203166002900480601f01602080910402602001604051908101604052809291908181526020018280546001816001161561010002031660029004801561383c5780601f106138115761010080835404028352916020019161383c565b820191906000526020600020905b81548152906001019060200180831161381f57829003601f168201915b5050505050908060030154908060040160009054906101000a900473ffffffffffffffffffffffffffffffffffffffff16908060050160009054906101000a900473ffffffffffffffffffffffffffffffffffffffff16908060060160009054906101000a900473ffffffffffffffffffffffffffffffffffffffff16908060070160009054906101000a900473ffffffffffffffffffffffffffffffffffffffff1690806008015490806009015490508a565b600180600082825401925050819055506001600260008282540192505081905550613919616c48565b604051806101000160405280838152602001600081526020016000815260200160008152602001600081526020018381526020016000815260200160008152509050613963616c8d565b6040518061014001604052808981526020016040518060400160405280600a81526020017f6461746155706c6f616400000000000000000000000000000000000000000000815250815260200188815260200160015481526020018773ffffffffffffffffffffffffffffffffffffffff1681526020018673ffffffffffffffffffffffffffffffffffffffff168152602001600073ffffffffffffffffffffffffffffffffffffffff1681526020018573ffffffffffffffffffffffffffffffffffffffff168152602001848152602001428152509050806007600060015481526020019081526020016000206000820151816000019080519060200190613a6d929190616d38565b506020820151816001019080519060200190613a8a929190616d38565b506040820151816002019080519060200190613aa7929190616d38565b506060820151816003015560808201518160040160006101000a81548173ffffffffffffffffffffffffffffffffffffffff021916908373ffffffffffffffffffffffffffffffffffffffff16021790555060a08201518160050160006101000a81548173ffffffffffffffffffffffffffffffffffffffff021916908373ffffffffffffffffffffffffffffffffffffffff16021790555060c08201518160060160006101000a81548173ffffffffffffffffffffffffffffffffffffffff021916908373ffffffffffffffffffffffffffffffffffffffff16021790555060e08201518160070160006101000a81548173ffffffffffffffffffffffffffffffffffffffff021916908373ffffffffffffffffffffffffffffffffffffffff16021790555061010082015181600801556101208201518160090155905050806008886040518082805190602001908083835b60208310613c1e5780518252602082019150602081019050602083039250613bfb565b6001836020036101000a03801982511681845116808217855250505050505090500191505090815260200160405180910390206000820151816000019080519060200190613c6d929190616d38565b506020820151816001019080519060200190613c8a929190616d38565b506040820151816002019080519060200190613ca7929190616d38565b506060820151816003015560808201518160040160006101000a81548173ffffffffffffffffffffffffffffffffffffffff021916908373ffffffffffffffffffffffffffffffffffffffff16021790555060a08201518160050160006101000a81548173ffffffffffffffffffffffffffffffffffffffff021916908373ffffffffffffffffffffffffffffffffffffffff16021790555060c08201518160060160006101000a81548173ffffffffffffffffffffffffffffffffffffffff021916908373ffffffffffffffffffffffffffffffffffffffff16021790555060e08201518160070160006101000a81548173ffffffffffffffffffffffffffffffffffffffff021916908373ffffffffffffffffffffffffffffffffffffffff16021790555061010082015181600801556101208201518160090155905050816009886040518082805190602001908083835b60208310613e1e5780518252602082019150602081019050602083039250613dfb565b6001836020036101000a0380198251168184511680821785525050505050509050019150509081526020016040518091039020600082015181600001556020820151816001015560408201518160020155606082015181600301556080820151816004015560a0820151816005015560c0820151816006015560e0820151816007015590505080600a60405180807f6461746155706c6f616400000000000000000000000000000000000000000000815250600a0190509081526020016040518091039020600060025481526020019081526020016000206000820151816000019080519060200190613f12929190616d38565b506020820151816001019080519060200190613f2f929190616d38565b506040820151816002019080519060200190613f4c929190616d38565b506060820151816003015560808201518160040160006101000a81548173ffffffffffffffffffffffffffffffffffffffff021916908373ffffffffffffffffffffffffffffffffffffffff16021790555060a08201518160050160006101000a81548173ffffffffffffffffffffffffffffffffffffffff021916908373ffffffffffffffffffffffffffffffffffffffff16021790555060c08201518160060160006101000a81548173ffffffffffffffffffffffffffffffffffffffff021916908373ffffffffffffffffffffffffffffffffffffffff16021790555060e08201518160070160006101000a81548173ffffffffffffffffffffffffffffffffffffffff021916908373ffffffffffffffffffffffffffffffffffffffff160217905550610100820151816008015561012082015181600901559050506001600c60008873ffffffffffffffffffffffffffffffffffffffff1673ffffffffffffffffffffffffffffffffffffffff168152602001908152602001600020600082825401925050819055506001600c60008773ffffffffffffffffffffffffffffffffffffffff1673ffffffffffffffffffffffffffffffffffffffff168152602001908152602001600020600082825401925050819055506001600c60008673ffffffffffffffffffffffffffffffffffffffff1673ffffffffffffffffffffffffffffffffffffffff1681526020019081526020016000206000828254019250508190555080600e60008673ffffffffffffffffffffffffffffffffffffffff1673ffffffffffffffffffffffffffffffffffffffff1681526020019081526020016000206000600c60008873ffffffffffffffffffffffffffffffffffffffff1673ffffffffffffffffffffffffffffffffffffffff1681526020019081526020016000205481526020019081526020016000206000820151816000019080519060200190614222929190616d38565b50602082015181600101908051906020019061423f929190616d38565b50604082015181600201908051906020019061425c929190616d38565b506060820151816003015560808201518160040160006101000a81548173ffffffffffffffffffffffffffffffffffffffff021916908373ffffffffffffffffffffffffffffffffffffffff16021790555060a08201518160050160006101000a81548173ffffffffffffffffffffffffffffffffffffffff021916908373ffffffffffffffffffffffffffffffffffffffff16021790555060c08201518160060160006101000a81548173ffffffffffffffffffffffffffffffffffffffff021916908373ffffffffffffffffffffffffffffffffffffffff16021790555060e08201518160070160006101000a81548173ffffffffffffffffffffffffffffffffffffffff021916908373ffffffffffffffffffffffffffffffffffffffff1602179055506101008201518160080155610120820151816009015590505080600e60008873ffffffffffffffffffffffffffffffffffffffff1673ffffffffffffffffffffffffffffffffffffffff1681526020019081526020016000206000600c60008a73ffffffffffffffffffffffffffffffffffffffff1673ffffffffffffffffffffffffffffffffffffffff1681526020019081526020016000205481526020019081526020016000206000820151816000019080519060200190614448929190616d38565b506020820151816001019080519060200190614465929190616d38565b506040820151816002019080519060200190614482929190616d38565b506060820151816003015560808201518160040160006101000a81548173ffffffffffffffffffffffffffffffffffffffff021916908373ffffffffffffffffffffffffffffffffffffffff16021790555060a08201518160050160006101000a81548173ffffffffffffffffffffffffffffffffffffffff021916908373ffffffffffffffffffffffffffffffffffffffff16021790555060c08201518160060160006101000a81548173ffffffffffffffffffffffffffffffffffffffff021916908373ffffffffffffffffffffffffffffffffffffffff16021790555060e08201518160070160006101000a81548173ffffffffffffffffffffffffffffffffffffffff021916908373ffffffffffffffffffffffffffffffffffffffff1602179055506101008201518160080155610120820151816009015590505080600e60008773ffffffffffffffffffffffffffffffffffffffff1673ffffffffffffffffffffffffffffffffffffffff1681526020019081526020016000206000600c60008973ffffffffffffffffffffffffffffffffffffffff1673ffffffffffffffffffffffffffffffffffffffff168152602001908152602001600020548152602001908152602001600020600082015181600001908051906020019061466e929190616d38565b50602082015181600101908051906020019061468b929190616d38565b5060408201518160020190805190602001906146a8929190616d38565b506060820151816003015560808201518160040160006101000a81548173ffffffffffffffffffffffffffffffffffffffff021916908373ffffffffffffffffffffffffffffffffffffffff16021790555060a08201518160050160006101000a81548173ffffffffffffffffffffffffffffffffffffffff021916908373ffffffffffffffffffffffffffffffffffffffff16021790555060c08201518160060160006101000a81548173ffffffffffffffffffffffffffffffffffffffff021916908373ffffffffffffffffffffffffffffffffffffffff16021790555060e08201518160070160006101000a81548173ffffffffffffffffffffffffffffffffffffffff021916908373ffffffffffffffffffffffffffffffffffffffff160217905550610100820151816008015561012082015181600901559050506001600660008873ffffffffffffffffffffffffffffffffffffffff1673ffffffffffffffffffffffffffffffffffffffff168152602001908152602001600020600082825401925050819055506001600660008773ffffffffffffffffffffffffffffffffffffffff1673ffffffffffffffffffffffffffffffffffffffff168152602001908152602001600020600082825401925050819055506001600660008673ffffffffffffffffffffffffffffffffffffffff1673ffffffffffffffffffffffffffffffffffffffff1681526020019081526020016000206000828254019250508190555080600560008873ffffffffffffffffffffffffffffffffffffffff1673ffffffffffffffffffffffffffffffffffffffff1681526020019081526020016000206000600660008a73ffffffffffffffffffffffffffffffffffffffff1673ffffffffffffffffffffffffffffffffffffffff168152602001908152602001600020548152602001908152602001600020600082015181600001908051906020019061497e929190616d38565b50602082015181600101908051906020019061499b929190616d38565b5060408201518160020190805190602001906149b8929190616d38565b506060820151816003015560808201518160040160006101000a81548173ffffffffffffffffffffffffffffffffffffffff021916908373ffffffffffffffffffffffffffffffffffffffff16021790555060a08201518160050160006101000a81548173ffffffffffffffffffffffffffffffffffffffff021916908373ffffffffffffffffffffffffffffffffffffffff16021790555060c08201518160060160006101000a81548173ffffffffffffffffffffffffffffffffffffffff021916908373ffffffffffffffffffffffffffffffffffffffff16021790555060e08201518160070160006101000a81548173ffffffffffffffffffffffffffffffffffffffff021916908373ffffffffffffffffffffffffffffffffffffffff1602179055506101008201518160080155610120820151816009015590505080600560008773ffffffffffffffffffffffffffffffffffffffff1673ffffffffffffffffffffffffffffffffffffffff1681526020019081526020016000206000600660008973ffffffffffffffffffffffffffffffffffffffff1673ffffffffffffffffffffffffffffffffffffffff1681526020019081526020016000205481526020019081526020016000206000820151816000019080519060200190614ba4929190616d38565b506020820151816001019080519060200190614bc1929190616d38565b506040820151816002019080519060200190614bde929190616d38565b506060820151816003015560808201518160040160006101000a81548173ffffffffffffffffffffffffffffffffffffffff021916908373ffffffffffffffffffffffffffffffffffffffff16021790555060a08201518160050160006101000a81548173ffffffffffffffffffffffffffffffffffffffff021916908373ffffffffffffffffffffffffffffffffffffffff16021790555060c08201518160060160006101000a81548173ffffffffffffffffffffffffffffffffffffffff021916908373ffffffffffffffffffffffffffffffffffffffff16021790555060e08201518160070160006101000a81548173ffffffffffffffffffffffffffffffffffffffff021916908373ffffffffffffffffffffffffffffffffffffffff1602179055506101008201518160080155610120820151816009015590505080600560008673ffffffffffffffffffffffffffffffffffffffff1673ffffffffffffffffffffffffffffffffffffffff1681526020019081526020016000206000600660008873ffffffffffffffffffffffffffffffffffffffff1673ffffffffffffffffffffffffffffffffffffffff1681526020019081526020016000205481526020019081526020016000206000820151816000019080519060200190614dca929190616d38565b506020820151816001019080519060200190614de7929190616d38565b506040820151816002019080519060200190614e04929190616d38565b506060820151816003015560808201518160040160006101000a81548173ffffffffffffffffffffffffffffffffffffffff021916908373ffffffffffffffffffffffffffffffffffffffff16021790555060a08201518160050160006101000a81548173ffffffffffffffffffffffffffffffffffffffff021916908373ffffffffffffffffffffffffffffffffffffffff16021790555060c08201518160060160006101000a81548173ffffffffffffffffffffffffffffffffffffffff021916908373ffffffffffffffffffffffffffffffffffffffff16021790555060e08201518160070160006101000a81548173ffffffffffffffffffffffffffffffffffffffff021916908373ffffffffffffffffffffffffffffffffffffffff160217905550610100820151816008015561012082015181600901559050507f03616698667ed58160fe9625fff4a020f318d7f094a2114f0b769021a5698130888860015489898989426040518080602001806020018981526020018873ffffffffffffffffffffffffffffffffffffffff1673ffffffffffffffffffffffffffffffffffffffff1681526020018773ffffffffffffffffffffffffffffffffffffffff1673ffffffffffffffffffffffffffffffffffffffff1681526020018673ffffffffffffffffffffffffffffffffffffffff1673ffffffffffffffffffffffffffffffffffffffff16815260200185815260200184815260200183810383528b818151815260200191508051906020019080838360005b8381101561505b578082015181840152602081019050615040565b50505050905090810190601f1680156150885780820380516001836020036101000a031916815260200191505b5083810382528a818151815260200191508051906020019080838360005b838110156150c15780820151818401526020810190506150a6565b50505050905090810190601f1680156150ee5780820380516001836020036101000a031916815260200191505b509a505050505050505050505060405180910390a15050505050505050565b600881805160208101820180518482526020830160208501208183528095505050505050600091509050806000018054600181600116156101000203166002900480601f0160208091040260200160405190810160405280929190818152602001828054600181600116156101000203166002900480156151cf5780601f106151a4576101008083540402835291602001916151cf565b820191906000526020600020905b8154815290600101906020018083116151b257829003601f168201915b505050505090806001018054600181600116156101000203166002900480601f01602080910402602001604051908101604052809291908181526020018280546001816001161561010002031660029004801561526d5780601f106152425761010080835404028352916020019161526d565b820191906000526020600020905b81548152906001019060200180831161525057829003601f168201915b505050505090806002018054600181600116156101000203166002900480601f01602080910402602001604051908101604052809291908181526020018280546001816001161561010002031660029004801561530b5780601f106152e05761010080835404028352916020019161530b565b820191906000526020600020905b8154815290600101906020018083116152ee57829003601f168201915b5050505050908060030154908060040160009054906101000a900473ffffffffffffffffffffffffffffffffffffffff16908060050160009054906101000a900473ffffffffffffffffffffffffffffffffffffffff16908060060160009054906101000a900473ffffffffffffffffffffffffffffffffffffffff16908060070160009054906101000a900473ffffffffffffffffffffffffffffffffffffffff1690806008015490806009015490508a565b6007602052806000526040600020600091509050806000018054600181600116156101000203166002900480601f01602080910402602001604051908101604052809291908181526020018280546001816001161561010002031660029004801561546b5780601f106154405761010080835404028352916020019161546b565b820191906000526020600020905b81548152906001019060200180831161544e57829003601f168201915b505050505090806001018054600181600116156101000203166002900480601f0160208091040260200160405190810160405280929190818152602001828054600181600116156101000203166002900480156155095780601f106154de57610100808354040283529160200191615509565b820191906000526020600020905b8154815290600101906020018083116154ec57829003601f168201915b505050505090806002018054600181600116156101000203166002900480601f0160208091040260200160405190810160405280929190818152602001828054600181600116156101000203166002900480156155a75780601f1061557c576101008083540402835291602001916155a7565b820191906000526020600020905b81548152906001019060200180831161558a57829003601f168201915b5050505050908060030154908060040160009054906101000a900473ffffffffffffffffffffffffffffffffffffffff16908060050160009054906101000a900473ffffffffffffffffffffffffffffffffffffffff16908060060160009054906101000a900473ffffffffffffffffffffffffffffffffffffffff16908060070160009054906101000a900473ffffffffffffffffffffffffffffffffffffffff1690806008015490806009015490508a565b600e60205281600052604060002060205280600052604060002060009150915050806000018054600181600116156101000203166002900480601f0160208091040260200160405190810160405280929190818152602001828054600181600116156101000203166002900480156157145780601f106156e957610100808354040283529160200191615714565b820191906000526020600020905b8154815290600101906020018083116156f757829003601f168201915b505050505090806001018054600181600116156101000203166002900480601f0160208091040260200160405190810160405280929190818152602001828054600181600116156101000203166002900480156157b25780601f10615787576101008083540402835291602001916157b2565b820191906000526020600020905b81548152906001019060200180831161579557829003601f168201915b505050505090806002018054600181600116156101000203166002900480601f0160208091040260200160405190810160405280929190818152602001828054600181600116156101000203166002900480156158505780601f1061582557610100808354040283529160200191615850565b820191906000526020600020905b81548152906001019060200180831161583357829003601f168201915b5050505050908060030154908060040160009054906101000a900473ffffffffffffffffffffffffffffffffffffffff16908060050160009054906101000a900473ffffffffffffffffffffffffffffffffffffffff16908060060160009054906101000a900473ffffffffffffffffffffffffffffffffffffffff16908060070160009054906101000a900473ffffffffffffffffffffffffffffffffffffffff1690806008015490806009015490508a565b60018060008282540192505081905550600160026000828254019250508190555061592d616c48565b604051806101000160405280838152602001600081526020016000815260200160008152602001600081526020018381526020016000815260200160008152509050615977616c8d565b6040518061014001604052806040518060200160405280600081525081526020016040518060400160405280600881526020017f7472616e73666572000000000000000000000000000000000000000000000000815250815260200187815260200160015481526020018673ffffffffffffffffffffffffffffffffffffffff1681526020018573ffffffffffffffffffffffffffffffffffffffff168152602001600073ffffffffffffffffffffffffffffffffffffffff168152602001600073ffffffffffffffffffffffffffffffffffffffff168152602001848152602001428152509050806007600060015481526020019081526020016000206000820151816000019080519060200190615a91929190616d38565b506020820151816001019080519060200190615aae929190616d38565b506040820151816002019080519060200190615acb929190616d38565b506060820151816003015560808201518160040160006101000a81548173ffffffffffffffffffffffffffffffffffffffff021916908373ffffffffffffffffffffffffffffffffffffffff16021790555060a08201518160050160006101000a81548173ffffffffffffffffffffffffffffffffffffffff021916908373ffffffffffffffffffffffffffffffffffffffff16021790555060c08201518160060160006101000a81548173ffffffffffffffffffffffffffffffffffffffff021916908373ffffffffffffffffffffffffffffffffffffffff16021790555060e08201518160070160006101000a81548173ffffffffffffffffffffffffffffffffffffffff021916908373ffffffffffffffffffffffffffffffffffffffff16021790555061010082015181600801556101208201518160090155905050806008876040518082805190602001908083835b60208310615c425780518252602082019150602081019050602083039250615c1f565b6001836020036101000a03801982511681845116808217855250505050505090500191505090815260200160405180910390206000820151816000019080519060200190615c91929190616d38565b506020820151816001019080519060200190615cae929190616d38565b506040820151816002019080519060200190615ccb929190616d38565b506060820151816003015560808201518160040160006101000a81548173ffffffffffffffffffffffffffffffffffffffff021916908373ffffffffffffffffffffffffffffffffffffffff16021790555060a08201518160050160006101000a81548173ffffffffffffffffffffffffffffffffffffffff021916908373ffffffffffffffffffffffffffffffffffffffff16021790555060c08201518160060160006101000a81548173ffffffffffffffffffffffffffffffffffffffff021916908373ffffffffffffffffffffffffffffffffffffffff16021790555060e08201518160070160006101000a81548173ffffffffffffffffffffffffffffffffffffffff021916908373ffffffffffffffffffffffffffffffffffffffff16021790555061010082015181600801556101208201518160090155905050816009876040518082805190602001908083835b60208310615e425780518252602082019150602081019050602083039250615e1f565b6001836020036101000a0380198251168184511680821785525050505050509050019150509081526020016040518091039020600082015181600001556020820151816001015560408201518160020155606082015181600301556080820151816004015560a0820151816005015560c0820151816006015560e0820151816007015590505080600a60405180807f7472616e7366657200000000000000000000000000000000000000000000000081525060080190509081526020016040518091039020600060025481526020019081526020016000206000820151816000019080519060200190615f36929190616d38565b506020820151816001019080519060200190615f53929190616d38565b506040820151816002019080519060200190615f70929190616d38565b506060820151816003015560808201518160040160006101000a81548173ffffffffffffffffffffffffffffffffffffffff021916908373ffffffffffffffffffffffffffffffffffffffff16021790555060a08201518160050160006101000a81548173ffffffffffffffffffffffffffffffffffffffff021916908373ffffffffffffffffffffffffffffffffffffffff16021790555060c08201518160060160006101000a81548173ffffffffffffffffffffffffffffffffffffffff021916908373ffffffffffffffffffffffffffffffffffffffff16021790555060e08201518160070160006101000a81548173ffffffffffffffffffffffffffffffffffffffff021916908373ffffffffffffffffffffffffffffffffffffffff160217905550610100820151816008015561012082015181600901559050506001600660008773ffffffffffffffffffffffffffffffffffffffff1673ffffffffffffffffffffffffffffffffffffffff168152602001908152602001600020600082825401925050819055506001600660008673ffffffffffffffffffffffffffffffffffffffff1673ffffffffffffffffffffffffffffffffffffffff1681526020019081526020016000206000828254019250508190555080600560008773ffffffffffffffffffffffffffffffffffffffff1673ffffffffffffffffffffffffffffffffffffffff1681526020019081526020016000206000600660008973ffffffffffffffffffffffffffffffffffffffff1673ffffffffffffffffffffffffffffffffffffffff16815260200190815260200160002054815260200190815260200160002060008201518160000190805190602001906161f8929190616d38565b506020820151816001019080519060200190616215929190616d38565b506040820151816002019080519060200190616232929190616d38565b506060820151816003015560808201518160040160006101000a81548173ffffffffffffffffffffffffffffffffffffffff021916908373ffffffffffffffffffffffffffffffffffffffff16021790555060a08201518160050160006101000a81548173ffffffffffffffffffffffffffffffffffffffff021916908373ffffffffffffffffffffffffffffffffffffffff16021790555060c08201518160060160006101000a81548173ffffffffffffffffffffffffffffffffffffffff021916908373ffffffffffffffffffffffffffffffffffffffff16021790555060e08201518160070160006101000a81548173ffffffffffffffffffffffffffffffffffffffff021916908373ffffffffffffffffffffffffffffffffffffffff1602179055506101008201518160080155610120820151816009015590505080600560008673ffffffffffffffffffffffffffffffffffffffff1673ffffffffffffffffffffffffffffffffffffffff1681526020019081526020016000206000600660008873ffffffffffffffffffffffffffffffffffffffff1673ffffffffffffffffffffffffffffffffffffffff168152602001908152602001600020548152602001908152602001600020600082015181600001908051906020019061641e929190616d38565b50602082015181600101908051906020019061643b929190616d38565b506040820151816002019080519060200190616458929190616d38565b506060820151816003015560808201518160040160006101000a81548173ffffffffffffffffffffffffffffffffffffffff021916908373ffffffffffffffffffffffffffffffffffffffff16021790555060a08201518160050160006101000a81548173ffffffffffffffffffffffffffffffffffffffff021916908373ffffffffffffffffffffffffffffffffffffffff16021790555060c08201518160060160006101000a81548173ffffffffffffffffffffffffffffffffffffffff021916908373ffffffffffffffffffffffffffffffffffffffff16021790555060e08201518160070160006101000a81548173ffffffffffffffffffffffffffffffffffffffff021916908373ffffffffffffffffffffffffffffffffffffffff160217905550610100820151816008015561012082015181600901559050507f962f4b28e71f095a7feb75bd7dc8bcb3a919aebc6bce3ab7e21968fb64981116866001548787874260405180806020018781526020018673ffffffffffffffffffffffffffffffffffffffff1673ffffffffffffffffffffffffffffffffffffffff1681526020018573ffffffffffffffffffffffffffffffffffffffff1673ffffffffffffffffffffffffffffffffffffffff168152602001848152602001838152602001828103825288818151815260200191508051906020019080838360005b8381101561667757808201518184015260208101905061665c565b50505050905090810190601f1680156166a45780820380516001836020036101000a031916815260200191505b5097505050505050505060405180910390a1505050505050565b60066020528060005260406000206000915090505481565b8060008190555050565b600560205281600052604060002060205280600052604060002060009150915050806000018054600181600116156101000203166002900480601f0160208091040260200160405190810160405280929190818152602001828054600181600116156101000203166002900480156167995780601f1061676e57610100808354040283529160200191616799565b820191906000526020600020905b81548152906001019060200180831161677c57829003601f168201915b505050505090806001018054600181600116156101000203166002900480601f0160208091040260200160405190810160405280929190818152602001828054600181600116156101000203166002900480156168375780601f1061680c57610100808354040283529160200191616837565b820191906000526020600020905b81548152906001019060200180831161681a57829003601f168201915b505050505090806002018054600181600116156101000203166002900480601f0160208091040260200160405190810160405280929190818152602001828054600181600116156101000203166002900480156168d55780601f106168aa576101008083540402835291602001916168d5565b820191906000526020600020905b8154815290600101906020018083116168b857829003601f168201915b5050505050908060030154908060040160009054906101000a900473ffffffffffffffffffffffffffffffffffffffff16908060050160009054906101000a900473ffffffffffffffffffffffffffffffffffffffff16908060060160009054906101000a900473ffffffffffffffffffffffffffffffffffffffff16908060070160009054906101000a900473ffffffffffffffffffffffffffffffffffffffff1690806008015490806009015490508a565b600a8280516020810182018051848252602083016020850120818352809550505050505060205280600052604060002060009150915050806000018054600181600116156101000203166002900480601f016020809104026020016040519081016040528092919081815260200182805460018160011615610100020316600290048015616a585780601f10616a2d57610100808354040283529160200191616a58565b820191906000526020600020905b815481529060010190602001808311616a3b57829003601f168201915b505050505090806001018054600181600116156101000203166002900480601f016020809104026020016040519081016040528092919081815260200182805460018160011615610100020316600290048015616af65780601f10616acb57610100808354040283529160200191616af6565b820191906000526020600020905b815481529060010190602001808311616ad957829003601f168201915b505050505090806002018054600181600116156101000203166002900480601f016020809104026020016040519081016040528092919081815260200182805460018160011615610100020316600290048015616b945780601f10616b6957610100808354040283529160200191616b94565b820191906000526020600020905b815481529060010190602001808311616b7757829003601f168201915b5050505050908060030154908060040160009054906101000a900473ffffffffffffffffffffffffffffffffffffffff16908060050160009054906101000a900473ffffffffffffffffffffffffffffffffffffffff16908060060160009054906101000a900473ffffffffffffffffffffffffffffffffffffffff16908060070160009054906101000a900473ffffffffffffffffffffffffffffffffffffffff1690806008015490806009015490508a565b60405180610100016040528060008152602001600081526020016000815260200160008152602001600081526020016000815260200160008152602001600081525090565b60405180610140016040528060608152602001606081526020016060815260200160008152602001600073ffffffffffffffffffffffffffffffffffffffff168152602001600073ffffffffffffffffffffffffffffffffffffffff168152602001600073ffffffffffffffffffffffffffffffffffffffff168152602001600073ffffffffffffffffffffffffffffffffffffffff16815260200160008152602001600081525090565b828054600181600116156101000203166002900490600052602060002090601f016020900481019282601f10616d7957805160ff1916838001178555616da7565b82800160010185558215616da7579182015b82811115616da6578251825591602001919060010190616d8b565b5b509050616db49190616db8565b5090565b616dda91905b80821115616dd6576000816000905550600101616dbe565b5090565b9056fea165627a7a72305820f75d89d9394296108f96d7f2b40594420f578c1c0b3001d34c048c413e884a350029",
  "source": "pragma solidity ^0.5.0;\n\nimport \"./AbstractTransaction.sol\";\n\ncontract Transaction is AbstractTransaction {\n\n\tuint256 public lastSyncQueue = 0;\n\tuint256 public queueNumber = 0;\n\tuint256 public dataUploadTxCount = 0;\n\tuint256 public dataPurchaseTxCount = 0;\n\tuint256 public transferTxCount = 0;\n\tmapping (address => mapping(uint256 => Tx)) public addressTx;\n\tmapping (address => uint256) public addressTxCount;\n\tmapping (uint256 => Tx) public transactions;\n\tmapping (string => Tx) public transactionByHash;\n\tmapping (string => TxPayData) public transactionPayDataByHash;\n\tmapping (string => mapping(uint256 => Tx)) public transactionsByType;\n\n\tmapping (address => uint256) public addressTxCountPurchase;\n\tmapping (address => uint256) public addressTxCountUpload;\n\n\tmapping (address => mapping (uint256 => Tx)) public addressTxPurchase;\n\tmapping (address => mapping (uint256 => Tx)) public addressTxUpload;\n\t\n\tstruct Tx {\n\t\tstring fileUuid;\n\t\tstring txType;\n\t\tstring hash;\n\t\tuint256 queueNumber;\n\t\taddress serviceNode;\n\t\taddress dataValidator;\n\t\taddress dataMart;\n\t\taddress dataOwner;\n\t\tuint256 value;\n\t\tuint created_at;\n\t}\n\n\tstruct TxPayData {\n\t\tuint256 valueInServiceNode;\n\t\tuint256 valueInDataValidator;\n\t\tuint256 valueInDataMart;\n\t\tuint256 valueInDataOwner;\n\t\tuint256 valueOutServiceNode;\n\t\tuint256 valueOutDataValidator;\n\t\tuint256 valueOutDataMart;\n\t\tuint256 valueOutDataOwner;\n\t}\n\n\tevent TxDataUpload(\n\t\tstring fileUuid,\n\t\tstring hash,\n\t\tuint256 queueNumber,\n\t\taddress serviceNode,\n\t\taddress dataValidator,\n\t\taddress dataOwner,\n\t\tuint256 value,\n\t\tuint created_at\n\t);\n\n\tevent TxDataPurchase(\n\t\tstring fileUuid,\n\t\tstring hash,\n\t\tuint256 queueNumber,\n\t\taddress serviceNode,\n\t\taddress dataValidator,\n\t\taddress dataMart,\n\t\taddress dataOwner,\n\t\tuint256 value,\n\t\tuint created_at\n\t);\n\n\tevent TxTransfer(\n\t\tstring hash,\n\t\tuint256 queueNumber,\n\t\taddress serviceNode,\n\t\taddress dataValidator,\n\t\tuint256 value,\n\t\tuint created_at\n\t);\n\n\n\tfunction transactionDataUpload(\n\t\tstring memory _uuid,\n\t\tstring memory _hash,\n\t\taddress _serviceNode,\n\t\taddress _dataValidator,\n\t\taddress _dataOwner,\n\t\tuint256 _value\n\t) public {\n\t\tqueueNumber += 1;\n\t\tdataUploadTxCount += 1;\n\n\t\tTxPayData memory _txPayData = TxPayData(_value, 0, 0, 0, 0, _value, 0, 0);\n\n\t\tTx memory _tx = Tx(\n\t\t\t_uuid,\n\t\t\t'dataUpload',\n\t\t\t_hash,\n\t\t\tqueueNumber,\n\t\t\t_serviceNode,\n\t\t\t_dataValidator,\n\t\t\taddress(0),\n\t\t\t_dataOwner,\n\t\t\t_value,\n\t\t\tnow\n\t\t);\n\t\ttransactions[queueNumber] = _tx;\n\t\ttransactionByHash[_hash] = _tx;\n\t\ttransactionPayDataByHash[_hash] = _txPayData;\n\t\ttransactionsByType['dataUpload'][dataUploadTxCount] = _tx;\n\n\t\taddressTxCountUpload[_serviceNode] += 1;\n\t\taddressTxCountUpload[_dataValidator] += 1;\n\t\taddressTxCountUpload[_dataOwner] += 1;\n\n\t\taddressTxUpload[_dataOwner][\n\t\t\taddressTxCountUpload[_dataOwner]\n\t\t] = _tx;\n\n\t\taddressTxUpload[_serviceNode][\n\t\t\taddressTxCountUpload[_serviceNode]\n\t\t] = _tx;\n\n\t\taddressTxUpload[_dataValidator][\n\t\t\taddressTxCountUpload[_dataValidator]\n\t\t] = _tx;\n\n\t\taddressTxCount[_serviceNode] += 1;\n\t\taddressTxCount[_dataValidator] += 1;\n\t\taddressTxCount[_dataOwner] += 1;\n\n\t\taddressTx[_serviceNode][addressTxCount[_serviceNode]] = _tx;\n\t\taddressTx[_dataValidator][addressTxCount[_dataValidator]] = _tx;\n\t\taddressTx[_dataOwner][addressTxCount[_dataOwner]] = _tx;\n\n\n\t\temit TxDataUpload(\n\t\t\t_uuid,\n\t\t\t_hash,\n\t\t\tqueueNumber,\n\t\t\t_serviceNode,\n\t\t\t_dataValidator,\n\t\t\t_dataOwner,\n\t\t\t_value,\n\t\t\tnow\n\t\t);\n\t}\n\n\tfunction transactionDataPurchase(\n\t\tstring memory _uuid,\n\t\tstring memory _hash,\n\t\taddress _serviceNode,\n\t\taddress _dataValidator,\n\t\taddress _dataMart,\n\t\taddress _dataOwner,\n\t\tuint256 _value\n\t) public {\n\t\tqueueNumber += 1;\n\t\tdataPurchaseTxCount += 1;\n\n\t\tuint256 _amount = _value / 2;\n\t\tTxPayData memory _txPayData = TxPayData(0, _amount, 0, _amount, 0, 0, _value, 0);\n\n\t\tTx memory _tx = Tx(\n\t\t\t_uuid,\n\t\t\t'dataPurchase',\n\t\t\t_hash,\n\t\t\tqueueNumber,\n\t\t\t_serviceNode,\n\t\t\t_dataValidator,\n\t\t\t_dataMart,\n\t\t\t_dataOwner,\n\t\t\t_value,\n\t\t\tnow\n\t\t);\n\t\ttransactions[queueNumber] = _tx;\n\t\ttransactionByHash[_hash] = _tx;\n\t\ttransactionPayDataByHash[_hash] = _txPayData;\n\t\ttransactionsByType['dataPurchase'][dataPurchaseTxCount] = _tx;\n\n\t\taddressTxCount[_serviceNode] += 1;\n\t\taddressTxCount[_dataValidator] += 1;\n\t\taddressTxCount[_dataMart] += 1;\n\t\taddressTxCount[_dataOwner] += 1;\n\n\t\taddressTx[_serviceNode][addressTxCount[_serviceNode]] = _tx;\n\t\taddressTx[_dataValidator][addressTxCount[_dataValidator]] = _tx;\n\t\taddressTx[_dataMart][addressTxCount[_dataMart]] = _tx;\n\t\taddressTx[_dataOwner][addressTxCount[_dataOwner]] = _tx;\n\n\n\t\taddressTxCountPurchase[_serviceNode] += 1;\n\t\taddressTxCountPurchase[_dataValidator] += 1;\n\t\taddressTxCountPurchase[_dataMart] += 1;\n\t\taddressTxCountPurchase[_dataOwner] += 1;\n\n\t\taddressTxPurchase[_dataOwner][\n\t\t\taddressTxCountPurchase[_dataOwner]\n\t\t] = _tx;\n\n\t\taddressTxPurchase[_serviceNode][\n\t\t\taddressTxCountPurchase[_serviceNode]\n\t\t] = _tx;\n\n\t\taddressTxPurchase[_dataValidator][\n\t\t\taddressTxCountPurchase[_dataValidator]\n\t\t] = _tx;\n\n\t\taddressTxPurchase[_dataMart][\n\t\t\taddressTxCountPurchase[_dataMart]\n\t\t] = _tx;\n\n\t\temit TxDataPurchase(\n\t\t\t_uuid,\n\t\t\t_hash,\n\t\t\tqueueNumber,\n\t\t\t_serviceNode,\n\t\t\t_dataValidator,\n\t\t\t_dataMart,\n\t\t\t_dataOwner,\n\t\t\t_value,\n\t\t\tnow\n\t\t);\n\t}\n\n\tfunction transactionTransfer(\n\t\tstring memory _hash,\n\t\taddress _serviceNode,\n\t\taddress _dataValidator,\n\t\tuint256 _value\n\t) public {\n\t\tqueueNumber += 1;\n\t\tdataUploadTxCount += 1;\n\n\t\tTxPayData memory _txPayData = TxPayData(_value, 0, 0, 0, 0, _value, 0, 0);\n\n\t\tTx memory _tx = Tx(\n\t\t\t'',\n\t\t\t'transfer',\n\t\t\t_hash,\n\t\t\tqueueNumber,\n\t\t\t_serviceNode,\n\t\t\t_dataValidator,\n\t\t\taddress(0),\n\t\t\taddress(0),\n\t\t\t_value,\n\t\t\tnow\n\t\t);\n\t\ttransactions[queueNumber] = _tx;\n\t\ttransactionByHash[_hash] = _tx;\n\t\ttransactionPayDataByHash[_hash] = _txPayData;\n\t\ttransactionsByType['transfer'][dataUploadTxCount] = _tx;\n\n\t\taddressTxCount[_serviceNode] += 1;\n\t\taddressTxCount[_dataValidator] += 1;\n\n\t\taddressTx[_serviceNode][addressTxCount[_serviceNode]] = _tx;\n\t\taddressTx[_dataValidator][addressTxCount[_dataValidator]] = _tx;\n\n\t\temit TxTransfer(\n\t\t\t_hash,\n\t\t\tqueueNumber,\n\t\t\t_serviceNode,\n\t\t\t_dataValidator,\n\t\t\t_value,\n\t\t\tnow\n\t\t);\n\t}\n\n\tfunction setLastSyncQueue(uint256 lastQueue) public {\n\t\tlastSyncQueue = lastQueue;\n\t}\n}\n",
  "sourcePath": "/var/www/plasma/contracts/Transaction.sol",
  "compiler": {
    "name": "solc",
    "version": "0.5.8+commit.23d335f2.Emscripten.clang"
  },
  "schemaVersion": "3.0.13",
  "updatedAt": "2020-08-06T15:48:34.836Z",
  "devdoc": {
    "methods": {}
  },
  "userdoc": {
    "methods": {}
  }
}