{
  "contractName": "WalletLambda",
  "abi": [
    {
      "constant": true,
      "inputs": [
        {
          "name": "",
          "type": "string"
        }
      ],
      "name": "registeredWallet",
      "outputs": [
        {
          "name": "",
          "type": "bool"
        }
      ],
      "payable": false,
      "stateMutability": "view",
      "type": "function"
    },
    {
      "constant": true,
      "inputs": [],
      "name": "decimals",
      "outputs": [
        {
          "name": "",
          "type": "uint8"
        }
      ],
      "payable": false,
      "stateMutability": "view",
      "type": "function"
    },
    {
      "constant": true,
      "inputs": [
        {
          "name": "",
          "type": "address"
        }
      ],
      "name": "lambdaWalletByEthAddress",
      "outputs": [
        {
          "name": "ethAddress",
          "type": "address"
        },
        {
          "name": "lambdaAddress",
          "type": "string"
        },
        {
          "name": "amount",
          "type": "uint256"
        }
      ],
      "payable": false,
      "stateMutability": "view",
      "type": "function"
    },
    {
      "constant": true,
      "inputs": [],
      "name": "owner",
      "outputs": [
        {
          "name": "",
          "type": "address"
        }
      ],
      "payable": false,
      "stateMutability": "view",
      "type": "function"
    },
    {
      "constant": true,
      "inputs": [
        {
          "name": "",
          "type": "string"
        }
      ],
      "name": "lambdaWalletByLambdaAddress",
      "outputs": [
        {
          "name": "ethAddress",
          "type": "address"
        },
        {
          "name": "lambdaAddress",
          "type": "string"
        },
        {
          "name": "amount",
          "type": "uint256"
        }
      ],
      "payable": false,
      "stateMutability": "view",
      "type": "function"
    },
    {
      "constant": true,
      "inputs": [
        {
          "name": "",
          "type": "string"
        }
      ],
      "name": "processedRequests",
      "outputs": [
        {
          "name": "",
          "type": "bool"
        }
      ],
      "payable": false,
      "stateMutability": "view",
      "type": "function"
    },
    {
      "constant": true,
      "inputs": [
        {
          "name": "",
          "type": "address"
        }
      ],
      "name": "validators",
      "outputs": [
        {
          "name": "",
          "type": "bool"
        }
      ],
      "payable": false,
      "stateMutability": "view",
      "type": "function"
    },
    {
      "inputs": [],
      "payable": false,
      "stateMutability": "nonpayable",
      "type": "constructor"
    },
    {
      "anonymous": false,
      "inputs": [
        {
          "indexed": false,
          "name": "validator",
          "type": "address"
        }
      ],
      "name": "ValidatorAdded",
      "type": "event"
    },
    {
      "anonymous": false,
      "inputs": [
        {
          "indexed": false,
          "name": "validator",
          "type": "address"
        }
      ],
      "name": "ValidatorRemoved",
      "type": "event"
    },
    {
      "anonymous": false,
      "inputs": [
        {
          "indexed": false,
          "name": "ethAddress",
          "type": "address"
        },
        {
          "indexed": false,
          "name": "lambdaAddress",
          "type": "string"
        },
        {
          "indexed": false,
          "name": "amount",
          "type": "uint256"
        }
      ],
      "name": "BalanceIncreased",
      "type": "event"
    },
    {
      "anonymous": false,
      "inputs": [
        {
          "indexed": false,
          "name": "ethAddress",
          "type": "address"
        },
        {
          "indexed": false,
          "name": "lambdaAddress",
          "type": "string"
        },
        {
          "indexed": false,
          "name": "amount",
          "type": "uint256"
        }
      ],
      "name": "BalanceDecreased",
      "type": "event"
    },
    {
      "constant": false,
      "inputs": [
        {
          "name": "_lambdaAddress",
          "type": "string"
        },
        {
          "name": "_txHash",
          "type": "string"
        },
        {
          "name": "_amount",
          "type": "uint256"
        }
      ],
      "name": "deposit",
      "outputs": [
        {
          "name": "",
          "type": "bool"
        }
      ],
      "payable": false,
      "stateMutability": "nonpayable",
      "type": "function"
    },
    {
      "constant": false,
      "inputs": [
        {
          "name": "_ethAddress",
          "type": "address"
        },
        {
          "name": "_lambdaAddress",
          "type": "string"
        }
      ],
      "name": "newWallet",
      "outputs": [
        {
          "name": "res",
          "type": "bool"
        }
      ],
      "payable": false,
      "stateMutability": "nonpayable",
      "type": "function"
    },
    {
      "constant": false,
      "inputs": [
        {
          "name": "_ethAddress",
          "type": "address"
        },
        {
          "name": "_amount",
          "type": "uint256"
        }
      ],
      "name": "balancePlusByEthereumAddress",
      "outputs": [
        {
          "name": "",
          "type": "bool"
        }
      ],
      "payable": false,
      "stateMutability": "nonpayable",
      "type": "function"
    },
    {
      "constant": false,
      "inputs": [
        {
          "name": "_ethAddress",
          "type": "address"
        },
        {
          "name": "_amount",
          "type": "uint256"
        }
      ],
      "name": "balanceMinusByEthereumAddress",
      "outputs": [
        {
          "name": "",
          "type": "bool"
        }
      ],
      "payable": false,
      "stateMutability": "nonpayable",
      "type": "function"
    },
    {
      "constant": false,
      "inputs": [
        {
          "name": "_ethAddress",
          "type": "address"
        },
        {
          "name": "_lambdaAddress",
          "type": "string"
        },
        {
          "name": "_amount",
          "type": "uint256"
        }
      ],
      "name": "balancePlus",
      "outputs": [
        {
          "name": "",
          "type": "bool"
        }
      ],
      "payable": false,
      "stateMutability": "nonpayable",
      "type": "function"
    },
    {
      "constant": false,
      "inputs": [
        {
          "name": "_ethAddress",
          "type": "address"
        },
        {
          "name": "_lambdaAddress",
          "type": "string"
        },
        {
          "name": "_amount",
          "type": "uint256"
        }
      ],
      "name": "balanceMinus",
      "outputs": [
        {
          "name": "",
          "type": "bool"
        }
      ],
      "payable": false,
      "stateMutability": "nonpayable",
      "type": "function"
    },
    {
      "constant": false,
      "inputs": [
        {
          "name": "_validator",
          "type": "address"
        }
      ],
      "name": "addValidator",
      "outputs": [
        {
          "name": "res",
          "type": "bool"
        }
      ],
      "payable": false,
      "stateMutability": "nonpayable",
      "type": "function"
    },
    {
      "constant": false,
      "inputs": [
        {
          "name": "_validator",
          "type": "address"
        }
      ],
      "name": "removeValidator",
      "outputs": [
        {
          "name": "res",
          "type": "bool"
        }
      ],
      "payable": false,
      "stateMutability": "nonpayable",
      "type": "function"
    },
    {
      "constant": true,
      "inputs": [
        {
          "name": "_lambdaAddress",
          "type": "string"
        }
      ],
      "name": "balanceOf",
      "outputs": [
        {
          "name": "",
          "type": "uint256"
        }
      ],
      "payable": false,
      "stateMutability": "view",
      "type": "function"
    }
  ],
  "bytecode": "0x60806040526008600060146101000a81548160ff021916908360ff16021790555034801561002c57600080fd5b50336000806101000a81548173ffffffffffffffffffffffffffffffffffffffff021916908373ffffffffffffffffffffffffffffffffffffffff1602179055506001600460003373ffffffffffffffffffffffffffffffffffffffff1673ffffffffffffffffffffffffffffffffffffffff16815260200190815260200160002060006101000a81548160ff02191690831515021790555061347e806100d46000396000f3fe608060405234801561001057600080fd5b50600436106101005760003560e01c80634d238c8e11610097578063cdc172b011610066578063cdc172b0146108f4578063d7cd902314610a62578063ed3bcc7714610b35578063fa52c7d814610c3257610100565b80634d238c8e1461065a578063574dd3e7146106b6578063815d87d7146107ad5780638da5cb5b146108aa57610100565b80632d460b9a116100d35780632d460b9a14610418578063313ce5671461050b57806335ee5f871461052f57806340a141ff146105fe57610100565b80630d75bf1e1461010557806321d8fc9d1461016b578063222ac0551461023e578063295e9d76146103b2575b600080fd5b6101516004803603604081101561011b57600080fd5b81019080803573ffffffffffffffffffffffffffffffffffffffff16906020019092919080359060200190929190505050610c8e565b604051808215151515815260200191505060405180910390f35b6102246004803603602081101561018157600080fd5b810190808035906020019064010000000081111561019e57600080fd5b8201836020820111156101b057600080fd5b803590602001918460018302840111640100000000831117156101d257600080fd5b91908080601f016020809104026020016040519081016040528093929190818152602001838380828437600081840152601f19601f82011690508083019250505050505050919291929050505061129d565b604051808215151515815260200191505060405180910390f35b6103986004803603606081101561025457600080fd5b810190808035906020019064010000000081111561027157600080fd5b82018360208201111561028357600080fd5b803590602001918460018302840111640100000000831117156102a557600080fd5b91908080601f016020809104026020016040519081016040528093929190818152602001838380828437600081840152601f19601f8201169050808301925050505050505091929192908035906020019064010000000081111561030857600080fd5b82018360208201111561031a57600080fd5b8035906020019184600183028401116401000000008311171561033c57600080fd5b91908080601f016020809104026020016040519081016040528093929190818152602001838380828437600081840152601f19601f820116905080830192505050505050509192919290803590602001909291905050506112d3565b604051808215151515815260200191505060405180910390f35b6103fe600480360360408110156103c857600080fd5b81019080803573ffffffffffffffffffffffffffffffffffffffff1690602001909291908035906020019092919050505061192c565b604051808215151515815260200191505060405180910390f35b6104f16004803603604081101561042e57600080fd5b81019080803573ffffffffffffffffffffffffffffffffffffffff1690602001909291908035906020019064010000000081111561046b57600080fd5b82018360208201111561047d57600080fd5b8035906020019184600183028401116401000000008311171561049f57600080fd5b91908080601f016020809104026020016040519081016040528093929190818152602001838380828437600081840152601f19601f820116905080830192505050505050509192919290505050611f98565b604051808215151515815260200191505060405180910390f35b6105136123a7565b604051808260ff1660ff16815260200191505060405180910390f35b6105e86004803603602081101561054557600080fd5b810190808035906020019064010000000081111561056257600080fd5b82018360208201111561057457600080fd5b8035906020019184600183028401116401000000008311171561059657600080fd5b91908080601f016020809104026020016040519081016040528093929190818152602001838380828437600081840152601f19601f8201169050808301925050505050505091929192905050506123ba565b6040518082815260200191505060405180910390f35b6106406004803603602081101561061457600080fd5b81019080803573ffffffffffffffffffffffffffffffffffffffff169060200190929190505050612430565b604051808215151515815260200191505060405180910390f35b61069c6004803603602081101561067057600080fd5b81019080803573ffffffffffffffffffffffffffffffffffffffff16906020019092919050505061254f565b604051808215151515815260200191505060405180910390f35b6106f8600480360360208110156106cc57600080fd5b81019080803573ffffffffffffffffffffffffffffffffffffffff16906020019092919050505061266e565b604051808473ffffffffffffffffffffffffffffffffffffffff1673ffffffffffffffffffffffffffffffffffffffff16815260200180602001838152602001828103825284818151815260200191508051906020019080838360005b83811015610770578082015181840152602081019050610755565b50505050905090810190601f16801561079d5780820380516001836020036101000a031916815260200191505b5094505050505060405180910390f35b610890600480360360608110156107c357600080fd5b81019080803573ffffffffffffffffffffffffffffffffffffffff1690602001909291908035906020019064010000000081111561080057600080fd5b82018360208201111561081257600080fd5b8035906020019184600183028401116401000000008311171561083457600080fd5b91908080601f016020809104026020016040519081016040528093929190818152602001838380828437600081840152601f19601f82011690508083019250505050505050919291929080359060200190929190505050612750565b604051808215151515815260200191505060405180910390f35b6108b2612c9f565b604051808273ffffffffffffffffffffffffffffffffffffffff1673ffffffffffffffffffffffffffffffffffffffff16815260200191505060405180910390f35b6109ad6004803603602081101561090a57600080fd5b810190808035906020019064010000000081111561092757600080fd5b82018360208201111561093957600080fd5b8035906020019184600183028401116401000000008311171561095b57600080fd5b91908080601f016020809104026020016040519081016040528093929190818152602001838380828437600081840152601f19601f820116905080830192505050505050509192919290505050612cc4565b604051808473ffffffffffffffffffffffffffffffffffffffff1673ffffffffffffffffffffffffffffffffffffffff16815260200180602001838152602001828103825284818151815260200191508051906020019080838360005b83811015610a25578082015181840152602081019050610a0a565b50505050905090810190601f168015610a525780820380516001836020036101000a031916815260200191505b5094505050505060405180910390f35b610b1b60048036036020811015610a7857600080fd5b8101908080359060200190640100000000811115610a9557600080fd5b820183602082011115610aa757600080fd5b80359060200191846001830284011164010000000083111715610ac957600080fd5b91908080601f016020809104026020016040519081016040528093929190818152602001838380828437600081840152601f19601f820116905080830192505050505050509192919290505050612dbc565b604051808215151515815260200191505060405180910390f35b610c1860048036036060811015610b4b57600080fd5b81019080803573ffffffffffffffffffffffffffffffffffffffff16906020019092919080359060200190640100000000811115610b8857600080fd5b820183602082011115610b9a57600080fd5b80359060200191846001830284011164010000000083111715610bbc57600080fd5b91908080601f016020809104026020016040519081016040528093929190818152602001838380828437600081840152601f19601f82011690508083019250505050505050919291929080359060200190929190505050612df2565b604051808215151515815260200191505060405180910390f35b610c7460048036036020811015610c4857600080fd5b81019080803573ffffffffffffffffffffffffffffffffffffffff169060200190929190505050613330565b604051808215151515815260200191505060405180910390f35b600060011515600460003373ffffffffffffffffffffffffffffffffffffffff1673ffffffffffffffffffffffffffffffffffffffff16815260200190815260200160002060009054906101000a900460ff16151514610d56576040517f08c379a00000000000000000000000000000000000000000000000000000000081526004018080602001828103825260128152602001807f596f75206e6f742076616c696461746f7221000000000000000000000000000081525060200191505060405180910390fd5b60008211610dcc576040517f08c379a00000000000000000000000000000000000000000000000000000000081526004018080602001828103825260118152602001807f416d6f756e74206c657373207a65726f2100000000000000000000000000000081525060200191505060405180910390fd5b610dd4613350565b600360008573ffffffffffffffffffffffffffffffffffffffff1673ffffffffffffffffffffffffffffffffffffffff1681526020019081526020016000206040518060600160405290816000820160009054906101000a900473ffffffffffffffffffffffffffffffffffffffff1673ffffffffffffffffffffffffffffffffffffffff1673ffffffffffffffffffffffffffffffffffffffff168152602001600182018054600181600116156101000203166002900480601f016020809104026020016040519081016040528092919081815260200182805460018160011615610100020316600290048015610f0d5780601f10610ee257610100808354040283529160200191610f0d565b820191906000526020600020905b815481529060010190602001808311610ef057829003601f168201915b50505050508152602001600282015481525050905060011515600582602001516040518082805190602001908083835b60208310610f605780518252602082019150602081019050602083039250610f3d565b6001836020036101000a038019825116818451168082178552505050505050905001915050908152602001604051809103902060009054906101000a900460ff16151514611016576040517f08c379a000000000000000000000000000000000000000000000000000000000815260040180806020018281038252601f8152602001807f54686973206163636f756e74206973206e6f742072656769737465726564210081525060200191505060405180910390fd5b8281604001818151019150818152505080600360008673ffffffffffffffffffffffffffffffffffffffff1673ffffffffffffffffffffffffffffffffffffffff16815260200190815260200160002060008201518160000160006101000a81548173ffffffffffffffffffffffffffffffffffffffff021916908373ffffffffffffffffffffffffffffffffffffffff16021790555060208201518160010190805190602001906110c9929190613387565b506040820151816002015590505080600282602001516040518082805190602001908083835b6020831061111257805182526020820191506020810190506020830392506110ef565b6001836020036101000a038019825116818451168082178552505050505050905001915050908152602001604051809103902060008201518160000160006101000a81548173ffffffffffffffffffffffffffffffffffffffff021916908373ffffffffffffffffffffffffffffffffffffffff16021790555060208201518160010190805190602001906111a8929190613387565b50604082015181600201559050507fa90b7dd8dd12d86d742fd74bdd72ce60182004c73b9a1ca842568da283cc893784826020015185604051808473ffffffffffffffffffffffffffffffffffffffff1673ffffffffffffffffffffffffffffffffffffffff16815260200180602001838152602001828103825284818151815260200191508051906020019080838360005b8381101561125657808201518184015260208101905061123b565b50505050905090810190601f1680156112835780820380516001836020036101000a031916815260200191505b5094505050505060405180910390a1600191505092915050565b6005818051602081018201805184825260208301602085012081835280955050505050506000915054906101000a900460ff1681565b600060011515600460003373ffffffffffffffffffffffffffffffffffffffff1673ffffffffffffffffffffffffffffffffffffffff16815260200190815260200160002060009054906101000a900460ff1615151461139b576040517f08c379a00000000000000000000000000000000000000000000000000000000081526004018080602001828103825260128152602001807f596f75206e6f742076616c696461746f7221000000000000000000000000000081525060200191505060405180910390fd5b83600115156005826040518082805190602001908083835b602083106113d657805182526020820191506020810190506020830392506113b3565b6001836020036101000a038019825116818451168082178552505050505050905001915050908152602001604051809103902060009054906101000a900460ff1615151461148c576040517f08c379a000000000000000000000000000000000000000000000000000000000815260040180806020018281038252601c8152602001807f54686973206163636f756e74206e6f742072656769737465726564210000000081525060200191505060405180910390fd5b83600015156001826040518082805190602001908083835b602083106114c757805182526020820191506020810190506020830392506114a4565b6001836020036101000a038019825116818451168082178552505050505050905001915050908152602001604051809103902060009054906101000a900460ff1615151461157d576040517f08c379a000000000000000000000000000000000000000000000000000000000815260040180806020018281038252601a8152602001807f5468697320726571756573742069732070726f6365737365642100000000000081525060200191505060405180910390fd5b600180866040518082805190602001908083835b602083106115b45780518252602082019150602081019050602083039250611591565b6001836020036101000a038019825116818451168082178552505050505050905001915050908152602001604051809103902060006101000a81548160ff021916908315150217905550611606613350565b6002876040518082805190602001908083835b6020831061163c5780518252602082019150602081019050602083039250611619565b6001836020036101000a03801982511681845116808217855250505050505090500191505090815260200160405180910390206040518060600160405290816000820160009054906101000a900473ffffffffffffffffffffffffffffffffffffffff1673ffffffffffffffffffffffffffffffffffffffff1673ffffffffffffffffffffffffffffffffffffffff168152602001600182018054600181600116156101000203166002900480601f0160208091040260200160405190810160405280929190818152602001828054600181600116156101000203166002900480156117695780601f1061173e57610100808354040283529160200191611769565b820191906000526020600020905b81548152906001019060200180831161174c57829003601f168201915b505050505081526020016002820154815250509050848160400181815101915081815250508060036000836000015173ffffffffffffffffffffffffffffffffffffffff1673ffffffffffffffffffffffffffffffffffffffff16815260200190815260200160002060008201518160000160006101000a81548173ffffffffffffffffffffffffffffffffffffffff021916908373ffffffffffffffffffffffffffffffffffffffff1602179055506020820151816001019080519060200190611835929190613387565b5060408201518160020155905050806002886040518082805190602001908083835b6020831061187a5780518252602082019150602081019050602083039250611857565b6001836020036101000a038019825116818451168082178552505050505050905001915050908152602001604051809103902060008201518160000160006101000a81548173ffffffffffffffffffffffffffffffffffffffff021916908373ffffffffffffffffffffffffffffffffffffffff1602179055506020820151816001019080519060200190611910929190613387565b5060408201518160020155905050600193505050509392505050565b600060011515600460003373ffffffffffffffffffffffffffffffffffffffff1673ffffffffffffffffffffffffffffffffffffffff16815260200190815260200160002060009054906101000a900460ff161515146119f4576040517f08c379a00000000000000000000000000000000000000000000000000000000081526004018080602001828103825260128152602001807f596f75206e6f742076616c696461746f7221000000000000000000000000000081525060200191505060405180910390fd5b60008211611a6a576040517f08c379a00000000000000000000000000000000000000000000000000000000081526004018080602001828103825260118152602001807f416d6f756e74206c657373207a65726f2100000000000000000000000000000081525060200191505060405180910390fd5b611a72613350565b600360008573ffffffffffffffffffffffffffffffffffffffff1673ffffffffffffffffffffffffffffffffffffffff1681526020019081526020016000206040518060600160405290816000820160009054906101000a900473ffffffffffffffffffffffffffffffffffffffff1673ffffffffffffffffffffffffffffffffffffffff1673ffffffffffffffffffffffffffffffffffffffff168152602001600182018054600181600116156101000203166002900480601f016020809104026020016040519081016040528092919081815260200182805460018160011615610100020316600290048015611bab5780601f10611b8057610100808354040283529160200191611bab565b820191906000526020600020905b815481529060010190602001808311611b8e57829003601f168201915b50505050508152602001600282015481525050905060011515600582602001516040518082805190602001908083835b60208310611bfe5780518252602082019150602081019050602083039250611bdb565b6001836020036101000a038019825116818451168082178552505050505050905001915050908152602001604051809103902060009054906101000a900460ff16151514611cb4576040517f08c379a000000000000000000000000000000000000000000000000000000000815260040180806020018281038252601f8152602001807f54686973206163636f756e74206973206e6f742072656769737465726564210081525060200191505060405180910390fd5b8281604001511015611d11576040517f08c379a000000000000000000000000000000000000000000000000000000000815260040180806020018281038252602681526020018061342d6026913960400191505060405180910390fd5b8281604001818151039150818152505080600360008673ffffffffffffffffffffffffffffffffffffffff1673ffffffffffffffffffffffffffffffffffffffff16815260200190815260200160002060008201518160000160006101000a81548173ffffffffffffffffffffffffffffffffffffffff021916908373ffffffffffffffffffffffffffffffffffffffff1602179055506020820151816001019080519060200190611dc4929190613387565b506040820151816002015590505080600282602001516040518082805190602001908083835b60208310611e0d5780518252602082019150602081019050602083039250611dea565b6001836020036101000a038019825116818451168082178552505050505050905001915050908152602001604051809103902060008201518160000160006101000a81548173ffffffffffffffffffffffffffffffffffffffff021916908373ffffffffffffffffffffffffffffffffffffffff1602179055506020820151816001019080519060200190611ea3929190613387565b50604082015181600201559050507fa2b6d56433ea56c7a2c4cb514c654d017cfc1a18c648c580661631b09fe1e39a84826020015185604051808473ffffffffffffffffffffffffffffffffffffffff1673ffffffffffffffffffffffffffffffffffffffff16815260200180602001838152602001828103825284818151815260200191508051906020019080838360005b83811015611f51578082015181840152602081019050611f36565b50505050905090810190601f168015611f7e5780820380516001836020036101000a031916815260200191505b5094505050505060405180910390a1600191505092915050565b600060011515600460003373ffffffffffffffffffffffffffffffffffffffff1673ffffffffffffffffffffffffffffffffffffffff16815260200190815260200160002060009054906101000a900460ff16151514612060576040517f08c379a00000000000000000000000000000000000000000000000000000000081526004018080602001828103825260128152602001807f596f75206e6f742076616c696461746f7221000000000000000000000000000081525060200191505060405180910390fd5b81600015156005826040518082805190602001908083835b6020831061209b5780518252602082019150602081019050602083039250612078565b6001836020036101000a038019825116818451168082178552505050505050905001915050908152602001604051809103902060009054906101000a900460ff16151514612151576040517f08c379a000000000000000000000000000000000000000000000000000000000815260040180806020018281038252601b8152602001807f54686973206163636f756e74206973207265676973746572656421000000000081525060200191505060405180910390fd5b60016005846040518082805190602001908083835b602083106121895780518252602082019150602081019050602083039250612166565b6001836020036101000a038019825116818451168082178552505050505050905001915050908152602001604051809103902060006101000a81548160ff0219169083151502179055506121db613350565b60405180606001604052808673ffffffffffffffffffffffffffffffffffffffff1681526020018581526020016000815250905080600360008773ffffffffffffffffffffffffffffffffffffffff1673ffffffffffffffffffffffffffffffffffffffff16815260200190815260200160002060008201518160000160006101000a81548173ffffffffffffffffffffffffffffffffffffffff021916908373ffffffffffffffffffffffffffffffffffffffff16021790555060208201518160010190805190602001906122b2929190613387565b5060408201518160020155905050806002856040518082805190602001908083835b602083106122f757805182526020820191506020810190506020830392506122d4565b6001836020036101000a038019825116818451168082178552505050505050905001915050908152602001604051809103902060008201518160000160006101000a81548173ffffffffffffffffffffffffffffffffffffffff021916908373ffffffffffffffffffffffffffffffffffffffff160217905550602082015181600101908051906020019061238d929190613387565b506040820151816002015590505060019250505092915050565b600060149054906101000a900460ff1681565b60006002826040518082805190602001908083835b602083106123f257805182526020820191506020810190506020830392506123cf565b6001836020036101000a0380198251168184511680821785525050505050509050019150509081526020016040518091039020600201549050919050565b60008060009054906101000a900473ffffffffffffffffffffffffffffffffffffffff1673ffffffffffffffffffffffffffffffffffffffff163373ffffffffffffffffffffffffffffffffffffffff161461248b57600080fd5b6000600460008473ffffffffffffffffffffffffffffffffffffffff1673ffffffffffffffffffffffffffffffffffffffff16815260200190815260200160002060006101000a81548160ff0219169083151502179055507fe1434e25d6611e0db941968fdc97811c982ac1602e951637d206f5fdda9dd8f182604051808273ffffffffffffffffffffffffffffffffffffffff1673ffffffffffffffffffffffffffffffffffffffff16815260200191505060405180910390a160019050919050565b60008060009054906101000a900473ffffffffffffffffffffffffffffffffffffffff1673ffffffffffffffffffffffffffffffffffffffff163373ffffffffffffffffffffffffffffffffffffffff16146125aa57600080fd5b6001600460008473ffffffffffffffffffffffffffffffffffffffff1673ffffffffffffffffffffffffffffffffffffffff16815260200190815260200160002060006101000a81548160ff0219169083151502179055507fe366c1c0452ed8eec96861e9e54141ebff23c9ec89fe27b996b45f5ec388498782604051808273ffffffffffffffffffffffffffffffffffffffff1673ffffffffffffffffffffffffffffffffffffffff16815260200191505060405180910390a160019050919050565b60036020528060005260406000206000915090508060000160009054906101000a900473ffffffffffffffffffffffffffffffffffffffff1690806001018054600181600116156101000203166002900480601f0160208091040260200160405190810160405280929190818152602001828054600181600116156101000203166002900480156127405780601f1061271557610100808354040283529160200191612740565b820191906000526020600020905b81548152906001019060200180831161272357829003601f168201915b5050505050908060020154905083565b600060011515600460003373ffffffffffffffffffffffffffffffffffffffff1673ffffffffffffffffffffffffffffffffffffffff16815260200190815260200160002060009054906101000a900460ff16151514612818576040517f08c379a00000000000000000000000000000000000000000000000000000000081526004018080602001828103825260128152602001807f596f75206e6f742076616c696461746f7221000000000000000000000000000081525060200191505060405180910390fd5b6000821161288e576040517f08c379a00000000000000000000000000000000000000000000000000000000081526004018080602001828103825260118152602001807f416d6f756e74206c657373207a65726f2100000000000000000000000000000081525060200191505060405180910390fd5b612896613350565b6002846040518082805190602001908083835b602083106128cc57805182526020820191506020810190506020830392506128a9565b6001836020036101000a03801982511681845116808217855250505050505090500191505090815260200160405180910390206040518060600160405290816000820160009054906101000a900473ffffffffffffffffffffffffffffffffffffffff1673ffffffffffffffffffffffffffffffffffffffff1673ffffffffffffffffffffffffffffffffffffffff168152602001600182018054600181600116156101000203166002900480601f0160208091040260200160405190810160405280929190818152602001828054600181600116156101000203166002900480156129f95780601f106129ce576101008083540402835291602001916129f9565b820191906000526020600020905b8154815290600101906020018083116129dc57829003601f168201915b5050505050815260200160028201548152505090508281604001511015612a1f57600080fd5b8281604001818151039150818152505080600360008773ffffffffffffffffffffffffffffffffffffffff1673ffffffffffffffffffffffffffffffffffffffff16815260200190815260200160002060008201518160000160006101000a81548173ffffffffffffffffffffffffffffffffffffffff021916908373ffffffffffffffffffffffffffffffffffffffff1602179055506020820151816001019080519060200190612ad2929190613387565b5060408201518160020155905050806002856040518082805190602001908083835b60208310612b175780518252602082019150602081019050602083039250612af4565b6001836020036101000a038019825116818451168082178552505050505050905001915050908152602001604051809103902060008201518160000160006101000a81548173ffffffffffffffffffffffffffffffffffffffff021916908373ffffffffffffffffffffffffffffffffffffffff1602179055506020820151816001019080519060200190612bad929190613387565b50604082015181600201559050507fa2b6d56433ea56c7a2c4cb514c654d017cfc1a18c648c580661631b09fe1e39a858585604051808473ffffffffffffffffffffffffffffffffffffffff1673ffffffffffffffffffffffffffffffffffffffff16815260200180602001838152602001828103825284818151815260200191508051906020019080838360005b83811015612c57578082015181840152602081019050612c3c565b50505050905090810190601f168015612c845780820380516001836020036101000a031916815260200191505b5094505050505060405180910390a160019150509392505050565b6000809054906101000a900473ffffffffffffffffffffffffffffffffffffffff1681565b6002818051602081018201805184825260208301602085012081835280955050505050506000915090508060000160009054906101000a900473ffffffffffffffffffffffffffffffffffffffff1690806001018054600181600116156101000203166002900480601f016020809104026020016040519081016040528092919081815260200182805460018160011615610100020316600290048015612dac5780601f10612d8157610100808354040283529160200191612dac565b820191906000526020600020905b815481529060010190602001808311612d8f57829003601f168201915b5050505050908060020154905083565b6001818051602081018201805184825260208301602085012081835280955050505050506000915054906101000a900460ff1681565b600060011515600460003373ffffffffffffffffffffffffffffffffffffffff1673ffffffffffffffffffffffffffffffffffffffff16815260200190815260200160002060009054906101000a900460ff16151514612eba576040517f08c379a00000000000000000000000000000000000000000000000000000000081526004018080602001828103825260128152602001807f596f75206e6f742076616c696461746f7221000000000000000000000000000081525060200191505060405180910390fd5b60008211612f30576040517f08c379a00000000000000000000000000000000000000000000000000000000081526004018080602001828103825260118152602001807f416d6f756e74206c657373207a65726f2100000000000000000000000000000081525060200191505060405180910390fd5b612f38613350565b6002846040518082805190602001908083835b60208310612f6e5780518252602082019150602081019050602083039250612f4b565b6001836020036101000a03801982511681845116808217855250505050505090500191505090815260200160405180910390206040518060600160405290816000820160009054906101000a900473ffffffffffffffffffffffffffffffffffffffff1673ffffffffffffffffffffffffffffffffffffffff1673ffffffffffffffffffffffffffffffffffffffff168152602001600182018054600181600116156101000203166002900480601f01602080910402602001604051908101604052809291908181526020018280546001816001161561010002031660029004801561309b5780601f106130705761010080835404028352916020019161309b565b820191906000526020600020905b81548152906001019060200180831161307e57829003601f168201915b5050505050815260200160028201548152505090508281604001818151019150818152505080600360008773ffffffffffffffffffffffffffffffffffffffff1673ffffffffffffffffffffffffffffffffffffffff16815260200190815260200160002060008201518160000160006101000a81548173ffffffffffffffffffffffffffffffffffffffff021916908373ffffffffffffffffffffffffffffffffffffffff1602179055506020820151816001019080519060200190613163929190613387565b5060408201518160020155905050806002856040518082805190602001908083835b602083106131a85780518252602082019150602081019050602083039250613185565b6001836020036101000a038019825116818451168082178552505050505050905001915050908152602001604051809103902060008201518160000160006101000a81548173ffffffffffffffffffffffffffffffffffffffff021916908373ffffffffffffffffffffffffffffffffffffffff160217905550602082015181600101908051906020019061323e929190613387565b50604082015181600201559050507fa90b7dd8dd12d86d742fd74bdd72ce60182004c73b9a1ca842568da283cc8937858585604051808473ffffffffffffffffffffffffffffffffffffffff1673ffffffffffffffffffffffffffffffffffffffff16815260200180602001838152602001828103825284818151815260200191508051906020019080838360005b838110156132e85780820151818401526020810190506132cd565b50505050905090810190601f1680156133155780820380516001836020036101000a031916815260200191505b5094505050505060405180910390a160019150509392505050565b60046020528060005260406000206000915054906101000a900460ff1681565b6040518060600160405280600073ffffffffffffffffffffffffffffffffffffffff16815260200160608152602001600081525090565b828054600181600116156101000203166002900490600052602060002090601f016020900481019282601f106133c857805160ff19168380011785556133f6565b828001600101855582156133f6579182015b828111156133f55782518255916020019190600101906133da565b5b5090506134039190613407565b5090565b61342991905b8082111561342557600081600090555060010161340d565b5090565b9056fe4e6f7420656e6f7567682066756e6473206f6e207468652062616c616e636520736865657421a165627a7a72305820dc21e4fd6eea73c02814dd8e7692ddfd283e3bdaa6c67a61d34660edb51717030029",
  "source": "pragma solidity ^0.5.0;\n\nimport \"./AbstractWallet.sol\";\nimport \"./lib/signValidator.sol\";\nimport \"./lib/SafeMath.sol\";\n\ncontract WalletLambda is AbstractWallet {\n\n\tusing SafeMath for uint256;\n\n\taddress public owner;\n\n\tuint8 public decimals = 8;\n\tmapping (string => bool) public processedRequests;\n\tmapping (string => LambdaWallet) public lambdaWalletByLambdaAddress;\n\tmapping (address => LambdaWallet) public lambdaWalletByEthAddress;\n\tmapping (address => bool) public validators;\n\tmapping (string => bool) public registeredWallet;\n\n\tconstructor() public {\n\t\towner = msg.sender;\n\t\tvalidators[msg.sender] = true;\n\t}\n\n\tstruct LambdaWallet {\n\t\taddress ethAddress;\n\t\tstring lambdaAddress;\n\t\tuint256 amount;\n\t}\n\n\tevent ValidatorAdded(address validator);\n\tevent ValidatorRemoved(address validator);\n\tevent BalanceIncreased(address ethAddress, string lambdaAddress, uint256 amount);\n\tevent BalanceDecreased(address ethAddress, string lambdaAddress, uint256 amount);\n\t\n\tmodifier isOwner() { \n\t\trequire (msg.sender == owner); \n\t\t_; \n\t}\n\n\tmodifier isValidator() { \n\t\trequire (validators[msg.sender] == true, 'You not validator!'); \n\t\t_; \n\t}\n\n\tmodifier isNotRegistered(string memory lambdaAddress) { \n\t\trequire (registeredWallet[lambdaAddress] == false, 'This account is registered!'); \n\t\t_; \n\t}\n\n\tmodifier isRegistered(string memory lambdaAddress) {\n\t\trequire (registeredWallet[lambdaAddress] == true, 'This account not registered!'); \n\t\t_; \n\t}\n\n\tmodifier isNotProcessed(string memory txHash) {\n\t\trequire (processedRequests[txHash] == false, 'This request is processed!');\n\t\t_;\n\t}\n\n\tfunction deposit(\n\t\tstring memory _lambdaAddress, \n\t\tstring memory _txHash,\n\t\tuint256 _amount\n\t) public isValidator() isRegistered(_lambdaAddress) isNotProcessed(_txHash) returns (bool) {\n\t\tprocessedRequests[_txHash] = true;\n\t\tLambdaWallet memory _lambdaWallet = lambdaWalletByLambdaAddress[_lambdaAddress];\n\t\t_lambdaWallet.amount += _amount;\n\t\tlambdaWalletByEthAddress[_lambdaWallet.ethAddress] = _lambdaWallet;\n\t\tlambdaWalletByLambdaAddress[_lambdaAddress] = _lambdaWallet;\n\t\treturn true;\n\t}\n\n\tfunction newWallet (address _ethAddress, string memory _lambdaAddress) public isValidator() isNotRegistered(_lambdaAddress) returns(bool res) {\n\t\tregisteredWallet[_lambdaAddress] = true;\n\t\tLambdaWallet memory _lambdaWallet = LambdaWallet(_ethAddress, _lambdaAddress, 0);\n\t\tlambdaWalletByEthAddress[_ethAddress] = _lambdaWallet;\n\t\tlambdaWalletByLambdaAddress[_lambdaAddress] = _lambdaWallet;\n\t\treturn true;\n\t}\n\n\tfunction balancePlusByEthereumAddress (address _ethAddress, uint256 _amount) public isValidator() returns(bool) {\n\t\trequire (_amount > 0, 'Amount less zero!');\n\t\tLambdaWallet memory _lambdaWallet = lambdaWalletByEthAddress[_ethAddress];\n\t\trequire (registeredWallet[_lambdaWallet.lambdaAddress] == true, 'This account is not registered!');\n\t\t_lambdaWallet.amount += _amount;\n\t\tlambdaWalletByEthAddress[_ethAddress] = _lambdaWallet;\n\t\tlambdaWalletByLambdaAddress[_lambdaWallet.lambdaAddress] = _lambdaWallet;\n\t\temit BalanceIncreased(_ethAddress, _lambdaWallet.lambdaAddress, _amount);\n\t\treturn true;\n\t}\n\n\tfunction balanceMinusByEthereumAddress (address _ethAddress, uint256 _amount) public isValidator() returns(bool) {\n\t\trequire (_amount > 0, 'Amount less zero!');\n\t\tLambdaWallet memory _lambdaWallet = lambdaWalletByEthAddress[_ethAddress];\n\t\trequire (registeredWallet[_lambdaWallet.lambdaAddress] == true, 'This account is not registered!');\n\t\trequire (_lambdaWallet.amount >=_amount, 'Not enough funds on the balance sheet!');\n\t\t_lambdaWallet.amount -= _amount;\n\t\tlambdaWalletByEthAddress[_ethAddress] = _lambdaWallet;\n\t\tlambdaWalletByLambdaAddress[_lambdaWallet.lambdaAddress] = _lambdaWallet;\n\t\temit BalanceDecreased(_ethAddress, _lambdaWallet.lambdaAddress, _amount);\n\t\treturn true;\n\t}\n\t\n\n\tfunction balancePlus (address _ethAddress, string memory _lambdaAddress, uint256 _amount) public isValidator() returns(bool) {\n\t\trequire (_amount > 0, 'Amount less zero!');\n\t\tLambdaWallet memory _lambdaWallet = lambdaWalletByLambdaAddress[_lambdaAddress];\n\t\t_lambdaWallet.amount += _amount;\n\t\tlambdaWalletByEthAddress[_ethAddress] = _lambdaWallet;\n\t\tlambdaWalletByLambdaAddress[_lambdaAddress] = _lambdaWallet;\n\t\temit BalanceIncreased(_ethAddress, _lambdaAddress, _amount);\n\t\treturn true;\n\t}\n\n\tfunction balanceMinus (address _ethAddress, string memory _lambdaAddress, uint256 _amount) public isValidator() returns(bool) {\n\t\trequire (_amount > 0, 'Amount less zero!');\n\t\tLambdaWallet memory _lambdaWallet = lambdaWalletByLambdaAddress[_lambdaAddress];\n\t\trequire (_lambdaWallet.amount >= _amount);\n\t\t_lambdaWallet.amount -= _amount;\n\t\tlambdaWalletByEthAddress[_ethAddress] = _lambdaWallet;\n\t\tlambdaWalletByLambdaAddress[_lambdaAddress] = _lambdaWallet;\n\t\temit BalanceDecreased(_ethAddress, _lambdaAddress, _amount);\n\t\treturn true;\n\t}\n\n\tfunction addValidator (address _validator) public isOwner() returns(bool res) {\n\t\tvalidators[_validator] = true;\n\t\temit ValidatorAdded(_validator);\n\t\treturn true;\n\t}\n\n\tfunction removeValidator (address _validator) public isOwner() returns(bool res) {\n\t\tvalidators[_validator] = false;\n\t\temit ValidatorRemoved(_validator);\n\t\treturn true;\n\t}\n\n\tfunction balanceOf(string memory _lambdaAddress) public view returns (uint256) {\n\t\treturn lambdaWalletByLambdaAddress[_lambdaAddress].amount;\n\t}\n}\n",
  "sourcePath": "/var/www/plasma/contracts/WalletLambda.sol",
  "compiler": {
    "name": "solc",
    "version": "0.5.8+commit.23d335f2.Emscripten.clang"
  },
  "schemaVersion": "3.0.13",
  "updatedAt": "2020-08-03T11:17:59.798Z",
  "devdoc": {
    "methods": {}
  },
  "userdoc": {
    "methods": {}
  }
}